{
  "contractName": "ChainRideContract",
  "abi": [
    {
      "anonymous": false,
      "inputs": [
        {
          "indexed": true,
          "internalType": "uint256",
          "name": "clientId",
          "type": "uint256"
        },
        {
          "indexed": true,
          "internalType": "address",
          "name": "walletAddress",
          "type": "address"
        }
      ],
      "name": "ClientRegistered",
      "type": "event"
    },
    {
      "anonymous": false,
      "inputs": [
        {
          "indexed": true,
          "internalType": "uint256",
          "name": "driverId",
          "type": "uint256"
        },
        {
          "indexed": true,
          "internalType": "address",
          "name": "walletAddress",
          "type": "address"
        }
      ],
      "name": "DriverRegistered",
      "type": "event"
    },
    {
      "anonymous": false,
      "inputs": [
        {
          "indexed": true,
          "internalType": "uint256",
          "name": "rideId",
          "type": "uint256"
        },
        {
          "indexed": true,
          "internalType": "uint256",
          "name": "clientId",
          "type": "uint256"
        },
        {
          "indexed": false,
          "internalType": "uint256",
          "name": "amount",
          "type": "uint256"
        }
      ],
      "name": "PaymentReceived",
      "type": "event"
    },
    {
      "anonymous": false,
      "inputs": [
        {
          "indexed": true,
          "internalType": "uint256",
          "name": "rideId",
          "type": "uint256"
        }
      ],
      "name": "RideCancelled",
      "type": "event"
    },
    {
      "anonymous": false,
      "inputs": [
        {
          "indexed": true,
          "internalType": "uint256",
          "name": "rideId",
          "type": "uint256"
        }
      ],
      "name": "RideCompleted",
      "type": "event"
    },
    {
      "anonymous": false,
      "inputs": [
        {
          "indexed": true,
          "internalType": "uint256",
          "name": "rideId",
          "type": "uint256"
        },
        {
          "indexed": true,
          "internalType": "uint256",
          "name": "clientId",
          "type": "uint256"
        },
        {
          "indexed": false,
          "internalType": "uint256",
          "name": "amount",
          "type": "uint256"
        }
      ],
      "name": "RideConfirmed",
      "type": "event"
    },
    {
      "anonymous": false,
      "inputs": [
        {
          "indexed": true,
          "internalType": "uint256",
          "name": "rideId",
          "type": "uint256"
        },
        {
          "indexed": true,
          "internalType": "uint256",
          "name": "driverId",
          "type": "uint256"
        },
        {
          "indexed": false,
          "internalType": "uint256",
          "name": "price",
          "type": "uint256"
        }
      ],
      "name": "RideCreated",
      "type": "event"
    },
    {
      "anonymous": false,
      "inputs": [
        {
          "indexed": true,
          "internalType": "uint256",
          "name": "rideId",
          "type": "uint256"
        },
        {
          "indexed": true,
          "internalType": "uint256",
          "name": "clientId",
          "type": "uint256"
        }
      ],
      "name": "RideRequestAccepted",
      "type": "event"
    },
    {
      "anonymous": false,
      "inputs": [
        {
          "indexed": true,
          "internalType": "uint256",
          "name": "rideId",
          "type": "uint256"
        },
        {
          "indexed": true,
          "internalType": "uint256",
          "name": "clientId",
          "type": "uint256"
        }
      ],
      "name": "RideRequestRejected",
      "type": "event"
    },
    {
      "anonymous": false,
      "inputs": [
        {
          "indexed": true,
          "internalType": "uint256",
          "name": "rideId",
          "type": "uint256"
        },
        {
          "indexed": true,
          "internalType": "uint256",
          "name": "clientId",
          "type": "uint256"
        },
        {
          "indexed": false,
          "internalType": "uint256",
          "name": "requestId",
          "type": "uint256"
        }
      ],
      "name": "RideRequested",
      "type": "event"
    },
    {
      "anonymous": false,
      "inputs": [
        {
          "indexed": true,
          "internalType": "uint256",
          "name": "rideId",
          "type": "uint256"
        }
      ],
      "name": "RideStarted",
      "type": "event"
    },
    {
      "inputs": [
        {
          "internalType": "uint256",
          "name": "",
          "type": "uint256"
        }
      ],
      "name": "allClientIds",
      "outputs": [
        {
          "internalType": "uint256",
          "name": "",
          "type": "uint256"
        }
      ],
      "stateMutability": "view",
      "type": "function"
    },
    {
      "inputs": [
        {
          "internalType": "uint256",
          "name": "",
          "type": "uint256"
        }
      ],
      "name": "allDriverIds",
      "outputs": [
        {
          "internalType": "uint256",
          "name": "",
          "type": "uint256"
        }
      ],
      "stateMutability": "view",
      "type": "function"
    },
    {
      "inputs": [
        {
          "internalType": "uint256",
          "name": "",
          "type": "uint256"
        }
      ],
      "name": "allPassengerIds",
      "outputs": [
        {
          "internalType": "uint256",
          "name": "",
          "type": "uint256"
        }
      ],
      "stateMutability": "view",
      "type": "function"
    },
    {
      "inputs": [
        {
          "internalType": "uint256",
          "name": "",
          "type": "uint256"
        }
      ],
      "name": "allRideIds",
      "outputs": [
        {
          "internalType": "uint256",
          "name": "",
          "type": "uint256"
        }
      ],
      "stateMutability": "view",
      "type": "function"
    },
    {
      "inputs": [
        {
          "internalType": "address",
          "name": "",
          "type": "address"
        }
      ],
      "name": "clientAddressToId",
      "outputs": [
        {
          "internalType": "uint256",
          "name": "",
          "type": "uint256"
        }
      ],
      "stateMutability": "view",
      "type": "function"
    },
    {
      "inputs": [
        {
          "internalType": "uint256",
          "name": "",
          "type": "uint256"
        }
      ],
      "name": "clients",
      "outputs": [
        {
          "internalType": "uint256",
          "name": "id",
          "type": "uint256"
        },
        {
          "internalType": "address",
          "name": "walletAddress",
          "type": "address"
        },
        {
          "internalType": "string",
          "name": "name",
          "type": "string"
        },
        {
          "internalType": "string",
          "name": "email",
          "type": "string"
        },
        {
          "internalType": "string",
          "name": "phone",
          "type": "string"
        },
        {
          "internalType": "bool",
          "name": "isActive",
          "type": "bool"
        },
        {
          "internalType": "uint256",
          "name": "timestamp",
          "type": "uint256"
        }
      ],
      "stateMutability": "view",
      "type": "function"
    },
    {
      "inputs": [
        {
          "internalType": "address",
          "name": "",
          "type": "address"
        }
      ],
      "name": "driverAddressToId",
      "outputs": [
        {
          "internalType": "uint256",
          "name": "",
          "type": "uint256"
        }
      ],
      "stateMutability": "view",
      "type": "function"
    },
    {
      "inputs": [
        {
          "internalType": "uint256",
          "name": "",
          "type": "uint256"
        }
      ],
      "name": "drivers",
      "outputs": [
        {
          "internalType": "uint256",
          "name": "id",
          "type": "uint256"
        },
        {
          "internalType": "address",
          "name": "walletAddress",
          "type": "address"
        },
        {
          "internalType": "string",
          "name": "name",
          "type": "string"
        },
        {
          "internalType": "string",
          "name": "email",
          "type": "string"
        },
        {
          "internalType": "string",
          "name": "phone",
          "type": "string"
        },
        {
          "internalType": "string",
          "name": "carModel",
          "type": "string"
        },
        {
          "internalType": "string",
          "name": "licensePlate",
          "type": "string"
        },
        {
          "internalType": "string",
          "name": "carColor",
          "type": "string"
        },
        {
          "internalType": "bool",
          "name": "isActive",
          "type": "bool"
        },
        {
          "internalType": "uint256",
          "name": "timestamp",
          "type": "uint256"
        }
      ],
      "stateMutability": "view",
      "type": "function"
    },
    {
      "inputs": [
        {
          "internalType": "uint256",
          "name": "",
          "type": "uint256"
        }
      ],
      "name": "passengers",
      "outputs": [
        {
          "internalType": "uint256",
          "name": "id",
          "type": "uint256"
        },
        {
          "internalType": "uint256",
          "name": "clientId",
          "type": "uint256"
        },
        {
          "internalType": "address",
          "name": "clientWalletAddress",
          "type": "address"
        },
        {
          "internalType": "string",
          "name": "status",
          "type": "string"
        },
        {
          "internalType": "bool",
          "name": "paid",
          "type": "bool"
        }
      ],
      "stateMutability": "view",
      "type": "function"
    },
    {
      "inputs": [
        {
          "internalType": "uint256",
          "name": "",
          "type": "uint256"
        }
      ],
      "name": "rideRequests",
      "outputs": [
        {
          "internalType": "uint256",
          "name": "id",
          "type": "uint256"
        },
        {
          "internalType": "uint256",
          "name": "clientId",
          "type": "uint256"
        },
        {
          "internalType": "address",
          "name": "clientWalletAddress",
          "type": "address"
        },
        {
          "internalType": "string",
          "name": "status",
          "type": "string"
        },
        {
          "internalType": "uint256",
          "name": "requestedAt",
          "type": "uint256"
        }
      ],
      "stateMutability": "view",
      "type": "function"
    },
    {
      "inputs": [
        {
          "internalType": "uint256",
          "name": "",
          "type": "uint256"
        }
      ],
      "name": "rides",
      "outputs": [
        {
          "internalType": "uint256",
          "name": "id",
          "type": "uint256"
        },
        {
          "internalType": "uint256",
          "name": "driverId",
          "type": "uint256"
        },
        {
          "internalType": "address",
          "name": "driverWalletAddress",
          "type": "address"
        },
        {
          "internalType": "string",
          "name": "startLocation",
          "type": "string"
        },
        {
          "internalType": "string",
          "name": "destination",
          "type": "string"
        },
        {
          "internalType": "uint8",
          "name": "availableSeats",
          "type": "uint8"
        },
        {
          "internalType": "uint256",
          "name": "price",
          "type": "uint256"
        },
        {
          "internalType": "string",
          "name": "status",
          "type": "string"
        },
        {
          "internalType": "uint256",
          "name": "createdAt",
          "type": "uint256"
        },
        {
          "internalType": "uint256",
          "name": "departureTime",
          "type": "uint256"
        }
      ],
      "stateMutability": "view",
      "type": "function"
    },
    {
      "inputs": [
        {
          "internalType": "string",
          "name": "_name",
          "type": "string"
        },
        {
          "internalType": "string",
          "name": "_email",
          "type": "string"
        },
        {
          "internalType": "string",
          "name": "_phone",
          "type": "string"
        },
        {
          "internalType": "string",
          "name": "_carModel",
          "type": "string"
        },
        {
          "internalType": "string",
          "name": "_licensePlate",
          "type": "string"
        },
        {
          "internalType": "string",
          "name": "_carColor",
          "type": "string"
        }
      ],
      "name": "registerDriver",
      "outputs": [
        {
          "internalType": "uint256",
          "name": "",
          "type": "uint256"
        }
      ],
      "stateMutability": "nonpayable",
      "type": "function"
    },
    {
      "inputs": [
        {
          "internalType": "string",
          "name": "_name",
          "type": "string"
        },
        {
          "internalType": "string",
          "name": "_email",
          "type": "string"
        },
        {
          "internalType": "string",
          "name": "_phone",
          "type": "string"
        }
      ],
      "name": "registerClient",
      "outputs": [
        {
          "internalType": "uint256",
          "name": "",
          "type": "uint256"
        }
      ],
      "stateMutability": "nonpayable",
      "type": "function"
    },
    {
      "inputs": [
        {
          "internalType": "string",
          "name": "_startLocation",
          "type": "string"
        },
        {
          "internalType": "string",
          "name": "_destination",
          "type": "string"
        },
        {
          "internalType": "uint8",
          "name": "_availableSeats",
          "type": "uint8"
        },
        {
          "internalType": "uint256",
          "name": "_price",
          "type": "uint256"
        },
        {
          "internalType": "uint256",
          "name": "_departureTime",
          "type": "uint256"
        }
      ],
      "name": "createRide",
      "outputs": [
        {
          "internalType": "uint256",
          "name": "",
          "type": "uint256"
        }
      ],
      "stateMutability": "nonpayable",
      "type": "function"
    },
    {
      "inputs": [
        {
          "internalType": "uint256",
          "name": "_rideId",
          "type": "uint256"
        }
      ],
      "name": "requestRide",
      "outputs": [
        {
          "internalType": "uint256",
          "name": "",
          "type": "uint256"
        }
      ],
      "stateMutability": "nonpayable",
      "type": "function"
    },
    {
      "inputs": [
        {
          "internalType": "uint256",
          "name": "_rideId",
          "type": "uint256"
        },
        {
          "internalType": "uint256",
          "name": "_requestId",
          "type": "uint256"
        }
      ],
      "name": "acceptRideRequest",
      "outputs": [],
      "stateMutability": "nonpayable",
      "type": "function"
    },
    {
      "inputs": [
        {
          "internalType": "uint256",
          "name": "_rideId",
          "type": "uint256"
        },
        {
          "internalType": "uint256",
          "name": "_requestId",
          "type": "uint256"
        }
      ],
      "name": "rejectRideRequest",
      "outputs": [],
      "stateMutability": "nonpayable",
      "type": "function"
    },
    {
      "inputs": [
        {
          "internalType": "uint256",
          "name": "_rideId",
          "type": "uint256"
        }
      ],
      "name": "startRide",
      "outputs": [],
      "stateMutability": "nonpayable",
      "type": "function"
    },
    {
      "inputs": [
        {
          "internalType": "uint256",
          "name": "_rideId",
          "type": "uint256"
        }
      ],
      "name": "completeRide",
      "outputs": [],
      "stateMutability": "nonpayable",
      "type": "function"
    },
    {
      "inputs": [
        {
          "internalType": "uint256",
          "name": "_rideId",
          "type": "uint256"
        }
      ],
      "name": "confirmRide",
      "outputs": [],
      "stateMutability": "payable",
      "type": "function"
    },
    {
      "inputs": [
        {
          "internalType": "uint256",
          "name": "_rideId",
          "type": "uint256"
        }
      ],
      "name": "getRideDetails",
      "outputs": [
        {
          "components": [
            {
              "internalType": "uint256",
              "name": "id",
              "type": "uint256"
            },
            {
              "internalType": "uint256",
              "name": "driverId",
              "type": "uint256"
            },
            {
              "internalType": "address",
              "name": "driverWalletAddress",
              "type": "address"
            },
            {
              "internalType": "string",
              "name": "startLocation",
              "type": "string"
            },
            {
              "internalType": "string",
              "name": "destination",
              "type": "string"
            },
            {
              "internalType": "uint8",
              "name": "availableSeats",
              "type": "uint8"
            },
            {
              "internalType": "uint256",
              "name": "price",
              "type": "uint256"
            },
            {
              "internalType": "string",
              "name": "status",
              "type": "string"
            },
            {
              "internalType": "uint256",
              "name": "createdAt",
              "type": "uint256"
            },
            {
              "internalType": "uint256",
              "name": "departureTime",
              "type": "uint256"
            },
            {
              "internalType": "uint256[]",
              "name": "passengerIds",
              "type": "uint256[]"
            },
            {
              "internalType": "uint256[]",
              "name": "requestIds",
              "type": "uint256[]"
            }
          ],
          "internalType": "struct ChainRideContract.RideDetails",
          "name": "",
          "type": "tuple"
        }
      ],
      "stateMutability": "view",
      "type": "function"
    },
    {
      "inputs": [
        {
          "internalType": "uint256",
          "name": "_rideId",
          "type": "uint256"
        }
      ],
      "name": "cancelRide",
      "outputs": [],
      "stateMutability": "nonpayable",
      "type": "function"
    },
    {
      "inputs": [],
      "name": "getActiveRides",
      "outputs": [
        {
          "internalType": "uint256[]",
          "name": "",
          "type": "uint256[]"
        }
      ],
      "stateMutability": "view",
      "type": "function"
    },
    {
      "inputs": [
        {
          "internalType": "uint256",
          "name": "_driverId",
          "type": "uint256"
        }
      ],
      "name": "getDriverRides",
      "outputs": [
        {
          "internalType": "uint256[]",
          "name": "",
          "type": "uint256[]"
        }
      ],
      "stateMutability": "view",
      "type": "function"
    },
    {
      "inputs": [
        {
          "internalType": "uint256",
          "name": "_rideId",
          "type": "uint256"
        }
      ],
      "name": "getRideRequests",
      "outputs": [
        {
          "internalType": "uint256[]",
          "name": "",
          "type": "uint256[]"
        }
      ],
      "stateMutability": "view",
      "type": "function"
    },
    {
      "inputs": [
        {
          "internalType": "uint256",
          "name": "_rideId",
          "type": "uint256"
        }
      ],
      "name": "getRidePassengers",
      "outputs": [
        {
          "internalType": "uint256[]",
          "name": "",
          "type": "uint256[]"
        }
      ],
      "stateMutability": "view",
      "type": "function"
    },
    {
      "inputs": [],
      "name": "getTotalDrivers",
      "outputs": [
        {
          "internalType": "uint256",
          "name": "",
          "type": "uint256"
        }
      ],
      "stateMutability": "view",
      "type": "function"
    },
    {
      "inputs": [],
      "name": "getTotalClients",
      "outputs": [
        {
          "internalType": "uint256",
          "name": "",
          "type": "uint256"
        }
      ],
      "stateMutability": "view",
      "type": "function"
    }
  ],
  "bytecode": "0x608080604052346100295760016000556001805560016002556001600355612d46908161002f8239f35b600080fdfe6080604052600436101561001257600080fd5b60003560e01c80630dcc2fb7146126f35780630e66200a146126a257806315c56c32146126515780631d6be93c1461240e578063357da7ce146121c15780634dc2b360146120995780635205f11214611fa05780635fde932d14611f755780636f68f54414611ee85780637105382d14611ea757806373c3397514611e565780637888cd1c14611e0a5780639327b07714611b755780639e3fa06b14611b37578063a6c02cb714611823578063a6f07b29146116b6578063abd7a04314611678578063b229f36014610f7c578063bcc601ab14610efb578063c416dd0b14610d65578063d057e92614610d14578063d49f2235146108f4578063dc712974146105f2578063df04320d1461052a578063e9c14b1e14610405578063f34dc396146103a9578063f79e5450146102335763f88af21d1461015057600080fd5b3461022e57602036600319011261022e5760043560005260066020526040600020805460018060a01b036001830154169160405161019c81610195816002860161291a565b03826129e7565b61021d6040516101b381610195816003880161291a565b61020f604051916101d2836101cb8160048a0161291a565b03846129e7565b610201600660ff60058901541697015495604051998a998a5260208a015260e060408a015260e0890190612856565b908782036060890152612856565b908582036080870152612856565b91151560a084015260c08301520390f35b600080fd5b3461022e57602036600319011261022e57600435600052600460205260406000208054600160a01b6001900360018301541691604051808060028401906102799161291a565b0361028490826129e7565b60405180610295816003860161291a565b036102a090826129e7565b604051806102b1816004870161291a565b036102bc90826129e7565b604051806102cd816005880161291a565b036102d890826129e7565b60405191826102ea816006890161291a565b036102f590846129e7565b60405193846103078160078a0161291a565b0361031290866129e7565b600887015460ff16966009015495604051998a998a5260208a01526101408060408b0152890161034191612856565b88810360608a015261035291612856565b878103608089015261036391612856565b86810360a088015261037491612856565b85810360c087015261038591612856565b84810360e086015261039691612856565b9115156101008401526101208301520390f35b3461022e57602036600319011261022e57600435801515806103fa575b6103cf90612b16565b60005260086020526103f66103ea600b604060002001612c64565b604051918291826127cc565b0390f35b5060025481106103c6565b3461022e57602036600319011261022e576004358015158061051f575b61042b90612b16565b600081815260086020526040902060028101546001600160a01b031633036104ce5760070161048060405161046481610195818661291a565b60208151910120610473612b58565b6020815191012014612b7a565b61049361048d82546128e0565b82612a84565b60166a696e5f70726f677265737360a81b0190557f1caef5aba80487f3eb64526a934f8250dd2591d249cd4f14756041c0ff93607d600080a2005b60405162461bcd60e51b815260206004820152602360248201527f4f6e6c792072696465206472697665722063616e20737461727420746865207260448201526269646560e81b6064820152608490fd5b506002548110610422565b3461022e5760208060031936011261022e57600435600d5461054b81612cca565b9260009260005b8381106105a157858561056481612cca565b9160005b82811061057d57604051806103f686826127cc565b8061058b61059c9284612cfc565b516105968287612cfc565b52612a5e565b610568565b6105aa81612807565b90549060031b1c806000526008845282600160406000200154146105d8575b506105d390612a5e565b610552565b856105eb916105966105d394988a612cfc565b94906105c9565b60208060031936011261022e57600435801515806108e9575b61061490612b16565b806000526008825260406000209160405161063681610195816007880161291a565b818151910120907f6216ba39af4188a6d7c765710d7e6075007c3444b59a22a973d1b958c43e60bb6040519261066b846129cc565b6818dbdb5c1b195d195960ba1b836009958681520152036108a5576000916000926000600a87018054915b8281106107ff575b505050156107ab576006850194855434036107665760008080809387825285875260046040832001600160ff19825416179055600360408320016106e561048d82546128e0565b60126818dbdb999a5c9b595960ba1b0190556002015481906001600160a01b0316341561075c575b3491f115610750577f6c262599b9b600d914b2baf0a565cd17a5e93d35ebd1bdfd8dfb2fda717ee6909260005281526001604060002001549354604051908152a3005b6040513d6000823e3d90fd5b6108fc915061070d565b60405162461bcd60e51b815260048101849052601860248201527f496e636f7272656374207061796d656e7420616d6f756e7400000000000000006044820152606490fd5b60405162461bcd60e51b815260048101839052602660248201527f43616c6c6572206973206e6f7420612070617373656e676572206f662074686960448201526573207269646560d01b6064820152608490fd5b610809818361283e565b905460039190911b1c60008181528688526040902060028101546001600160a01b0316331461084257505061083d90612a5e565b610696565b925096505060ff92506004915001541661086057600186808061069e565b60405162461bcd60e51b815260048101839052601960248201527f5061796d656e7420616c726561647920636f6e6669726d6564000000000000006044820152606490fd5b6064906040519062461bcd60e51b82526004820152601c60248201527f52696465206d75737420626520636f6d706c65746564206669727374000000006044820152fd5b50600254811061060b565b3461022e57606036600319011261022e576001600160401b0360043581811161022e57610925903690600401612a08565b90602490813581811161022e57610940903690600401612a08565b9160443582811161022e57610959903690600401612a08565b933360005260209460078652604060002054610cd05760019384549561097e87612a5e565b86558660005260068852604060002093878555868501336001600160601b0360a01b8254161790556002850190805190848211610cbb5781906109cb826109c586546128e0565b86612aae565b8b90601f8311600114610c5657600092610c4b575b5050600019600383901b1c191690881b1790555b80516003850191838211610c36578190610a12826109c586546128e0565b8a90601f8311600114610bd357600092610bc8575b5050600019600383901b1c191690871b1790555b60048301918051918211610bb3578190610a59826109c586546128e0565b8890601f8311600114610b5057600092610b45575b5050600019600383901b1c191690851b1790555b600581018360ff19825416179055600642910155336000526007845282604060002055600c5491600160401b831015610b3057820180600c55821015610b1c57508190600c6000527fdf6966c971051c3d54ec59162606531493a51404a002842f56009d7e5cf4a8c701556040519033817fb815407d18c4a13f23f5714a7f46938648fb7ddc53c75387904f727c348807c3600080a38152f35b634e487b7160e01b60009081526032600452fd5b50634e487b7160e01b60009081526041600452fd5b015190508880610a6e565b90879350601f19831691856000528a6000209260005b8c828210610b9d5750508411610b84575b505050811b019055610a82565b015160001960f88460031b161c19169055888080610b77565b8385015186558b97909501949384019301610b66565b84634e487b7160e01b60005260416004526000fd5b015190508a80610a27565b60008581528c81208b9550929190601f198516908e5b828210610c1f5750508411610c06575b505050811b019055610a3b565b015160001960f88460031b161c191690558a8080610bf9565b8385015186558d979095019493840193018e610be9565b86634e487b7160e01b60005260416004526000fd5b015190508b806109e0565b60008581528d81208c9550929190601f198516908f5b828210610ca25750508411610c89575b505050811b0190556109f4565b015160001960f88460031b161c191690558b8080610c7c565b8484015186558e97909501949384019390810190610c6c565b87634e487b7160e01b60005260416004526000fd5b60405162461bcd60e51b8152600481018790526019818501527f436c69656e7420616c72656164792072656769737465726564000000000000006044820152606490fd5b3461022e57602036600319011261022e57600435600b5481101561022e57602090600b6000527f0175b7a638427703f0dbe7bb9bbf987a2551717b34e79f33b5b1008d1fa01db90154604051908152f35b3461022e5760208060031936011261022e576004359081151580610ef0575b610d8d90612b16565b6000828152600882526040902060028101546001600160a01b03163303610e9c57600701907f811bb47290dc5d06c2e8c789859ec3d72ae47eaad91ae49a85546d47499a83bb604051610de481610195818761291a565b8281519101206a696e5f70726f677265737360a81b83604051610e06816129cc565b600b8152015203610e585750610e1f61048d82546128e0565b60126818dbdb5c1b195d195960ba1b0190557f63e5b4bf8bc6c9cf867e6cc4d53f654c1f0365d975100e04129de6383f8c4b23600080a2005b6064906040519062461bcd60e51b82526004820152601760248201527f52696465206973206e6f7420696e2070726f67726573730000000000000000006044820152fd5b60405162461bcd60e51b815260048101839052602660248201527f4f6e6c792072696465206472697665722063616e20636f6d706c65746520746860448201526565207269646560d01b6064820152608490fd5b506002548210610d84565b3461022e57602036600319011261022e57600435600052600a60205260406000208054600182015491610f7260018060a01b0360028301541691600460405191610f4c836101cb816003850161291a565b01549260405195869586526020860152604085015260a0606085015260a0840190612856565b9060808301520390f35b3461022e5760c036600319011261022e576004356001600160401b03811161022e57610fac903690600401612a08565b6024356001600160401b03811161022e57610fcb903690600401612a08565b6044356001600160401b03811161022e57610fea903690600401612a08565b916064356001600160401b03811161022e5761100a903690600401612a08565b6084356001600160401b03811161022e57611029903690600401612a08565b9060a4356001600160401b03811161022e57611049903690600401612a08565b94336000526005602052604060002054611633576000549461106a86612a5e565b60005585600052600460205260406000209486865560018601336001600160601b0360a01b82541617905580516001600160401b038111611353578060028801926110b9826109c586546128e0565b602090601f83116001146115cd576000926115c2575b50508160011b916000199060031b1c19161790555b8051906001600160401b0382116113535781906111118261110860038a01546128e0565b60038a01612aae565b602090601f831160011461155057600092611545575b50508160011b916000199060031b1c19161760038501555b8051906001600160401b03821161135357819061116c8261116360048901546128e0565b60048901612aae565b602090601f83116001146114d3576000926114c8575b50508160011b916000199060031b1c19161760048401555b8051906001600160401b0382116113535781906111c7826111be60058801546128e0565b60058801612aae565b602090601f83116001146114565760009261144b575b50508160011b916000199060031b1c19161760058301555b805160068301916001600160401b03821161135357819061121a826109c586546128e0565b602090601f83116001146113e5576000926113da575b50508160011b916000199060031b1c19161790555b6007810183516001600160401b0381116113535761126d8161126784546128e0565b84612aae565b602094601f821160011461137457948192939495600092611369575b50508160011b916000199060031b1c19161790555b60088101600160ff1982541617905560094291015533600052600560205280604060002055600b5490600160401b821015611353576001820180600b5582101561133d5780602092600b6000527f0175b7a638427703f0dbe7bb9bbf987a2551717b34e79f33b5b1008d1fa01db901556040519033817f03768fcb79c5ffec4cc22b1b43cb225560120424fbe39d80480e5819a5c897d5600080a38152f35b634e487b7160e01b600052603260045260246000fd5b634e487b7160e01b600052604160045260246000fd5b015190508580611289565b601f198216958360005260206000209160005b8881106113c2575083600195969798106113a9575b505050811b01905561129e565b015160001960f88460031b161c1916905585808061139c565b91926020600181928685015181550194019201611387565b015190508680611230565b6000858152602081209350601f198516905b818110611433575090846001959493921061141a575b505050811b019055611245565b015160001960f88460031b161c1916905586808061140d565b929360206001819287860151815501950193016113f7565b0151905086806111dd565b9250600585016000526020600020906000935b601f19841685106114ad576001945083601f19811610611494575b505050811b0160058301556111f5565b015160001960f88460031b161c19169055868080611484565b81810151835560209485019460019093019290910190611469565b015190508780611182565b9250600486016000526020600020906000935b601f198416851061152a576001945083601f19811610611511575b505050811b01600484015561119a565b015160001960f88460031b161c19169055878080611501565b818101518355602094850194600190930192909101906114e6565b015190508880611127565b9250600387016000526020600020906000935b601f19841685106115a7576001945083601f1981161061158e575b505050811b01600385015561113f565b015160001960f88460031b161c1916905588808061157e565b81810151835560209485019460019093019290910190611563565b015190508a806110cf565b6000858152602081209350601f198516905b81811061161b5750908460019594939210611602575b505050811b0190556110e4565b015160001960f88460031b161c191690558a80806115f5565b929360206001819287860151815501950193016115df565b60405162461bcd60e51b815260206004820152601960248201527f44726976657220616c72656164792072656769737465726564000000000000006044820152606490fd5b3461022e57602036600319011261022e576004356001600160a01b0381169081900361022e5760005260056020526020604060002054604051908152f35b3461022e5760208060031936011261022e576004359081151580611818575b6116de90612b16565b6000828152600882526040902060028101546001600160a01b031633036117c7576007019060405161171481610195818661291a565b818151910120611722612b58565b82815191012003611774575061173b61048d82546128e0565b60126818d85b98d95b1b195960ba1b0190557f0c23eb44b06124e00526761c3c77095fc814bb72c9be3ac1e58f0bc2ebfe4f7e600080a2005b6084906040519062461bcd60e51b82526004820152602660248201527f526964652063616e6e6f742062652063616e63656c6c6564206174207468697360448201526520737461676560d01b6064820152fd5b60405162461bcd60e51b8152600481018390526024808201527f4f6e6c792072696465206472697665722063616e2063616e63656c20746865206044820152637269646560e01b6064820152608490fd5b5060025482106116d5565b3461022e5760a036600319011261022e576001600160401b0360043581811161022e57611854903690600401612a08565b60243582811161022e5761186c903690600401612a08565b906044359060ff821680920361022e57606435903360005260209460058652604060002054938415611afa57600254956118a587612a5e565b6002558660005260088852604060002092878455600194878686015560028501336001600160601b0360a01b82541617905560038501908051908382116113535781906118f6826109c586546128e0565b8c908d601f8411600114611a945750600092611a89575b5050600019600383901b1c191690871b1790555b6004840191805191821161135357819061193f826109c586546128e0565b8a90601f8311600114611a2657600092611a1b575b5050600019600383901b1c191690851b1790555b600582019060ff198254161790558260068201556007810161198d61048d82546128e0565b600c6561637469766560d01b019055426008820155608435600990910155600d54600160401b811015611353578492611a0c846119f1847f47854699debaa81148943c9053c71212f14c1208daf63d7c1246d59f462d39b8968b9601600d55612807565b90919082549060031b600019811b9283911b16911916179055565b604051908152a3604051908152f35b015190508a80611954565b60008581528c8120899550929190601f198516908e5b828210611a725750508411611a59575b505050811b019055611968565b015160001960f88460031b161c191690558a8080611a4c565b8385015186558b979095019493840193018e611a3c565b015190508c8061190d565b91908a9450601f1984168660005283600020936000905b828210611ae15750508411611ac8575b505050811b019055611921565b015160001960f88460031b161c191690558c8080611abb565b8484015186558d97909501949384019390810190611aab565b60405162461bcd60e51b8152600481018890526015602482015274111c9a5d995c881b9bdd081c9959da5cdd195c9959605a1b6044820152606490fd5b3461022e57602036600319011261022e576004356001600160a01b0381169081900361022e5760005260076020526020604060002054604051908152f35b3461022e5760208060031936011261022e5760043580151580611dff575b611b9c90612b16565b33600052600782526040600020548015611dc257816000526008918284526040600020611c06610195611bec60078401611be0611bd982546128e0565b1515612b16565b6040519283809261291a565b868151910120611bfa612b58565b87815191012014612b7a565b611c1860ff6005830154161515612bbb565b600b018054909360005b828110611cc957505050611c986003548094611c3d82612a5e565b60035581600052600a8752604060002082815585600182015560028101336001600160601b0360a01b82541617905560038101611c7d61048d82546128e0565b600e6670656e64696e6760c81b019055600442910155612af3565b7f1881520d43a4abcbf6b1e33d26324b40ca34534a8d209735a9f0c50930c52c5684604051858152a3604051908152f35b611cd3818761283e565b9054600391821b1c600052600a8852604060002086600182015414611d03575b5050611cfe90612a5e565b611c22565b90611d397f5e679716a01be890d854f2c1c5cb5336603215e65ff238044a5b11c586f61c1d92610195604051809481930161291a565b888151910120671c995a9958dd195960c21b89604051611d58816129cc565b868152015203611d69578780611cf3565b60405162461bcd60e51b815260048101889052602b60248201527f416c726561647920726571756573746564206f7220616363657074656420666f60448201526a722074686973207269646560a81b6064820152608490fd5b60405162461bcd60e51b815260048101849052601560248201527410db1a595b9d081b9bdd081c9959da5cdd195c9959605a1b6044820152606490fd5b506002548110611b93565b3461022e57602036600319011261022e5760043580151580611e4b575b611e3090612b16565b60005260086020526103f66103ea600a604060002001612c64565b506002548110611e27565b3461022e57602036600319011261022e57600435600d5481101561022e57602090600d6000527fd7b6990105719101dabeb77144f2a3385c8033acd3af97e9423a695e81ad1eb50154604051908152f35b3461022e57600036600319011261022e576001546000198101908111611ed257602090604051908152f35b634e487b7160e01b600052601160045260246000fd5b3461022e57602036600319011261022e57600435600052600960205260406000208054600182015491611f6960018060a01b036002830154169160ff600460405192611f4284611f3b816003850161291a565b03856129e7565b0154169260405195869586526020860152604085015260a0606085015260a0840190612856565b90151560808301520390f35b3461022e57600036600319011261022e576000546000198101908111611ed257602090604051908152f35b3461022e57602036600319011261022e5760043560005260086020526040600020805460018201549160018060a01b03600282015416612088604051611fed81610195816003880161291a565b600760405191612004836101cb8160048a0161291a565b61207060ff600588015416936120626006890154936120348a61202d604051809981930161291a565b03876129e7565b600960088b01549a0154986040519c8d9c8d5260208d015260408c01526101408060608d01528b0190612856565b9089820360808b0152612856565b9260a088015260c087015285820360e0870152612856565b916101008401526101208301520390f35b3461022e576120a7366128ca565b811515806121b6575b6120b990612b16565b6000828152600860205260409020600201546001600160a01b0316330361216557600052600a602052600160406000206003810161211d60405161210181610195818661291a565b60208151910120612110612bfc565b6020815191012014612c1f565b61212a61048d82546128e0565b6010671c995a9958dd195960c21b0190550154907f0a1ce47c0d142a211224f14ace0b39665b53f1d56cbd182f954b8e22848c69a2600080a3005b60405162461bcd60e51b8152602060048201526024808201527f4f6e6c792072696465206472697665722063616e2072656a65637420726571756044820152636573747360e01b6064820152608490fd5b5060025482106120b0565b3461022e576121cf366128ca565b81151580612403575b6121e190612b16565b8160005260206008815260406000209160018060a01b03928360028201541633036123b25761223760405161221d81610195816007870161291a565b84815191012061222b612b58565b85815191012014612b7a565b600581019161224b60ff8454161515612bbb565b600052600a83526040600020936003850161228a60405161227081610195818661291a565b86815191012061227e612bfc565b87815191012014612c1f565b61229761048d82546128e0565b6010671858d8d95c1d195960c21b019055600e546001810194908510611ed257600a600461232e93600988948560005252604060002090848255600260018b019a8b54600185015501541660028201906001600160601b0360a01b8254161790556003810161230961048d82546128e0565b60126818dbdb999a5c9b595960ba1b01905501805460ff199081169091559301612af3565b81549060ff82168015611ed25760ff9060001901169116179055600e54600160401b811015611353576001810180600e5581101561133d577fbb7b4a454dc3493923482f07822329ed19e8244eff582cc204f8554c3620c3fd015554907f067e1786bd0858ab9be9533ab851d1644f8a9af317edea0b985ae2708c446571600080a3005b60405162461bcd60e51b8152600481018490526024808201527f4f6e6c792072696465206472697665722063616e2061636365707420726571756044820152636573747360e01b6064820152608490fd5b5060025482106121d8565b3461022e57602036600319011261022e576004356060610160604051612433816129b0565b6000815260006020820152600060408201528280820152826080820152600060a0820152600060c08201528260e08201526000610100820152600061012082015282610140820152015280151580612646575b61248f90612b16565b60005260086020526103f66040600020612565600b825492600181015460018060a01b0360028301541660ff600584015416600684015490600885015492600986015494604051996124e08b6129b0565b8a5260208a01526040890152604051612500816101958160038a0161291a565b6060890152604051612519816101958160048a0161291a565b608089015260a088015260c087015260405161253c81610195816007880161291a565b60e0870152610100860152610120850152612559600a8201612c64565b61014085015201612c64565b61016082015260405191829160208352805160208401526020810151604084015260018060a01b0360408201511660608401526101606126316126036125d56125bf606086015161018060808a01526101a0890190612856565b6080860151888203601f190160a08a0152612856565b60ff60a08601511660c088015260c085015160e088015260e0850151601f1988830301610100890152612856565b610100840151610120870152610120840151610140870152610140840151601f198783030184880152612896565b910151838203601f1901610180850152612896565b506002548110612486565b3461022e57602036600319011261022e57600435600e5481101561022e57602090600e6000527fbb7b4a454dc3493923482f07822329ed19e8244eff582cc204f8554c3620c3fd0154604051908152f35b3461022e57602036600319011261022e57600435600c5481101561022e57602090600c6000527fdf6966c971051c3d54ec59162606531493a51404a002842f56009d7e5cf4a8c70154604051908152f35b3461022e57600036600319011261022e57600d5461271081612cca565b9060009060005b81811061275557505061272981612cca565b9160005b82811061274257604051806103f686826127cc565b8061058b6127509284612cfc565b61272d565b61275e81612807565b90549060031b1c8060005260206008815261019561278960076040600020016040519283809261291a565b81815191012090612798612b58565b8051910120146127b2575b506127ad90612a5e565b612717565b836127c5916105966127ad949688612cfc565b92906127a3565b6020908160408183019282815285518094520193019160005b8281106127f3575050505090565b8351855293810193928101926001016127e5565b600d5481101561133d57600d6000527fd7b6990105719101dabeb77144f2a3385c8033acd3af97e9423a695e81ad1eb50190600090565b805482101561133d5760005260206000200190600090565b919082519283825260005b848110612882575050826000602080949584010152601f8019910116010190565b602081830181015184830182015201612861565b90815180825260208080930193019160005b8281106128b6575050505090565b8351855293810193928101926001016128a8565b604090600319011261022e576004359060243590565b90600182811c92168015612910575b60208310146128fa57565b634e487b7160e01b600052602260045260246000fd5b91607f16916128ef565b906000929180549161292b836128e0565b91828252600193848116908160001461298d575060011461294d575b50505050565b90919394506000526020928360002092846000945b838610612979575050505001019038808080612947565b805485870183015294019385908201612962565b9294505050602093945060ff191683830152151560051b01019038808080612947565b61018081019081106001600160401b0382111761135357604052565b604081019081106001600160401b0382111761135357604052565b90601f801991011681019081106001600160401b0382111761135357604052565b81601f8201121561022e578035906001600160401b0382116113535760405192612a3c601f8401601f1916602001856129e7565b8284526020838301011161022e57816000926020809301838601378301015290565b6000198114611ed25760010190565b818110612a78575050565b60008155600101612a6d565b90601f8111612a91575050565b612aac91600052601f6020600020910160051c810190612a6d565b565b9190601f8111612abd57505050565b612aac926000526020600020906020601f840160051c83019310612ae9575b601f0160051c0190612a6d565b9091508190612adc565b90815491600160401b83101561135357826119f1916001612aac9501815561283e565b15612b1d57565b60405162461bcd60e51b8152602060048201526013602482015272149a591948191bd95cc81b9bdd08195e1a5cdd606a1b6044820152606490fd5b60405190612b65826129cc565b600682526561637469766560d01b6020830152565b15612b8157565b60405162461bcd60e51b815260206004820152601260248201527152696465206973206e6f742061637469766560701b6044820152606490fd5b15612bc257565b60405162461bcd60e51b81526020600482015260126024820152714e6f20617661696c61626c6520736561747360701b6044820152606490fd5b60405190612c09826129cc565b600782526670656e64696e6760c81b6020830152565b15612c2657565b60405162461bcd60e51b815260206004820152601660248201527552657175657374206973206e6f742070656e64696e6760501b6044820152606490fd5b9060405191828154918282526020928383019160005283600020936000905b828210612c9957505050612aac925003836129e7565b855484526001958601958895509381019390910190612c83565b6001600160401b0381116113535760051b60200190565b90612cd482612cb3565b612ce160405191826129e7565b8281528092612cf2601f1991612cb3565b0190602036910137565b805182101561133d5760209160051b01019056fea26469706673582212209f9a968a0e77fb4b532d9aaa57b26189f4a79ae14199e8fee6c95356662e21a364736f6c63430008110033",
  "immutableReferences": {},
  "source": "// SPDX-License-Identifier: MIT\r\npragma solidity ^0.8.0;\r\n\r\ncontract ChainRideContract {\r\n    // Counter for IDs\r\n    uint256 private driverIdCounter = 1;\r\n    uint256 private clientIdCounter = 1;\r\n    uint256 private rideIdCounter = 1;\r\n    uint256 private requestIdCounter = 1;\r\n    \r\n    // Structs\r\n    struct Driver {\r\n        uint256 id;\r\n        address walletAddress;\r\n        string name;\r\n        string email;\r\n        string phone;\r\n        string carModel;\r\n        string licensePlate;\r\n        string carColor;\r\n        bool isActive;\r\n        uint256 timestamp;\r\n    }\r\n    \r\n    struct Client {\r\n        uint256 id;\r\n        address walletAddress;\r\n        string name;\r\n        string email;\r\n        string phone;\r\n        bool isActive;\r\n        uint256 timestamp;\r\n    }\r\n    \r\n    struct RideRequest {\r\n        uint256 id;\r\n        uint256 clientId;\r\n        address clientWalletAddress;\r\n        string status; // \"pending\", \"accepted\", \"rejected\"\r\n        uint256 requestedAt;\r\n    }\r\n    \r\n    struct Ride {\r\n        uint256 id;\r\n        uint256 driverId;\r\n        address driverWalletAddress;\r\n        string startLocation;\r\n        string destination;\r\n        uint8 availableSeats;\r\n        uint256 price; // In wei per passenger\r\n        string status; // \"active\", \"in_progress\", \"completed\", \"cancelled\"\r\n        uint256 createdAt;\r\n        uint256 departureTime; // Unix timestamp\r\n        uint256[] passengerIds;\r\n        uint256[] requestIds;\r\n    }\r\n    \r\n    struct Passenger {\r\n        uint256 id;\r\n        uint256 clientId;\r\n        address clientWalletAddress;\r\n        string status; // \"confirmed\", \"completed\"\r\n        bool paid;\r\n    }\r\n    \r\n    // New struct to return ride details (fixing stack too deep)\r\n    struct RideDetails {\r\n        uint256 id;\r\n        uint256 driverId;\r\n        address driverWalletAddress;\r\n        string startLocation;\r\n        string destination;\r\n        uint8 availableSeats;\r\n        uint256 price;\r\n        string status;\r\n        uint256 createdAt;\r\n        uint256 departureTime;\r\n        uint256[] passengerIds;\r\n        uint256[] requestIds;\r\n    }\r\n    \r\n    // Mappings\r\n    mapping(uint256 => Driver) public drivers;\r\n    mapping(address => uint256) public driverAddressToId;\r\n    mapping(uint256 => Client) public clients;\r\n    mapping(address => uint256) public clientAddressToId;\r\n    mapping(uint256 => Ride) public rides;\r\n    mapping(uint256 => Passenger) public passengers;\r\n    mapping(uint256 => RideRequest) public rideRequests;\r\n    \r\n    // Arrays to keep track of all entities\r\n    uint256[] public allDriverIds;\r\n    uint256[] public allClientIds;\r\n    uint256[] public allRideIds;\r\n    uint256[] public allPassengerIds;\r\n    \r\n    // Events\r\n    event DriverRegistered(uint256 indexed driverId, address indexed walletAddress);\r\n    event ClientRegistered(uint256 indexed clientId, address indexed walletAddress);\r\n    event RideCreated(uint256 indexed rideId, uint256 indexed driverId, uint256 price);\r\n    event RideRequested(uint256 indexed rideId, uint256 indexed clientId, uint256 requestId);\r\n    event RideRequestAccepted(uint256 indexed rideId, uint256 indexed clientId);\r\n    event RideRequestRejected(uint256 indexed rideId, uint256 indexed clientId);\r\n    event RideStarted(uint256 indexed rideId);\r\n    event RideCompleted(uint256 indexed rideId);\r\n    event RideCancelled(uint256 indexed rideId);\r\n    event PaymentReceived(uint256 indexed rideId, uint256 indexed clientId, uint256 amount);\r\n    // New event for ride confirmation by a passenger\r\n    event RideConfirmed(uint256 indexed rideId, uint256 indexed clientId, uint256 amount);\r\n    \r\n    // Modifiers\r\n    modifier onlyDriver(uint256 _driverId) {\r\n        require(driverAddressToId[msg.sender] == _driverId, \"Not authorized\");\r\n        _;\r\n    }\r\n    \r\n    modifier rideExists(uint256 _rideId) {\r\n        require(_rideId > 0 && _rideId < rideIdCounter, \"Ride does not exist\");\r\n        _;\r\n    }\r\n    \r\n    // Driver functions\r\n    function registerDriver(\r\n        string memory _name,\r\n        string memory _email,\r\n        string memory _phone,\r\n        string memory _carModel,\r\n        string memory _licensePlate,\r\n        string memory _carColor\r\n    ) public returns (uint256) {\r\n        require(driverAddressToId[msg.sender] == 0, \"Driver already registered\");\r\n        \r\n        uint256 newDriverId = driverIdCounter++;\r\n        Driver storage newDriver = drivers[newDriverId];\r\n        newDriver.id = newDriverId;\r\n        newDriver.walletAddress = msg.sender;\r\n        newDriver.name = _name;\r\n        newDriver.email = _email;\r\n        newDriver.phone = _phone;\r\n        newDriver.carModel = _carModel;\r\n        newDriver.licensePlate = _licensePlate;\r\n        newDriver.carColor = _carColor;\r\n        newDriver.isActive = true;\r\n        newDriver.timestamp = block.timestamp;\r\n        \r\n        driverAddressToId[msg.sender] = newDriverId;\r\n        allDriverIds.push(newDriverId);\r\n        \r\n        emit DriverRegistered(newDriverId, msg.sender);\r\n        return newDriverId;\r\n    }\r\n    \r\n    // Client functions\r\n    function registerClient(\r\n        string memory _name,\r\n        string memory _email,\r\n        string memory _phone\r\n    ) public returns (uint256) {\r\n        require(clientAddressToId[msg.sender] == 0, \"Client already registered\");\r\n        \r\n        uint256 newClientId = clientIdCounter++;\r\n        Client storage newClient = clients[newClientId];\r\n        newClient.id = newClientId;\r\n        newClient.walletAddress = msg.sender;\r\n        newClient.name = _name;\r\n        newClient.email = _email;\r\n        newClient.phone = _phone;\r\n        newClient.isActive = true;\r\n        newClient.timestamp = block.timestamp;\r\n        \r\n        clientAddressToId[msg.sender] = newClientId;\r\n        allClientIds.push(newClientId);\r\n        \r\n        emit ClientRegistered(newClientId, msg.sender);\r\n        return newClientId;\r\n    }\r\n    \r\n    // Ride functions\r\n    function createRide(\r\n        string memory _startLocation,\r\n        string memory _destination,\r\n        uint8 _availableSeats,\r\n        uint256 _price,\r\n        uint256 _departureTime\r\n    ) public returns (uint256) {\r\n        uint256 driverId = driverAddressToId[msg.sender];\r\n        require(driverId > 0, \"Driver not registered\");\r\n        \r\n        uint256 newRideId = rideIdCounter++;\r\n        Ride storage newRide = rides[newRideId];\r\n        newRide.id = newRideId;\r\n        newRide.driverId = driverId;\r\n        newRide.driverWalletAddress = msg.sender;\r\n        newRide.startLocation = _startLocation;\r\n        newRide.destination = _destination;\r\n        newRide.availableSeats = _availableSeats;\r\n        newRide.price = _price;\r\n        newRide.status = \"active\";\r\n        newRide.createdAt = block.timestamp;\r\n        newRide.departureTime = _departureTime;\r\n        \r\n        allRideIds.push(newRideId);\r\n        \r\n        emit RideCreated(newRideId, driverId, _price);\r\n        return newRideId;\r\n    }\r\n    \r\n    function requestRide(uint256 _rideId) public rideExists(_rideId) returns (uint256) {\r\n        uint256 clientId = clientAddressToId[msg.sender];\r\n        require(clientId > 0, \"Client not registered\");\r\n        \r\n        Ride storage ride = rides[_rideId];\r\n        require(bytes(ride.status).length > 0, \"Ride does not exist\");\r\n        require(keccak256(bytes(ride.status)) == keccak256(bytes(\"active\")), \"Ride is not active\");\r\n        require(ride.availableSeats > 0, \"No available seats\");\r\n        \r\n        // Check if client has already requested this ride\r\n        for (uint i = 0; i < ride.requestIds.length; i++) {\r\n            RideRequest storage existingRequest = rideRequests[ride.requestIds[i]];\r\n            if (existingRequest.clientId == clientId) {\r\n                require(\r\n                    keccak256(bytes(existingRequest.status)) == keccak256(bytes(\"rejected\")),\r\n                    \"Already requested or accepted for this ride\"\r\n                );\r\n            }\r\n        }\r\n        \r\n        // Create new request\r\n        uint256 newRequestId = requestIdCounter++;\r\n        RideRequest storage newRequest = rideRequests[newRequestId];\r\n        newRequest.id = newRequestId;\r\n        newRequest.clientId = clientId;\r\n        newRequest.clientWalletAddress = msg.sender;\r\n        newRequest.status = \"pending\";\r\n        newRequest.requestedAt = block.timestamp;\r\n        \r\n        ride.requestIds.push(newRequestId);\r\n        \r\n        emit RideRequested(_rideId, clientId, newRequestId);\r\n        return newRequestId;\r\n    }\r\n    \r\n    function acceptRideRequest(uint256 _rideId, uint256 _requestId) public rideExists(_rideId) {\r\n        Ride storage ride = rides[_rideId];\r\n        require(msg.sender == ride.driverWalletAddress, \"Only ride driver can accept requests\");\r\n        require(keccak256(bytes(ride.status)) == keccak256(bytes(\"active\")), \"Ride is not active\");\r\n        require(ride.availableSeats > 0, \"No available seats\");\r\n        \r\n        RideRequest storage request = rideRequests[_requestId];\r\n        require(keccak256(bytes(request.status)) == keccak256(bytes(\"pending\")), \"Request is not pending\");\r\n        \r\n        // Update request status\r\n        request.status = \"accepted\";\r\n        \r\n        // Create passenger\r\n        uint256 newPassengerId = allPassengerIds.length + 1;\r\n        Passenger storage newPassenger = passengers[newPassengerId];\r\n        newPassenger.id = newPassengerId;\r\n        newPassenger.clientId = request.clientId;\r\n        newPassenger.clientWalletAddress = request.clientWalletAddress;\r\n        newPassenger.status = \"confirmed\";\r\n        newPassenger.paid = false;\r\n        \r\n        ride.passengerIds.push(newPassengerId);\r\n        ride.availableSeats--;\r\n        allPassengerIds.push(newPassengerId);\r\n        \r\n        emit RideRequestAccepted(_rideId, request.clientId);\r\n    }\r\n    \r\n    function rejectRideRequest(uint256 _rideId, uint256 _requestId) public rideExists(_rideId) {\r\n        Ride storage ride = rides[_rideId];\r\n        require(msg.sender == ride.driverWalletAddress, \"Only ride driver can reject requests\");\r\n        \r\n        RideRequest storage request = rideRequests[_requestId];\r\n        require(keccak256(bytes(request.status)) == keccak256(bytes(\"pending\")), \"Request is not pending\");\r\n        \r\n        // Update request status\r\n        request.status = \"rejected\";\r\n        \r\n        emit RideRequestRejected(_rideId, request.clientId);\r\n    }\r\n    \r\n    function startRide(uint256 _rideId) public rideExists(_rideId) {\r\n        Ride storage ride = rides[_rideId];\r\n        require(msg.sender == ride.driverWalletAddress, \"Only ride driver can start the ride\");\r\n        require(keccak256(bytes(ride.status)) == keccak256(bytes(\"active\")), \"Ride is not active\");\r\n        \r\n        ride.status = \"in_progress\";\r\n        \r\n        emit RideStarted(_rideId);\r\n    }\r\n    \r\n    // Modified completeRide: Marks the ride as \"completed\"\r\n    // and the actual fund transfer is handled in confirmRide.\r\n    function completeRide(uint256 _rideId) public rideExists(_rideId) {\r\n        Ride storage ride = rides[_rideId];\r\n        require(msg.sender == ride.driverWalletAddress, \"Only ride driver can complete the ride\");\r\n        require(keccak256(bytes(ride.status)) == keccak256(bytes(\"in_progress\")), \"Ride is not in progress\");\r\n        \r\n        ride.status = \"completed\";\r\n        \r\n        emit RideCompleted(_rideId);\r\n    }\r\n    \r\n    // Confirm ride completion by a passenger.\r\n    // The passenger sends the exact ride price; upon confirmation,\r\n    // the funds are transferred to the driver.\r\n    function confirmRide(uint256 _rideId) public payable rideExists(_rideId) {\r\n        Ride storage ride = rides[_rideId];\r\n        require(keccak256(bytes(ride.status)) == keccak256(bytes(\"completed\")), \"Ride must be completed first\");\r\n        \r\n        // Verify that the sender is a passenger for this ride\r\n        bool isPassenger = false;\r\n        uint256 passengerIdFound;\r\n        for (uint i = 0; i < ride.passengerIds.length; i++) {\r\n            uint256 pid = ride.passengerIds[i];\r\n            Passenger storage passenger = passengers[pid];\r\n            if (passenger.clientWalletAddress == msg.sender) {\r\n                require(!passenger.paid, \"Payment already confirmed\");\r\n                isPassenger = true;\r\n                passengerIdFound = pid;\r\n                break;\r\n            }\r\n        }\r\n        require(isPassenger, \"Caller is not a passenger of this ride\");\r\n        \r\n        // Ensure the correct payment amount is sent (price per passenger)\r\n        require(msg.value == ride.price, \"Incorrect payment amount\");\r\n        \r\n        // Mark the passenger as having confirmed payment\r\n        passengers[passengerIdFound].paid = true;\r\n        passengers[passengerIdFound].status = \"confirmed\";\r\n        \r\n        // Transfer funds to the driver's wallet\r\n        payable(ride.driverWalletAddress).transfer(msg.value);\r\n        \r\n        emit RideConfirmed(_rideId, passengers[passengerIdFound].clientId, ride.price);\r\n    }\r\n    \r\n    // New function: Get detailed ride information as a single struct to avoid stack too deep error.\r\n    function getRideDetails(uint256 _rideId) public view rideExists(_rideId) returns (RideDetails memory) {\r\n        Ride storage ride = rides[_rideId];\r\n        RideDetails memory details = RideDetails({\r\n            id: ride.id,\r\n            driverId: ride.driverId,\r\n            driverWalletAddress: ride.driverWalletAddress,\r\n            startLocation: ride.startLocation,\r\n            destination: ride.destination,\r\n            availableSeats: ride.availableSeats,\r\n            price: ride.price,\r\n            status: ride.status,\r\n            createdAt: ride.createdAt,\r\n            departureTime: ride.departureTime,\r\n            passengerIds: ride.passengerIds,\r\n            requestIds: ride.requestIds\r\n        });\r\n        return details;\r\n    }\r\n    \r\n    function cancelRide(uint256 _rideId) public rideExists(_rideId) {\r\n        Ride storage ride = rides[_rideId];\r\n        require(msg.sender == ride.driverWalletAddress, \"Only ride driver can cancel the ride\");\r\n        require(keccak256(bytes(ride.status)) == keccak256(bytes(\"active\")), \"Ride cannot be cancelled at this stage\");\r\n        \r\n        ride.status = \"cancelled\";\r\n        \r\n        emit RideCancelled(_rideId);\r\n    }\r\n    \r\n    // Getter functions\r\n    function getActiveRides() public view returns (uint256[] memory) {\r\n        uint256[] memory activeRideIds = new uint256[](allRideIds.length);\r\n        uint256 count = 0;\r\n        \r\n        for (uint i = 0; i < allRideIds.length; i++) {\r\n            uint256 rideId = allRideIds[i];\r\n            if (keccak256(bytes(rides[rideId].status)) == keccak256(bytes(\"active\"))) {\r\n                activeRideIds[count] = rideId;\r\n                count++;\r\n            }\r\n        }\r\n        \r\n        uint256[] memory result = new uint256[](count);\r\n        for (uint i = 0; i < count; i++) {\r\n            result[i] = activeRideIds[i];\r\n        }\r\n        \r\n        return result;\r\n    }\r\n    \r\n    function getDriverRides(uint256 _driverId) public view returns (uint256[] memory) {\r\n        uint256[] memory driverRideIds = new uint256[](allRideIds.length);\r\n        uint256 count = 0;\r\n        \r\n        for (uint i = 0; i < allRideIds.length; i++) {\r\n            uint256 rideId = allRideIds[i];\r\n            if (rides[rideId].driverId == _driverId) {\r\n                driverRideIds[count] = rideId;\r\n                count++;\r\n            }\r\n        }\r\n        \r\n        uint256[] memory result = new uint256[](count);\r\n        for (uint i = 0; i < count; i++) {\r\n            result[i] = driverRideIds[i];\r\n        }\r\n        \r\n        return result;\r\n    }\r\n    \r\n    function getRideRequests(uint256 _rideId) public view rideExists(_rideId) returns (uint256[] memory) {\r\n        return rides[_rideId].requestIds;\r\n    }\r\n    \r\n    function getRidePassengers(uint256 _rideId) public view rideExists(_rideId) returns (uint256[] memory) {\r\n        return rides[_rideId].passengerIds;\r\n    }\r\n    \r\n    function getTotalDrivers() public view returns (uint256) {\r\n        return driverIdCounter - 1;\r\n    }\r\n    \r\n    function getTotalClients() public view returns (uint256) {\r\n        return clientIdCounter - 1;\r\n    }\r\n}\r\n",
  "sourcePath": "C:\\Users\\user\\Desktop\\ChainRide\\SmartContract\\contracts\\ChainRideContract.sol",
  "compiler": {
    "name": "solc",
    "version": "0.8.17+commit.8df45f5f.Emscripten.clang"
  },
  "schemaVersion": "3.4.16",
  "updatedAt": "2025-03-11T13:43:41.613Z",
  "devdoc": {
    "kind": "dev",
    "methods": {},
    "version": 1
  },
  "userdoc": {
    "kind": "user",
    "methods": {},
    "version": 1
  }
}