{
  "contractName": "ChainRideContract",
  "abi": [
    {
      "anonymous": false,
      "inputs": [
        {
          "indexed": true,
          "internalType": "uint256",
          "name": "clientId",
          "type": "uint256"
        },
        {
          "indexed": true,
          "internalType": "address",
          "name": "walletAddress",
          "type": "address"
        }
      ],
      "name": "ClientRegistered",
      "type": "event"
    },
    {
      "anonymous": false,
      "inputs": [
        {
          "indexed": true,
          "internalType": "uint256",
          "name": "driverId",
          "type": "uint256"
        },
        {
          "indexed": true,
          "internalType": "address",
          "name": "walletAddress",
          "type": "address"
        }
      ],
      "name": "DriverRegistered",
      "type": "event"
    },
    {
      "anonymous": false,
      "inputs": [
        {
          "indexed": true,
          "internalType": "uint256",
          "name": "rideId",
          "type": "uint256"
        },
        {
          "indexed": true,
          "internalType": "uint256",
          "name": "clientId",
          "type": "uint256"
        },
        {
          "indexed": false,
          "internalType": "uint256",
          "name": "amount",
          "type": "uint256"
        }
      ],
      "name": "PaymentReceived",
      "type": "event"
    },
    {
      "anonymous": false,
      "inputs": [
        {
          "indexed": false,
          "internalType": "uint256",
          "name": "ratingId",
          "type": "uint256"
        },
        {
          "indexed": false,
          "internalType": "uint256",
          "name": "rideId",
          "type": "uint256"
        },
        {
          "indexed": false,
          "internalType": "uint256",
          "name": "driverId",
          "type": "uint256"
        },
        {
          "indexed": false,
          "internalType": "uint256",
          "name": "clientId",
          "type": "uint256"
        },
        {
          "indexed": false,
          "internalType": "uint8",
          "name": "score",
          "type": "uint8"
        }
      ],
      "name": "RatingSubmitted",
      "type": "event"
    },
    {
      "anonymous": false,
      "inputs": [
        {
          "indexed": true,
          "internalType": "uint256",
          "name": "rideId",
          "type": "uint256"
        }
      ],
      "name": "RideCancelled",
      "type": "event"
    },
    {
      "anonymous": false,
      "inputs": [
        {
          "indexed": true,
          "internalType": "uint256",
          "name": "rideId",
          "type": "uint256"
        }
      ],
      "name": "RideCompleted",
      "type": "event"
    },
    {
      "anonymous": false,
      "inputs": [
        {
          "indexed": true,
          "internalType": "uint256",
          "name": "rideId",
          "type": "uint256"
        },
        {
          "indexed": true,
          "internalType": "uint256",
          "name": "clientId",
          "type": "uint256"
        },
        {
          "indexed": false,
          "internalType": "uint256",
          "name": "amount",
          "type": "uint256"
        }
      ],
      "name": "RideConfirmed",
      "type": "event"
    },
    {
      "anonymous": false,
      "inputs": [
        {
          "indexed": true,
          "internalType": "uint256",
          "name": "rideId",
          "type": "uint256"
        },
        {
          "indexed": true,
          "internalType": "uint256",
          "name": "driverId",
          "type": "uint256"
        },
        {
          "indexed": false,
          "internalType": "uint256",
          "name": "price",
          "type": "uint256"
        }
      ],
      "name": "RideCreated",
      "type": "event"
    },
    {
      "anonymous": false,
      "inputs": [
        {
          "indexed": true,
          "internalType": "uint256",
          "name": "rideId",
          "type": "uint256"
        },
        {
          "indexed": true,
          "internalType": "uint256",
          "name": "clientId",
          "type": "uint256"
        }
      ],
      "name": "RideRequestAccepted",
      "type": "event"
    },
    {
      "anonymous": false,
      "inputs": [
        {
          "indexed": true,
          "internalType": "uint256",
          "name": "rideId",
          "type": "uint256"
        },
        {
          "indexed": true,
          "internalType": "uint256",
          "name": "clientId",
          "type": "uint256"
        }
      ],
      "name": "RideRequestRejected",
      "type": "event"
    },
    {
      "anonymous": false,
      "inputs": [
        {
          "indexed": true,
          "internalType": "uint256",
          "name": "rideId",
          "type": "uint256"
        },
        {
          "indexed": true,
          "internalType": "uint256",
          "name": "clientId",
          "type": "uint256"
        },
        {
          "indexed": false,
          "internalType": "uint256",
          "name": "requestId",
          "type": "uint256"
        }
      ],
      "name": "RideRequested",
      "type": "event"
    },
    {
      "anonymous": false,
      "inputs": [
        {
          "indexed": true,
          "internalType": "uint256",
          "name": "rideId",
          "type": "uint256"
        }
      ],
      "name": "RideStarted",
      "type": "event"
    },
    {
      "inputs": [
        {
          "internalType": "uint256",
          "name": "",
          "type": "uint256"
        }
      ],
      "name": "allClientIds",
      "outputs": [
        {
          "internalType": "uint256",
          "name": "",
          "type": "uint256"
        }
      ],
      "stateMutability": "view",
      "type": "function",
      "constant": true
    },
    {
      "inputs": [
        {
          "internalType": "uint256",
          "name": "",
          "type": "uint256"
        }
      ],
      "name": "allDriverIds",
      "outputs": [
        {
          "internalType": "uint256",
          "name": "",
          "type": "uint256"
        }
      ],
      "stateMutability": "view",
      "type": "function",
      "constant": true
    },
    {
      "inputs": [
        {
          "internalType": "uint256",
          "name": "",
          "type": "uint256"
        }
      ],
      "name": "allPassengerIds",
      "outputs": [
        {
          "internalType": "uint256",
          "name": "",
          "type": "uint256"
        }
      ],
      "stateMutability": "view",
      "type": "function",
      "constant": true
    },
    {
      "inputs": [
        {
          "internalType": "uint256",
          "name": "",
          "type": "uint256"
        }
      ],
      "name": "allRideIds",
      "outputs": [
        {
          "internalType": "uint256",
          "name": "",
          "type": "uint256"
        }
      ],
      "stateMutability": "view",
      "type": "function",
      "constant": true
    },
    {
      "inputs": [
        {
          "internalType": "address",
          "name": "",
          "type": "address"
        }
      ],
      "name": "clientAddressToId",
      "outputs": [
        {
          "internalType": "uint256",
          "name": "",
          "type": "uint256"
        }
      ],
      "stateMutability": "view",
      "type": "function",
      "constant": true
    },
    {
      "inputs": [
        {
          "internalType": "uint256",
          "name": "",
          "type": "uint256"
        }
      ],
      "name": "clients",
      "outputs": [
        {
          "internalType": "uint256",
          "name": "id",
          "type": "uint256"
        },
        {
          "internalType": "address",
          "name": "walletAddress",
          "type": "address"
        },
        {
          "internalType": "string",
          "name": "name",
          "type": "string"
        },
        {
          "internalType": "string",
          "name": "email",
          "type": "string"
        },
        {
          "internalType": "string",
          "name": "phone",
          "type": "string"
        },
        {
          "internalType": "bool",
          "name": "isActive",
          "type": "bool"
        },
        {
          "internalType": "uint256",
          "name": "timestamp",
          "type": "uint256"
        }
      ],
      "stateMutability": "view",
      "type": "function",
      "constant": true
    },
    {
      "inputs": [
        {
          "internalType": "address",
          "name": "",
          "type": "address"
        }
      ],
      "name": "driverAddressToId",
      "outputs": [
        {
          "internalType": "uint256",
          "name": "",
          "type": "uint256"
        }
      ],
      "stateMutability": "view",
      "type": "function",
      "constant": true
    },
    {
      "inputs": [
        {
          "internalType": "uint256",
          "name": "",
          "type": "uint256"
        }
      ],
      "name": "drivers",
      "outputs": [
        {
          "internalType": "uint256",
          "name": "id",
          "type": "uint256"
        },
        {
          "internalType": "address",
          "name": "walletAddress",
          "type": "address"
        },
        {
          "internalType": "string",
          "name": "name",
          "type": "string"
        },
        {
          "internalType": "string",
          "name": "email",
          "type": "string"
        },
        {
          "internalType": "string",
          "name": "phone",
          "type": "string"
        },
        {
          "internalType": "string",
          "name": "carModel",
          "type": "string"
        },
        {
          "internalType": "string",
          "name": "licensePlate",
          "type": "string"
        },
        {
          "internalType": "string",
          "name": "carColor",
          "type": "string"
        },
        {
          "internalType": "bool",
          "name": "isActive",
          "type": "bool"
        },
        {
          "internalType": "uint256",
          "name": "timestamp",
          "type": "uint256"
        }
      ],
      "stateMutability": "view",
      "type": "function",
      "constant": true
    },
    {
      "inputs": [
        {
          "internalType": "uint256",
          "name": "",
          "type": "uint256"
        }
      ],
      "name": "passengers",
      "outputs": [
        {
          "internalType": "uint256",
          "name": "id",
          "type": "uint256"
        },
        {
          "internalType": "uint256",
          "name": "clientId",
          "type": "uint256"
        },
        {
          "internalType": "address",
          "name": "clientWalletAddress",
          "type": "address"
        },
        {
          "internalType": "string",
          "name": "status",
          "type": "string"
        },
        {
          "internalType": "bool",
          "name": "paid",
          "type": "bool"
        }
      ],
      "stateMutability": "view",
      "type": "function",
      "constant": true
    },
    {
      "inputs": [
        {
          "internalType": "uint256",
          "name": "",
          "type": "uint256"
        }
      ],
      "name": "ratings",
      "outputs": [
        {
          "internalType": "uint256",
          "name": "id",
          "type": "uint256"
        },
        {
          "internalType": "uint256",
          "name": "rideId",
          "type": "uint256"
        },
        {
          "internalType": "uint256",
          "name": "driverId",
          "type": "uint256"
        },
        {
          "internalType": "uint256",
          "name": "clientId",
          "type": "uint256"
        },
        {
          "internalType": "uint8",
          "name": "score",
          "type": "uint8"
        },
        {
          "internalType": "uint256",
          "name": "timestamp",
          "type": "uint256"
        }
      ],
      "stateMutability": "view",
      "type": "function",
      "constant": true
    },
    {
      "inputs": [
        {
          "internalType": "uint256",
          "name": "",
          "type": "uint256"
        }
      ],
      "name": "rideRequests",
      "outputs": [
        {
          "internalType": "uint256",
          "name": "id",
          "type": "uint256"
        },
        {
          "internalType": "uint256",
          "name": "clientId",
          "type": "uint256"
        },
        {
          "internalType": "address",
          "name": "clientWalletAddress",
          "type": "address"
        },
        {
          "internalType": "string",
          "name": "status",
          "type": "string"
        },
        {
          "internalType": "uint256",
          "name": "requestedAt",
          "type": "uint256"
        }
      ],
      "stateMutability": "view",
      "type": "function",
      "constant": true
    },
    {
      "inputs": [
        {
          "internalType": "uint256",
          "name": "",
          "type": "uint256"
        }
      ],
      "name": "rides",
      "outputs": [
        {
          "internalType": "uint256",
          "name": "id",
          "type": "uint256"
        },
        {
          "internalType": "uint256",
          "name": "driverId",
          "type": "uint256"
        },
        {
          "internalType": "address",
          "name": "driverWalletAddress",
          "type": "address"
        },
        {
          "internalType": "string",
          "name": "startLocation",
          "type": "string"
        },
        {
          "internalType": "string",
          "name": "destination",
          "type": "string"
        },
        {
          "internalType": "uint8",
          "name": "availableSeats",
          "type": "uint8"
        },
        {
          "internalType": "uint256",
          "name": "price",
          "type": "uint256"
        },
        {
          "internalType": "string",
          "name": "status",
          "type": "string"
        },
        {
          "internalType": "uint256",
          "name": "createdAt",
          "type": "uint256"
        },
        {
          "internalType": "uint256",
          "name": "departureTime",
          "type": "uint256"
        }
      ],
      "stateMutability": "view",
      "type": "function",
      "constant": true
    },
    {
      "inputs": [
        {
          "internalType": "string",
          "name": "_name",
          "type": "string"
        },
        {
          "internalType": "string",
          "name": "_email",
          "type": "string"
        },
        {
          "internalType": "string",
          "name": "_phone",
          "type": "string"
        },
        {
          "internalType": "string",
          "name": "_carModel",
          "type": "string"
        },
        {
          "internalType": "string",
          "name": "_licensePlate",
          "type": "string"
        },
        {
          "internalType": "string",
          "name": "_carColor",
          "type": "string"
        }
      ],
      "name": "registerDriver",
      "outputs": [
        {
          "internalType": "uint256",
          "name": "",
          "type": "uint256"
        }
      ],
      "stateMutability": "nonpayable",
      "type": "function"
    },
    {
      "inputs": [
        {
          "internalType": "string",
          "name": "_name",
          "type": "string"
        },
        {
          "internalType": "string",
          "name": "_email",
          "type": "string"
        },
        {
          "internalType": "string",
          "name": "_phone",
          "type": "string"
        }
      ],
      "name": "registerClient",
      "outputs": [
        {
          "internalType": "uint256",
          "name": "",
          "type": "uint256"
        }
      ],
      "stateMutability": "nonpayable",
      "type": "function"
    },
    {
      "inputs": [
        {
          "internalType": "string",
          "name": "_startLocation",
          "type": "string"
        },
        {
          "internalType": "string",
          "name": "_destination",
          "type": "string"
        },
        {
          "internalType": "uint8",
          "name": "_availableSeats",
          "type": "uint8"
        },
        {
          "internalType": "uint256",
          "name": "_price",
          "type": "uint256"
        },
        {
          "internalType": "uint256",
          "name": "_departureTime",
          "type": "uint256"
        }
      ],
      "name": "createRide",
      "outputs": [
        {
          "internalType": "uint256",
          "name": "",
          "type": "uint256"
        }
      ],
      "stateMutability": "nonpayable",
      "type": "function"
    },
    {
      "inputs": [
        {
          "internalType": "uint256",
          "name": "_rideId",
          "type": "uint256"
        }
      ],
      "name": "requestRide",
      "outputs": [
        {
          "internalType": "uint256",
          "name": "",
          "type": "uint256"
        }
      ],
      "stateMutability": "nonpayable",
      "type": "function"
    },
    {
      "inputs": [
        {
          "internalType": "uint256",
          "name": "_rideId",
          "type": "uint256"
        },
        {
          "internalType": "uint256",
          "name": "_requestId",
          "type": "uint256"
        }
      ],
      "name": "acceptRideRequest",
      "outputs": [],
      "stateMutability": "nonpayable",
      "type": "function"
    },
    {
      "inputs": [
        {
          "internalType": "uint256",
          "name": "_rideId",
          "type": "uint256"
        },
        {
          "internalType": "uint256",
          "name": "_requestId",
          "type": "uint256"
        }
      ],
      "name": "rejectRideRequest",
      "outputs": [],
      "stateMutability": "nonpayable",
      "type": "function"
    },
    {
      "inputs": [
        {
          "internalType": "uint256",
          "name": "_rideId",
          "type": "uint256"
        }
      ],
      "name": "startRide",
      "outputs": [],
      "stateMutability": "nonpayable",
      "type": "function"
    },
    {
      "inputs": [
        {
          "internalType": "uint256",
          "name": "_rideId",
          "type": "uint256"
        }
      ],
      "name": "completeRide",
      "outputs": [],
      "stateMutability": "nonpayable",
      "type": "function"
    },
    {
      "inputs": [
        {
          "internalType": "uint256",
          "name": "_rideId",
          "type": "uint256"
        }
      ],
      "name": "confirmRide",
      "outputs": [],
      "stateMutability": "payable",
      "type": "function",
      "payable": true
    },
    {
      "inputs": [
        {
          "internalType": "uint256",
          "name": "_rideId",
          "type": "uint256"
        }
      ],
      "name": "getRideDetails",
      "outputs": [
        {
          "components": [
            {
              "internalType": "uint256",
              "name": "id",
              "type": "uint256"
            },
            {
              "internalType": "uint256",
              "name": "driverId",
              "type": "uint256"
            },
            {
              "internalType": "address",
              "name": "driverWalletAddress",
              "type": "address"
            },
            {
              "internalType": "string",
              "name": "startLocation",
              "type": "string"
            },
            {
              "internalType": "string",
              "name": "destination",
              "type": "string"
            },
            {
              "internalType": "uint8",
              "name": "availableSeats",
              "type": "uint8"
            },
            {
              "internalType": "uint256",
              "name": "price",
              "type": "uint256"
            },
            {
              "internalType": "string",
              "name": "status",
              "type": "string"
            },
            {
              "internalType": "uint256",
              "name": "createdAt",
              "type": "uint256"
            },
            {
              "internalType": "uint256",
              "name": "departureTime",
              "type": "uint256"
            },
            {
              "internalType": "uint256[]",
              "name": "passengerIds",
              "type": "uint256[]"
            },
            {
              "internalType": "uint256[]",
              "name": "requestIds",
              "type": "uint256[]"
            }
          ],
          "internalType": "struct ChainRideContract.RideDetails",
          "name": "",
          "type": "tuple"
        }
      ],
      "stateMutability": "view",
      "type": "function",
      "constant": true
    },
    {
      "inputs": [
        {
          "internalType": "uint256",
          "name": "_rideId",
          "type": "uint256"
        }
      ],
      "name": "cancelRide",
      "outputs": [],
      "stateMutability": "nonpayable",
      "type": "function"
    },
    {
      "inputs": [],
      "name": "getActiveRides",
      "outputs": [
        {
          "internalType": "uint256[]",
          "name": "",
          "type": "uint256[]"
        }
      ],
      "stateMutability": "view",
      "type": "function",
      "constant": true
    },
    {
      "inputs": [
        {
          "internalType": "uint256",
          "name": "_driverId",
          "type": "uint256"
        }
      ],
      "name": "getDriverRides",
      "outputs": [
        {
          "internalType": "uint256[]",
          "name": "",
          "type": "uint256[]"
        }
      ],
      "stateMutability": "view",
      "type": "function",
      "constant": true
    },
    {
      "inputs": [
        {
          "internalType": "uint256",
          "name": "_rideId",
          "type": "uint256"
        }
      ],
      "name": "getRideRequests",
      "outputs": [
        {
          "internalType": "uint256[]",
          "name": "",
          "type": "uint256[]"
        }
      ],
      "stateMutability": "view",
      "type": "function",
      "constant": true
    },
    {
      "inputs": [
        {
          "internalType": "uint256",
          "name": "_rideId",
          "type": "uint256"
        }
      ],
      "name": "getRidePassengers",
      "outputs": [
        {
          "internalType": "uint256[]",
          "name": "",
          "type": "uint256[]"
        }
      ],
      "stateMutability": "view",
      "type": "function",
      "constant": true
    },
    {
      "inputs": [
        {
          "internalType": "uint256",
          "name": "_clientId",
          "type": "uint256"
        }
      ],
      "name": "getClientRides",
      "outputs": [
        {
          "internalType": "uint256[]",
          "name": "",
          "type": "uint256[]"
        }
      ],
      "stateMutability": "view",
      "type": "function",
      "constant": true
    },
    {
      "inputs": [],
      "name": "getTotalDrivers",
      "outputs": [
        {
          "internalType": "uint256",
          "name": "",
          "type": "uint256"
        }
      ],
      "stateMutability": "view",
      "type": "function",
      "constant": true
    },
    {
      "inputs": [],
      "name": "getTotalClients",
      "outputs": [
        {
          "internalType": "uint256",
          "name": "",
          "type": "uint256"
        }
      ],
      "stateMutability": "view",
      "type": "function",
      "constant": true
    },
    {
      "inputs": [
        {
          "internalType": "uint256",
          "name": "_rideId",
          "type": "uint256"
        },
        {
          "internalType": "uint8",
          "name": "_score",
          "type": "uint8"
        }
      ],
      "name": "rateDriver",
      "outputs": [],
      "stateMutability": "nonpayable",
      "type": "function"
    },
    {
      "inputs": [
        {
          "internalType": "uint256",
          "name": "_driverId",
          "type": "uint256"
        }
      ],
      "name": "getDriverRating",
      "outputs": [
        {
          "internalType": "uint256",
          "name": "",
          "type": "uint256"
        },
        {
          "internalType": "uint256",
          "name": "",
          "type": "uint256"
        }
      ],
      "stateMutability": "view",
      "type": "function",
      "constant": true
    },
    {
      "inputs": [
        {
          "internalType": "uint256",
          "name": "_driverId",
          "type": "uint256"
        }
      ],
      "name": "getDriverRatings",
      "outputs": [
        {
          "internalType": "uint256[]",
          "name": "",
          "type": "uint256[]"
        }
      ],
      "stateMutability": "view",
      "type": "function",
      "constant": true
    },
    {
      "inputs": [
        {
          "internalType": "uint256",
          "name": "_rideId",
          "type": "uint256"
        }
      ],
      "name": "getRideRatings",
      "outputs": [
        {
          "internalType": "uint256[]",
          "name": "",
          "type": "uint256[]"
        }
      ],
      "stateMutability": "view",
      "type": "function",
      "constant": true
    }
  ],
  "bytecode": "0x6080806040523461002e57600160005560018055600160025560016003556000600d556134b490816100348239f35b600080fdfe6080604052600436101561001257600080fd5b60003560e01c806202e1e514612d2857806301c678c2146129895780630dcc2fb7146128b05780630e66200a1461285f57806315c56c321461280e5780631d6be93c146125cb5780633015f19b146125a1578063357da7ce1461233b5780634dc2b360146122135780635205f1121461211a5780635d30e84d146120b45780635fde932d146120895780636f68f54414611ffc5780637105382d14611fbb57806373c3397514611f6a5780637888cd1c14611f1e5780639327b07714611cc157806396427c9414611c955780639e3fa06b14611c57578063a6c02cb714611943578063a6f07b29146117d6578063abd7a04314611798578063b229f3601461109c578063bcc601ab1461101b578063c416dd0b14610e85578063d057e92614610e34578063d49f223514610a14578063d5bae0e714610900578063dc71297414610633578063df04320d1461056b578063e9c14b1e14610446578063f34dc396146103ea578063f79e5450146102745763f88af21d1461019157600080fd5b3461026f57602036600319011261026f5760043560005260066020526040600020805460018060a01b03600183015416916040516101dd816101d68160028601612f4b565b0382613018565b61025e6040516101f4816101d68160038801612f4b565b610250604051916102138361020c8160048a01612f4b565b0384613018565b610242600660ff60058901541697015495604051998a998a5260208a015260e060408a015260e0890190612e87565b908782036060890152612e87565b908582036080870152612e87565b91151560a084015260c08301520390f35b600080fd5b3461026f57602036600319011261026f57600435600052600460205260406000208054600160a01b6001900360018301541691604051808060028401906102ba91612f4b565b036102c59082613018565b604051806102d68160038601612f4b565b036102e19082613018565b604051806102f28160048701612f4b565b036102fd9082613018565b6040518061030e8160058801612f4b565b036103199082613018565b604051918261032b8160068901612f4b565b036103369084613018565b60405193846103488160078a01612f4b565b036103539086613018565b600887015460ff16966009015495604051998a998a5260208a01526101408060408b0152890161038291612e87565b88810360608a015261039391612e87565b87810360808901526103a491612e87565b86810360a08801526103b591612e87565b85810360c08701526103c691612e87565b84810360e08601526103d791612e87565b9115156101008401526101208301520390f35b3461026f57602036600319011261026f576004358015158061043b575b61041090613147565b600052600860205261043761042b600b6040600020016132fe565b60405191829182612dfd565b0390f35b506002548110610407565b3461026f57602036600319011261026f5760043580151580610560575b61046c90613147565b600081815260086020526040902060028101546001600160a01b0316330361050f576007016104c16040516104a5816101d68186612f4b565b602081519101206104b46131cd565b60208151910120146131ef565b6104d46104ce8254612f11565b826130b5565b60166a696e5f70726f677265737360a81b0190557f1caef5aba80487f3eb64526a934f8250dd2591d249cd4f14756041c0ff93607d600080a2005b60405162461bcd60e51b815260206004820152602360248201527f4f6e6c792072696465206472697665722063616e20737461727420746865207260448201526269646560e81b6064820152608490fd5b506002548110610463565b3461026f5760208060031936011261026f5760043560125461058c81613364565b9260009260005b8381106105e25785856105a581613364565b9160005b8281106105be57604051806104378682612dfd565b806105cc6105dd9284613396565b516105d78287613396565b5261308f565b6105a9565b6105eb81612e38565b90549060031b1c80600052600884528260016040600020015414610619575b506106149061308f565b610593565b8561062c916105d761061494988a613396565b949061060a565b60208060031936011261026f57600435801515806108f5575b61065590613147565b8060005260088252604060002091604051610677816101d68160078801612f4b565b8181519101206106856132d9565b828151910120036108b1576000906000916000600a86018054915b82811061080b575b505050156107b857600684019384543403610773576000808080938682526009865260046040832001600160ff19825416179055600360408320016106f06104ce8254612f11565b60126818dbdb999a5c9b595960ba1b0190556002015481906001600160a01b03163415610769575b3491f11561075d577f6c262599b9b600d914b2baf0a565cd17a5e93d35ebd1bdfd8dfb2fda717ee69091600052600981526001604060002001549354604051908152a3005b6040513d6000823e3d90fd5b6108fc9150610718565b60405162461bcd60e51b815260048101839052601860248201527f496e636f7272656374207061796d656e7420616d6f756e7400000000000000006044820152606490fd5b6084906040519062461bcd60e51b82526004820152602660248201527f43616c6c6572206973206e6f7420612070617373656e676572206f662074686960448201526573207269646560d01b6064820152fd5b6108158183612e6f565b905460039190911b1c6000818152600987526040902060028101546001600160a01b0316331461084f57505061084a9061308f565b6106a0565b925095505060ff92506004915001541661086d5760018580806106a8565b6064906040519062461bcd60e51b82526004820152601960248201527f5061796d656e7420616c726561647920636f6e6669726d6564000000000000006044820152fd5b6064906040519062461bcd60e51b82526004820152601c60248201527f52696465206d75737420626520636f6d706c65746564206669727374000000006044820152fd5b50600254811061064c565b3461026f5760208060031936011261026f576004359081156109d057600d5490600060015b83811115610995575061093790613364565b9260009160015b8481111561095457604051806104378882612dfd565b80600052600c8252826001604060002001541461097a575b6109759061308f565b61093e565b9261098d81856105d7610975948a613396565b93905061096c565b80600052600c835284600160406000200154146109bb575b6109b69061308f565b610925565b906109c86109b69161308f565b9190506109ad565b6064906040519062461bcd60e51b82526004820152601e60248201527f52696465204944206d7573742062652067726561746572207468616e203000006044820152fd5b3461026f57606036600319011261026f576001600160401b0360043581811161026f57610a45903690600401613039565b90602490813581811161026f57610a60903690600401613039565b9160443582811161026f57610a79903690600401613039565b933360005260209460078652604060002054610df057600193845495610a9e8761308f565b86558660005260068852604060002093878555868501336001600160601b0360a01b8254161790556002850190805190848211610ddb578190610aeb82610ae58654612f11565b866130df565b8b90601f8311600114610d7657600092610d6b575b5050600019600383901b1c191690881b1790555b80516003850191838211610d56578190610b3282610ae58654612f11565b8a90601f8311600114610cf357600092610ce8575b5050600019600383901b1c191690871b1790555b60048301918051918211610cd3578190610b7982610ae58654612f11565b8890601f8311600114610c7057600092610c65575b5050600019600383901b1c191690851b1790555b600581018360ff1982541617905560064291015533600052600784528260406000205560115491600160401b831015610c5057820180601155821015610c3c5750819060116000527f31ecc21a745e3968a04e9570e4425bc18fa8019c68028196b546d1669c200c6801556040519033817fb815407d18c4a13f23f5714a7f46938648fb7ddc53c75387904f727c348807c3600080a38152f35b634e487b7160e01b60009081526032600452fd5b50634e487b7160e01b60009081526041600452fd5b015190508880610b8e565b90879350601f19831691856000528a6000209260005b8c828210610cbd5750508411610ca4575b505050811b019055610ba2565b015160001960f88460031b161c19169055888080610c97565b8385015186558b97909501949384019301610c86565b84634e487b7160e01b60005260416004526000fd5b015190508a80610b47565b60008581528c81208b9550929190601f198516908e5b828210610d3f5750508411610d26575b505050811b019055610b5b565b015160001960f88460031b161c191690558a8080610d19565b8385015186558d979095019493840193018e610d09565b86634e487b7160e01b60005260416004526000fd5b015190508b80610b00565b60008581528d81208c9550929190601f198516908f5b828210610dc25750508411610da9575b505050811b019055610b14565b015160001960f88460031b161c191690558b8080610d9c565b8484015186558e97909501949384019390810190610d8c565b87634e487b7160e01b60005260416004526000fd5b60405162461bcd60e51b8152600481018790526019818501527f436c69656e7420616c72656164792072656769737465726564000000000000006044820152606490fd5b3461026f57602036600319011261026f5760043560105481101561026f5760209060106000527f1b6847dc741a1b0cd08d278845f9d819d87b734759afb55fe2de5cb82a9ae6720154604051908152f35b3461026f5760208060031936011261026f576004359081151580611010575b610ead90613147565b6000828152600882526040902060028101546001600160a01b03163303610fbc57600701907f811bb47290dc5d06c2e8c789859ec3d72ae47eaad91ae49a85546d47499a83bb604051610f04816101d68187612f4b565b8281519101206a696e5f70726f677265737360a81b83604051610f2681612ffd565b600b8152015203610f785750610f3f6104ce8254612f11565b60126818dbdb5c1b195d195960ba1b0190557f63e5b4bf8bc6c9cf867e6cc4d53f654c1f0365d975100e04129de6383f8c4b23600080a2005b6064906040519062461bcd60e51b82526004820152601760248201527f52696465206973206e6f7420696e2070726f67726573730000000000000000006044820152fd5b60405162461bcd60e51b815260048101839052602660248201527f4f6e6c792072696465206472697665722063616e20636f6d706c65746520746860448201526565207269646560d01b6064820152608490fd5b506002548210610ea4565b3461026f57602036600319011261026f57600435600052600a6020526040600020805460018201549161109260018060a01b036002830154169160046040519161106c8361020c8160038501612f4b565b01549260405195869586526020860152604085015260a0606085015260a0840190612e87565b9060808301520390f35b3461026f5760c036600319011261026f576004356001600160401b03811161026f576110cc903690600401613039565b6024356001600160401b03811161026f576110eb903690600401613039565b6044356001600160401b03811161026f5761110a903690600401613039565b916064356001600160401b03811161026f5761112a903690600401613039565b6084356001600160401b03811161026f57611149903690600401613039565b9060a4356001600160401b03811161026f57611169903690600401613039565b94336000526005602052604060002054611753576000549461118a8661308f565b60005585600052600460205260406000209486865560018601336001600160601b0360a01b82541617905580516001600160401b038111611473578060028801926111d982610ae58654612f11565b602090601f83116001146116ed576000926116e2575b50508160011b916000199060031b1c19161790555b8051906001600160401b0382116114735781906112318261122860038a0154612f11565b60038a016130df565b602090601f831160011461167057600092611665575b50508160011b916000199060031b1c19161760038501555b8051906001600160401b03821161147357819061128c826112836004890154612f11565b600489016130df565b602090601f83116001146115f3576000926115e8575b50508160011b916000199060031b1c19161760048401555b8051906001600160401b0382116114735781906112e7826112de6005880154612f11565b600588016130df565b602090601f83116001146115765760009261156b575b50508160011b916000199060031b1c19161760058301555b805160068301916001600160401b03821161147357819061133a82610ae58654612f11565b602090601f8311600114611505576000926114fa575b50508160011b916000199060031b1c19161790555b6007810183516001600160401b0381116114735761138d816113878454612f11565b846130df565b602094601f821160011461149457948192939495600092611489575b50508160011b916000199060031b1c19161790555b60088101600160ff198254161790556009429101553360005260056020528060406000205560105490600160401b82101561147357600182018060105582101561145d578060209260106000527f1b6847dc741a1b0cd08d278845f9d819d87b734759afb55fe2de5cb82a9ae67201556040519033817f03768fcb79c5ffec4cc22b1b43cb225560120424fbe39d80480e5819a5c897d5600080a38152f35b634e487b7160e01b600052603260045260246000fd5b634e487b7160e01b600052604160045260246000fd5b0151905085806113a9565b601f198216958360005260206000209160005b8881106114e2575083600195969798106114c9575b505050811b0190556113be565b015160001960f88460031b161c191690558580806114bc565b919260206001819286850151815501940192016114a7565b015190508680611350565b6000858152602081209350601f198516905b818110611553575090846001959493921061153a575b505050811b019055611365565b015160001960f88460031b161c1916905586808061152d565b92936020600181928786015181550195019301611517565b0151905086806112fd565b9250600585016000526020600020906000935b601f19841685106115cd576001945083601f198116106115b4575b505050811b016005830155611315565b015160001960f88460031b161c191690558680806115a4565b81810151835560209485019460019093019290910190611589565b0151905087806112a2565b9250600486016000526020600020906000935b601f198416851061164a576001945083601f19811610611631575b505050811b0160048401556112ba565b015160001960f88460031b161c19169055878080611621565b81810151835560209485019460019093019290910190611606565b015190508880611247565b9250600387016000526020600020906000935b601f19841685106116c7576001945083601f198116106116ae575b505050811b01600385015561125f565b015160001960f88460031b161c1916905588808061169e565b81810151835560209485019460019093019290910190611683565b015190508a806111ef565b6000858152602081209350601f198516905b81811061173b5750908460019594939210611722575b505050811b019055611204565b015160001960f88460031b161c191690558a8080611715565b929360206001819287860151815501950193016116ff565b60405162461bcd60e51b815260206004820152601960248201527f44726976657220616c72656164792072656769737465726564000000000000006044820152606490fd5b3461026f57602036600319011261026f576004356001600160a01b0381169081900361026f5760005260056020526020604060002054604051908152f35b3461026f5760208060031936011261026f576004359081151580611938575b6117fe90613147565b6000828152600882526040902060028101546001600160a01b031633036118e75760070190604051611834816101d68186612f4b565b8181519101206118426131cd565b82815191012003611894575061185b6104ce8254612f11565b60126818d85b98d95b1b195960ba1b0190557f0c23eb44b06124e00526761c3c77095fc814bb72c9be3ac1e58f0bc2ebfe4f7e600080a2005b6084906040519062461bcd60e51b82526004820152602660248201527f526964652063616e6e6f742062652063616e63656c6c6564206174207468697360448201526520737461676560d01b6064820152fd5b60405162461bcd60e51b8152600481018390526024808201527f4f6e6c792072696465206472697665722063616e2063616e63656c20746865206044820152637269646560e01b6064820152608490fd5b5060025482106117f5565b3461026f5760a036600319011261026f576001600160401b0360043581811161026f57611974903690600401613039565b60243582811161026f5761198c903690600401613039565b906044359060ff821680920361026f57606435903360005260209460058652604060002054938415611c1a57600254956119c58761308f565b6002558660005260088852604060002092878455600194878686015560028501336001600160601b0360a01b8254161790556003850190805190838211611473578190611a1682610ae58654612f11565b8c908d601f8411600114611bb45750600092611ba9575b5050600019600383901b1c191690871b1790555b60048401918051918211611473578190611a5f82610ae58654612f11565b8a90601f8311600114611b4657600092611b3b575b5050600019600383901b1c191690851b1790555b600582019060ff1982541617905582600682015560078101611aad6104ce8254612f11565b600c6561637469766560d01b019055426008820155608435600990910155601254600160401b811015611473578492611b2c84611b11847f47854699debaa81148943c9053c71212f14c1208daf63d7c1246d59f462d39b8968b9601601255612e38565b90919082549060031b600019811b9283911b16911916179055565b604051908152a3604051908152f35b015190508a80611a74565b60008581528c8120899550929190601f198516908e5b828210611b925750508411611b79575b505050811b019055611a88565b015160001960f88460031b161c191690558a8080611b6c565b8385015186558b979095019493840193018e611b5c565b015190508c80611a2d565b91908a9450601f1984168660005283600020936000905b828210611c015750508411611be8575b505050811b019055611a41565b015160001960f88460031b161c191690558c8080611bdb565b8484015186558d97909501949384019390810190611bcb565b60405162461bcd60e51b8152600481018890526015602482015274111c9a5d995c881b9bdd081c9959da5cdd195c9959605a1b6044820152606490fd5b3461026f57602036600319011261026f576004356001600160a01b0381169081900361026f5760005260076020526020604060002054604051908152f35b3461026f57602036600319011261026f57600435600052600b60205261043761042b60406000206132fe565b3461026f5760208060031936011261026f5760043580151580611f13575b611ce890613147565b3360005260078252604060002054611d01811515613189565b816000526008918284526040600020611d576101d6611d3d60078401611d31611d2a8254612f11565b1515613147565b60405192838092612f4b565b868151910120611d4b6131cd565b878151910120146131ef565b611d6960ff6005830154161515613230565b600b018054909360005b828110611e1a57505050611de96003548094611d8e8261308f565b60035581600052600a8752604060002082815585600182015560028101336001600160601b0360a01b82541617905560038101611dce6104ce8254612f11565b600e6670656e64696e6760c81b019055600442910155613124565b7f1881520d43a4abcbf6b1e33d26324b40ca34534a8d209735a9f0c50930c52c5684604051858152a3604051908152f35b611e248187612e6f565b9054600391821b1c600052600a8852604060002086600182015414611e54575b5050611e4f9061308f565b611d73565b90611e8a7f5e679716a01be890d854f2c1c5cb5336603215e65ff238044a5b11c586f61c1d926101d66040518094819301612f4b565b888151910120671c995a9958dd195960c21b89604051611ea981612ffd565b868152015203611eba578780611e44565b60405162461bcd60e51b815260048101889052602b60248201527f416c726561647920726571756573746564206f7220616363657074656420666f60448201526a722074686973207269646560a81b6064820152608490fd5b506002548110611cdf565b3461026f57602036600319011261026f5760043580151580611f5f575b611f4490613147565b600052600860205261043761042b600a6040600020016132fe565b506002548110611f3b565b3461026f57602036600319011261026f5760043560125481101561026f5760209060126000527fbb8a6a4669ba250d26cd7a459eca9d215f8307e33aebe50379bc5a3617ec34440154604051908152f35b3461026f57600036600319011261026f576001546000198101908111611fe657602090604051908152f35b634e487b7160e01b600052601160045260246000fd5b3461026f57602036600319011261026f5760043560005260096020526040600020805460018201549161207d60018060a01b036002830154169160ff6004604051926120568461204f8160038501612f4b565b0385613018565b0154169260405195869586526020860152604085015260a0606085015260a0840190612e87565b90151560808301520390f35b3461026f57600036600319011261026f576000546000198101908111611fe657602090604051908152f35b3461026f57602036600319011261026f57600435600052600c60205260c060406000208054906001810154906002810154600382015490600560ff60048501541693015493604051958652602086015260408501526060840152608083015260a0820152f35b3461026f57602036600319011261026f5760043560005260086020526040600020805460018201549160018060a01b03600282015416612202604051612167816101d68160038801612f4b565b60076040519161217e8361020c8160048a01612f4b565b6121ea60ff600588015416936121dc6006890154936121ae8a6121a76040518099819301612f4b565b0387613018565b600960088b01549a0154986040519c8d9c8d5260208d015260408c01526101408060608d01528b0190612e87565b9089820360808b0152612e87565b9260a088015260c087015285820360e0870152612e87565b916101008401526101208301520390f35b3461026f5761222136612efb565b81151580612330575b61223390613147565b6000828152600860205260409020600201546001600160a01b031633036122df57600052600a602052600160406000206003810161229760405161227b816101d68186612f4b565b6020815191012061228a613271565b6020815191012014613294565b6122a46104ce8254612f11565b6010671c995a9958dd195960c21b0190550154907f0a1ce47c0d142a211224f14ace0b39665b53f1d56cbd182f954b8e22848c69a2600080a3005b60405162461bcd60e51b8152602060048201526024808201527f4f6e6c792072696465206472697665722063616e2072656a65637420726571756044820152636573747360e01b6064820152608490fd5b50600254821061222a565b3461026f5761234936612efb565b81151580612596575b61235b90613147565b816000526020906008825260406000209160018060a01b0391826002850154163303612545576123b2604051612398816101d68160078a01612f4b565b8381519101206123a66131cd565b848151910120146131ef565b60058401906123c660ff8354161515613230565b600052600a8252604060002093600385016124056040516123eb816101d68186612f4b565b8581519101206123f9613271565b86815191012014613294565b6124126104ce8254612f11565b6010671858d8d95c1d195960c21b0190556013546001810194908510611fe65784600a60046124a9938360005260098852604060002090848255600260018c019b8c54600185015501541660028201906001600160601b0360a01b825416179055600381016124846104ce8254612f11565b60126818dbdb999a5c9b595960ba1b01905501805460ff199081169091559301613124565b81549060ff82168015611fe65760ff906000190116911617905560135491600160401b83101561147357600183018060135583101561145d57600b927f66de8ffda797e3de9c05e8fc57b3bf0ec28a930d40b0d285d93c06501cf6a090015582546000525261251c826040600020613124565b54907f067e1786bd0858ab9be9533ab851d1644f8a9af317edea0b985ae2708c446571600080a3005b60405162461bcd60e51b8152600481018390526024808201527f4f6e6c792072696465206472697665722063616e2061636365707420726571756044820152636573747360e01b6064820152608490fd5b506002548210612352565b3461026f57602036600319011261026f5760406125bf6004356133f5565b82519182526020820152f35b3461026f57602036600319011261026f5760043560606101606040516125f081612fe1565b6000815260006020820152600060408201528280820152826080820152600060a0820152600060c08201528260e08201526000610100820152600061012082015282610140820152015280151580612803575b61264c90613147565b60005260086020526104376040600020612722600b825492600181015460018060a01b0360028301541660ff6005840154166006840154906008850154926009860154946040519961269d8b612fe1565b8a5260208a015260408901526040516126bd816101d68160038a01612f4b565b60608901526040516126d6816101d68160048a01612f4b565b608089015260a088015260c08701526040516126f9816101d68160078801612f4b565b60e0870152610100860152610120850152612716600a82016132fe565b610140850152016132fe565b61016082015260405191829160208352805160208401526020810151604084015260018060a01b0360408201511660608401526101606127ee6127c061279261277c606086015161018060808a01526101a0890190612e87565b6080860151888203601f190160a08a0152612e87565b60ff60a08601511660c088015260c085015160e088015260e0850151601f1988830301610100890152612e87565b610100840151610120870152610120840151610140870152610140840151601f198783030184880152612ec7565b910151838203601f1901610180850152612ec7565b506002548110612643565b3461026f57602036600319011261026f5760043560135481101561026f5760209060136000527f66de8ffda797e3de9c05e8fc57b3bf0ec28a930d40b0d285d93c06501cf6a0900154604051908152f35b3461026f57602036600319011261026f5760043560115481101561026f5760209060116000527f31ecc21a745e3968a04e9570e4425bc18fa8019c68028196b546d1669c200c680154604051908152f35b3461026f57600036600319011261026f576012546128cd81613364565b9060009060005b8181106129125750506128e681613364565b9160005b8281106128ff57604051806104378682612dfd565b806105cc61290d9284613396565b6128ea565b61291b81612e38565b90549060031b1c806000526020600881526101d6612946600760406000200160405192838092612f4b565b818151910120906129556131cd565b80519101201461296f575b5061296a9061308f565b6128d4565b83612982916105d761296a949688613396565b9290612960565b3461026f57604036600319011261026f5760043560249081359060ff821680920361026f576001908183101580612d1d575b15612cd95780600052602090600882526040600020946129dd86541515613147565b6040516129f1816101d68160078b01612f4b565b8381519101206129ff6132d9565b84815191012003612c9657336000526007835260406000205493612a24851515613189565b600080600a89018054915b828110612c55575b50505015612c11578080600d54905b81811115612b8e5750612a589061308f565b9788600d55019687546040519260c084018481106001600160401b03821117612b7957906005939291604052828552878501918783526040860190815260608601918a835260808701938c855260a0880195428752600052600c8b52604060002097518855519087015551600286015551600385015560ff6004850191511660ff19825416179055519101558554600052600e83526040600020805491868301809311612b65577f1c1638371b23fea1643a6a25c6d81f3abc6c593799034889c2aba9ac4875982a60a089898989898989558454600052600f82526040600020612b42815461308f565b9055600d54945491604051958652850152604084015260608301526080820152a1005b634e487b7160e01b60009081526011600452fd5b85634e487b7160e01b60005260416004526000fd5b80919250600052600c86528483604060002001541480612c00575b612bbe57612bb69061308f565b908291612a46565b606484876040519162461bcd60e51b83528160048401528201527f596f75206861766520616c7265616479207261746564207468697320726964656044820152fd5b508660036040600020015414612ba9565b60405162461bcd60e51b815260048101859052601f818401527f4f6e6c792070617373656e676572732063616e207261746520612072696465006044820152606490fd5b612c5f8183612e6f565b90549060031b1c6000526009885288856040600020015414612c8957612c849061308f565b612a2f565b5050505080888080612a37565b82601e6064926040519262461bcd60e51b845260048401528201527f52696465206d75737420626520636f6d706c6574656420746f207261746500006044820152fd5b60405162461bcd60e51b815260206004820152601e818601527f526174696e67206d757374206265206265747765656e203120616e64203500006044820152606490fd5b5060058311156129bb565b3461026f5760208060031936011261026f5760043590612d498215156133aa565b600d5490600060015b83811115612dc25750612d6490613364565b9260009160015b84811115612d8157604051806104378882612dfd565b80600052600c82528260026040600020015414612da7575b612da29061308f565b612d6b565b92612dba81856105d7612da2948a613396565b939050612d99565b80600052600c83528460026040600020015414612de8575b612de39061308f565b612d52565b90612df5612de39161308f565b919050612dda565b6020908160408183019282815285518094520193019160005b828110612e24575050505090565b835185529381019392810192600101612e16565b60125481101561145d5760126000527fbb8a6a4669ba250d26cd7a459eca9d215f8307e33aebe50379bc5a3617ec34440190600090565b805482101561145d5760005260206000200190600090565b919082519283825260005b848110612eb3575050826000602080949584010152601f8019910116010190565b602081830181015184830182015201612e92565b90815180825260208080930193019160005b828110612ee7575050505090565b835185529381019392810192600101612ed9565b604090600319011261026f576004359060243590565b90600182811c92168015612f41575b6020831014612f2b57565b634e487b7160e01b600052602260045260246000fd5b91607f1691612f20565b9060009291805491612f5c83612f11565b918282526001938481169081600014612fbe5750600114612f7e575b50505050565b90919394506000526020928360002092846000945b838610612faa575050505001019038808080612f78565b805485870183015294019385908201612f93565b9294505050602093945060ff191683830152151560051b01019038808080612f78565b61018081019081106001600160401b0382111761147357604052565b604081019081106001600160401b0382111761147357604052565b90601f801991011681019081106001600160401b0382111761147357604052565b81601f8201121561026f578035906001600160401b038211611473576040519261306d601f8401601f191660200185613018565b8284526020838301011161026f57816000926020809301838601378301015290565b6000198114611fe65760010190565b8181106130a9575050565b6000815560010161309e565b90601f81116130c2575050565b6130dd91600052601f6020600020910160051c81019061309e565b565b9190601f81116130ee57505050565b6130dd926000526020600020906020601f840160051c8301931061311a575b601f0160051c019061309e565b909150819061310d565b90815491600160401b8310156114735782611b119160016130dd95018155612e6f565b1561314e57565b60405162461bcd60e51b8152602060048201526013602482015272149a591948191bd95cc81b9bdd08195e1a5cdd606a1b6044820152606490fd5b1561319057565b60405162461bcd60e51b815260206004820152601560248201527410db1a595b9d081b9bdd081c9959da5cdd195c9959605a1b6044820152606490fd5b604051906131da82612ffd565b600682526561637469766560d01b6020830152565b156131f657565b60405162461bcd60e51b815260206004820152601260248201527152696465206973206e6f742061637469766560701b6044820152606490fd5b1561323757565b60405162461bcd60e51b81526020600482015260126024820152714e6f20617661696c61626c6520736561747360701b6044820152606490fd5b6040519061327e82612ffd565b600782526670656e64696e6760c81b6020830152565b1561329b57565b60405162461bcd60e51b815260206004820152601660248201527552657175657374206973206e6f742070656e64696e6760501b6044820152606490fd5b604051906132e682612ffd565b600982526818dbdb5c1b195d195960ba1b6020830152565b9060405191828154918282526020928383019160005283600020936000905b828210613333575050506130dd92500383613018565b85548452600195860195889550938101939091019061331d565b6001600160401b0381116114735760051b60200190565b9061336e8261334d565b61337b6040519182613018565b828152809261338c601f199161334d565b0190602036910137565b805182101561145d5760209160051b010190565b156133b157565b606460405162461bcd60e51b815260206004820152602060248201527f447269766572204944206d7573742062652067726561746572207468616e20306044820152fd5b906134018215156133aa565b6000918083526004602052604083205415613441578252600f60205260408220541561343d57600e60205260408083205492600f602052205490565b8190565b60405162461bcd60e51b8152602060048201526015602482015274111c9a5d995c88191bd95cc81b9bdd08195e1a5cdd605a1b6044820152606490fdfea26469706673582212200e705256e7e8a3bef5b74eefc3e7be32ebbc3e3b563ae4500f7b140bbbf8a8b564736f6c63430008110033",
  "immutableReferences": {},
  "source": "// SPDX-License-Identifier: MIT\r\npragma solidity ^0.8.0;\r\n\r\ncontract ChainRideContract {\r\n    // Counter for IDs\r\n    uint256 private driverIdCounter = 1;\r\n    uint256 private clientIdCounter = 1;\r\n    uint256 private rideIdCounter = 1;\r\n    uint256 private requestIdCounter = 1;\r\n    \r\n    // Structs\r\n    struct Driver {\r\n        uint256 id;\r\n        address walletAddress;\r\n        string name;\r\n        string email;\r\n        string phone;\r\n        string carModel;\r\n        string licensePlate;\r\n        string carColor;\r\n        bool isActive;\r\n        uint256 timestamp;\r\n    }\r\n    \r\n    struct Client {\r\n        uint256 id;\r\n        address walletAddress;\r\n        string name;\r\n        string email;\r\n        string phone;\r\n        bool isActive;\r\n        uint256 timestamp;\r\n    }\r\n    \r\n    struct RideRequest {\r\n        uint256 id;\r\n        uint256 clientId;\r\n        address clientWalletAddress;\r\n        string status; // \"pending\", \"accepted\", \"rejected\"\r\n        uint256 requestedAt;\r\n    }\r\n    \r\n    struct Ride {\r\n        uint256 id;\r\n        uint256 driverId;\r\n        address driverWalletAddress;\r\n        string startLocation;\r\n        string destination;\r\n        uint8 availableSeats;\r\n        uint256 price; // In wei per passenger\r\n        string status; // \"active\", \"in_progress\", \"completed\", \"cancelled\"\r\n        uint256 createdAt;\r\n        uint256 departureTime; // Unix timestamp\r\n        uint256[] passengerIds;\r\n        uint256[] requestIds;\r\n    }\r\n    \r\n    struct Passenger {\r\n        uint256 id;\r\n        uint256 clientId;\r\n        address clientWalletAddress;\r\n        string status; // \"confirmed\", \"completed\"\r\n        bool paid;\r\n    }\r\n    \r\n    // New struct to return ride details (fixing stack too deep)\r\n    struct RideDetails {\r\n        uint256 id;\r\n        uint256 driverId;\r\n        address driverWalletAddress;\r\n        string startLocation;\r\n        string destination;\r\n        uint8 availableSeats;\r\n        uint256 price;\r\n        string status;\r\n        uint256 createdAt;\r\n        uint256 departureTime;\r\n        uint256[] passengerIds;\r\n        uint256[] requestIds;\r\n    }\r\n    \r\n    // Add a new struct for rating\r\n    struct Rating {\r\n        uint256 id;\r\n        uint256 rideId;\r\n        uint256 driverId;\r\n        uint256 clientId;\r\n        uint8 score; // Rating score from 1-5\r\n        uint256 timestamp;\r\n    }\r\n    \r\n    // Mappings\r\n    mapping(uint256 => Driver) public drivers;\r\n    mapping(address => uint256) public driverAddressToId;\r\n    mapping(uint256 => Client) public clients;\r\n    mapping(address => uint256) public clientAddressToId;\r\n    mapping(uint256 => Ride) public rides;\r\n    mapping(uint256 => Passenger) public passengers;\r\n    mapping(uint256 => RideRequest) public rideRequests;\r\n    \r\n    // Add new mapping to track rides per client\r\n    mapping(uint256 => uint256[]) private clientRides; // clientId => rideIds\r\n    \r\n    // Add mapping for ratings\r\n    mapping(uint256 => Rating) public ratings;\r\n    uint256 private ratingCount = 0;\r\n    \r\n    // Add driver rating tracking\r\n    mapping(uint256 => uint256) private driverTotalRatings; // Total sum of all ratings\r\n    mapping(uint256 => uint256) private driverRatingCount; // Count of ratings received\r\n    \r\n    // Arrays to keep track of all entities\r\n    uint256[] public allDriverIds;\r\n    uint256[] public allClientIds;\r\n    uint256[] public allRideIds;\r\n    uint256[] public allPassengerIds;\r\n    \r\n    // Events\r\n    event DriverRegistered(uint256 indexed driverId, address indexed walletAddress);\r\n    event ClientRegistered(uint256 indexed clientId, address indexed walletAddress);\r\n    event RideCreated(uint256 indexed rideId, uint256 indexed driverId, uint256 price);\r\n    event RideRequested(uint256 indexed rideId, uint256 indexed clientId, uint256 requestId);\r\n    event RideRequestAccepted(uint256 indexed rideId, uint256 indexed clientId);\r\n    event RideRequestRejected(uint256 indexed rideId, uint256 indexed clientId);\r\n    event RideStarted(uint256 indexed rideId);\r\n    event RideCompleted(uint256 indexed rideId);\r\n    event RideCancelled(uint256 indexed rideId);\r\n    event PaymentReceived(uint256 indexed rideId, uint256 indexed clientId, uint256 amount);\r\n    // New event for ride confirmation by a passenger\r\n    event RideConfirmed(uint256 indexed rideId, uint256 indexed clientId, uint256 amount);\r\n    event RatingSubmitted(uint256 ratingId, uint256 rideId, uint256 driverId, uint256 clientId, uint8 score);\r\n    \r\n    // Modifiers\r\n    modifier onlyDriver(uint256 _driverId) {\r\n        require(driverAddressToId[msg.sender] == _driverId, \"Not authorized\");\r\n        _;\r\n    }\r\n    \r\n    modifier rideExists(uint256 _rideId) {\r\n        require(_rideId > 0 && _rideId < rideIdCounter, \"Ride does not exist\");\r\n        _;\r\n    }\r\n    \r\n    // Driver functions\r\n    function registerDriver(\r\n        string memory _name,\r\n        string memory _email,\r\n        string memory _phone,\r\n        string memory _carModel,\r\n        string memory _licensePlate,\r\n        string memory _carColor\r\n    ) public returns (uint256) {\r\n        require(driverAddressToId[msg.sender] == 0, \"Driver already registered\");\r\n        \r\n        uint256 newDriverId = driverIdCounter++;\r\n        Driver storage newDriver = drivers[newDriverId];\r\n        newDriver.id = newDriverId;\r\n        newDriver.walletAddress = msg.sender;\r\n        newDriver.name = _name;\r\n        newDriver.email = _email;\r\n        newDriver.phone = _phone;\r\n        newDriver.carModel = _carModel;\r\n        newDriver.licensePlate = _licensePlate;\r\n        newDriver.carColor = _carColor;\r\n        newDriver.isActive = true;\r\n        newDriver.timestamp = block.timestamp;\r\n        \r\n        driverAddressToId[msg.sender] = newDriverId;\r\n        allDriverIds.push(newDriverId);\r\n        \r\n        emit DriverRegistered(newDriverId, msg.sender);\r\n        return newDriverId;\r\n    }\r\n    \r\n    // Client functions\r\n    function registerClient(\r\n        string memory _name,\r\n        string memory _email,\r\n        string memory _phone\r\n    ) public returns (uint256) {\r\n        require(clientAddressToId[msg.sender] == 0, \"Client already registered\");\r\n        \r\n        uint256 newClientId = clientIdCounter++;\r\n        Client storage newClient = clients[newClientId];\r\n        newClient.id = newClientId;\r\n        newClient.walletAddress = msg.sender;\r\n        newClient.name = _name;\r\n        newClient.email = _email;\r\n        newClient.phone = _phone;\r\n        newClient.isActive = true;\r\n        newClient.timestamp = block.timestamp;\r\n        \r\n        clientAddressToId[msg.sender] = newClientId;\r\n        allClientIds.push(newClientId);\r\n        \r\n        emit ClientRegistered(newClientId, msg.sender);\r\n        return newClientId;\r\n    }\r\n    \r\n    // Ride functions\r\n    function createRide(\r\n        string memory _startLocation,\r\n        string memory _destination,\r\n        uint8 _availableSeats,\r\n        uint256 _price,\r\n        uint256 _departureTime\r\n    ) public returns (uint256) {\r\n        uint256 driverId = driverAddressToId[msg.sender];\r\n        require(driverId > 0, \"Driver not registered\");\r\n        \r\n        uint256 newRideId = rideIdCounter++;\r\n        Ride storage newRide = rides[newRideId];\r\n        newRide.id = newRideId;\r\n        newRide.driverId = driverId;\r\n        newRide.driverWalletAddress = msg.sender;\r\n        newRide.startLocation = _startLocation;\r\n        newRide.destination = _destination;\r\n        newRide.availableSeats = _availableSeats;\r\n        newRide.price = _price;\r\n        newRide.status = \"active\";\r\n        newRide.createdAt = block.timestamp;\r\n        newRide.departureTime = _departureTime;\r\n        \r\n        allRideIds.push(newRideId);\r\n        \r\n        emit RideCreated(newRideId, driverId, _price);\r\n        return newRideId;\r\n    }\r\n    \r\n    function requestRide(uint256 _rideId) public rideExists(_rideId) returns (uint256) {\r\n        uint256 clientId = clientAddressToId[msg.sender];\r\n        require(clientId > 0, \"Client not registered\");\r\n        \r\n        Ride storage ride = rides[_rideId];\r\n        require(bytes(ride.status).length > 0, \"Ride does not exist\");\r\n        require(keccak256(bytes(ride.status)) == keccak256(bytes(\"active\")), \"Ride is not active\");\r\n        require(ride.availableSeats > 0, \"No available seats\");\r\n        \r\n        // Check if client has already requested this ride\r\n        for (uint i = 0; i < ride.requestIds.length; i++) {\r\n            RideRequest storage existingRequest = rideRequests[ride.requestIds[i]];\r\n            if (existingRequest.clientId == clientId) {\r\n                require(\r\n                    keccak256(bytes(existingRequest.status)) == keccak256(bytes(\"rejected\")),\r\n                    \"Already requested or accepted for this ride\"\r\n                );\r\n            }\r\n        }\r\n        \r\n        // Create new request\r\n        uint256 newRequestId = requestIdCounter++;\r\n        RideRequest storage newRequest = rideRequests[newRequestId];\r\n        newRequest.id = newRequestId;\r\n        newRequest.clientId = clientId;\r\n        newRequest.clientWalletAddress = msg.sender;\r\n        newRequest.status = \"pending\";\r\n        newRequest.requestedAt = block.timestamp;\r\n        \r\n        ride.requestIds.push(newRequestId);\r\n        \r\n        emit RideRequested(_rideId, clientId, newRequestId);\r\n        return newRequestId;\r\n    }\r\n    \r\n    function acceptRideRequest(uint256 _rideId, uint256 _requestId) public rideExists(_rideId) {\r\n        Ride storage ride = rides[_rideId];\r\n        require(msg.sender == ride.driverWalletAddress, \"Only ride driver can accept requests\");\r\n        require(keccak256(bytes(ride.status)) == keccak256(bytes(\"active\")), \"Ride is not active\");\r\n        require(ride.availableSeats > 0, \"No available seats\");\r\n        \r\n        RideRequest storage request = rideRequests[_requestId];\r\n        require(keccak256(bytes(request.status)) == keccak256(bytes(\"pending\")), \"Request is not pending\");\r\n        \r\n        // Update request status\r\n        request.status = \"accepted\";\r\n        \r\n        // Create passenger\r\n        uint256 newPassengerId = allPassengerIds.length + 1;\r\n        Passenger storage newPassenger = passengers[newPassengerId];\r\n        newPassenger.id = newPassengerId;\r\n        newPassenger.clientId = request.clientId;\r\n        newPassenger.clientWalletAddress = request.clientWalletAddress;\r\n        newPassenger.status = \"confirmed\";\r\n        newPassenger.paid = false;\r\n        \r\n        ride.passengerIds.push(newPassengerId);\r\n        ride.availableSeats--;\r\n        allPassengerIds.push(newPassengerId);\r\n        \r\n        // Add this ride to the client's rides mapping\r\n        clientRides[request.clientId].push(_rideId);\r\n        \r\n        emit RideRequestAccepted(_rideId, request.clientId);\r\n    }\r\n    \r\n    function rejectRideRequest(uint256 _rideId, uint256 _requestId) public rideExists(_rideId) {\r\n        Ride storage ride = rides[_rideId];\r\n        require(msg.sender == ride.driverWalletAddress, \"Only ride driver can reject requests\");\r\n        \r\n        RideRequest storage request = rideRequests[_requestId];\r\n        require(keccak256(bytes(request.status)) == keccak256(bytes(\"pending\")), \"Request is not pending\");\r\n        \r\n        // Update request status\r\n        request.status = \"rejected\";\r\n        \r\n        emit RideRequestRejected(_rideId, request.clientId);\r\n    }\r\n    \r\n    function startRide(uint256 _rideId) public rideExists(_rideId) {\r\n        Ride storage ride = rides[_rideId];\r\n        require(msg.sender == ride.driverWalletAddress, \"Only ride driver can start the ride\");\r\n        require(keccak256(bytes(ride.status)) == keccak256(bytes(\"active\")), \"Ride is not active\");\r\n        \r\n        ride.status = \"in_progress\";\r\n        \r\n        emit RideStarted(_rideId);\r\n    }\r\n    \r\n    // Modified completeRide: Marks the ride as \"completed\"\r\n    // and the actual fund transfer is handled in confirmRide.\r\n    function completeRide(uint256 _rideId) public rideExists(_rideId) {\r\n        Ride storage ride = rides[_rideId];\r\n        require(msg.sender == ride.driverWalletAddress, \"Only ride driver can complete the ride\");\r\n        require(keccak256(bytes(ride.status)) == keccak256(bytes(\"in_progress\")), \"Ride is not in progress\");\r\n        \r\n        ride.status = \"completed\";\r\n        \r\n        emit RideCompleted(_rideId);\r\n    }\r\n    \r\n    // Confirm ride completion by a passenger.\r\n    // The passenger sends the exact ride price; upon confirmation,\r\n    // the funds are transferred to the driver.\r\n    function confirmRide(uint256 _rideId) public payable rideExists(_rideId) {\r\n        Ride storage ride = rides[_rideId];\r\n        require(keccak256(bytes(ride.status)) == keccak256(bytes(\"completed\")), \"Ride must be completed first\");\r\n        \r\n        // Verify that the sender is a passenger for this ride\r\n        bool isPassenger = false;\r\n        uint256 passengerIdFound;\r\n        for (uint i = 0; i < ride.passengerIds.length; i++) {\r\n            uint256 pid = ride.passengerIds[i];\r\n            Passenger storage passenger = passengers[pid];\r\n            if (passenger.clientWalletAddress == msg.sender) {\r\n                require(!passenger.paid, \"Payment already confirmed\");\r\n                isPassenger = true;\r\n                passengerIdFound = pid;\r\n                break;\r\n            }\r\n        }\r\n        require(isPassenger, \"Caller is not a passenger of this ride\");\r\n        \r\n        // Ensure the correct payment amount is sent (price per passenger)\r\n        require(msg.value == ride.price, \"Incorrect payment amount\");\r\n        \r\n        // Mark the passenger as having confirmed payment\r\n        passengers[passengerIdFound].paid = true;\r\n        passengers[passengerIdFound].status = \"confirmed\";\r\n        \r\n        // Transfer funds to the driver's wallet\r\n        payable(ride.driverWalletAddress).transfer(msg.value);\r\n        \r\n        emit RideConfirmed(_rideId, passengers[passengerIdFound].clientId, ride.price);\r\n    }\r\n    \r\n    // New function: Get detailed ride information as a single struct to avoid stack too deep error.\r\n    function getRideDetails(uint256 _rideId) public view rideExists(_rideId) returns (RideDetails memory) {\r\n        Ride storage ride = rides[_rideId];\r\n        RideDetails memory details = RideDetails({\r\n            id: ride.id,\r\n            driverId: ride.driverId,\r\n            driverWalletAddress: ride.driverWalletAddress,\r\n            startLocation: ride.startLocation,\r\n            destination: ride.destination,\r\n            availableSeats: ride.availableSeats,\r\n            price: ride.price,\r\n            status: ride.status,\r\n            createdAt: ride.createdAt,\r\n            departureTime: ride.departureTime,\r\n            passengerIds: ride.passengerIds,\r\n            requestIds: ride.requestIds\r\n        });\r\n        return details;\r\n    }\r\n    \r\n    function cancelRide(uint256 _rideId) public rideExists(_rideId) {\r\n        Ride storage ride = rides[_rideId];\r\n        require(msg.sender == ride.driverWalletAddress, \"Only ride driver can cancel the ride\");\r\n        require(keccak256(bytes(ride.status)) == keccak256(bytes(\"active\")), \"Ride cannot be cancelled at this stage\");\r\n        \r\n        ride.status = \"cancelled\";\r\n        \r\n        emit RideCancelled(_rideId);\r\n    }\r\n    \r\n    // Getter functions\r\n    function getActiveRides() public view returns (uint256[] memory) {\r\n        uint256[] memory activeRideIds = new uint256[](allRideIds.length);\r\n        uint256 count = 0;\r\n        \r\n        for (uint i = 0; i < allRideIds.length; i++) {\r\n            uint256 rideId = allRideIds[i];\r\n            if (keccak256(bytes(rides[rideId].status)) == keccak256(bytes(\"active\"))) {\r\n                activeRideIds[count] = rideId;\r\n                count++;\r\n            }\r\n        }\r\n        \r\n        uint256[] memory result = new uint256[](count);\r\n        for (uint i = 0; i < count; i++) {\r\n            result[i] = activeRideIds[i];\r\n        }\r\n        \r\n        return result;\r\n    }\r\n    \r\n    function getDriverRides(uint256 _driverId) public view returns (uint256[] memory) {\r\n        uint256[] memory driverRideIds = new uint256[](allRideIds.length);\r\n        uint256 count = 0;\r\n        \r\n        for (uint i = 0; i < allRideIds.length; i++) {\r\n            uint256 rideId = allRideIds[i];\r\n            if (rides[rideId].driverId == _driverId) {\r\n                driverRideIds[count] = rideId;\r\n                count++;\r\n            }\r\n        }\r\n        \r\n        uint256[] memory result = new uint256[](count);\r\n        for (uint i = 0; i < count; i++) {\r\n            result[i] = driverRideIds[i];\r\n        }\r\n        \r\n        return result;\r\n    }\r\n    \r\n    function getRideRequests(uint256 _rideId) public view rideExists(_rideId) returns (uint256[] memory) {\r\n        return rides[_rideId].requestIds;\r\n    }\r\n    \r\n    function getRidePassengers(uint256 _rideId) public view rideExists(_rideId) returns (uint256[] memory) {\r\n        return rides[_rideId].passengerIds;\r\n    }\r\n    \r\n    // Add function to get all rides for a client\r\n    function getClientRides(uint256 _clientId) public view returns (uint256[] memory) {\r\n        return clientRides[_clientId];\r\n    }\r\n    \r\n    function getTotalDrivers() public view returns (uint256) {\r\n        return driverIdCounter - 1;\r\n    }\r\n    \r\n    function getTotalClients() public view returns (uint256) {\r\n        return clientIdCounter - 1;\r\n    }\r\n    \r\n    // Add the rating function\r\n    function rateDriver(uint256 _rideId, uint8 _score) public {\r\n        // Validate the score is between 1 and 5\r\n        require(_score >= 1 && _score <= 5, \"Rating must be between 1 and 5\");\r\n        \r\n        // Get the ride details\r\n        Ride storage ride = rides[_rideId];\r\n        require(ride.id > 0, \"Ride does not exist\");\r\n        require(keccak256(bytes(ride.status)) == keccak256(bytes(\"completed\")), \"Ride must be completed to rate\");\r\n        \r\n        // Get the client ID\r\n        uint256 clientId = clientAddressToId[msg.sender];\r\n        require(clientId > 0, \"Client not registered\");\r\n        \r\n        // Check if client was a passenger on this ride\r\n        bool isPassenger = false;\r\n        for (uint256 i = 0; i < ride.passengerIds.length; i++) {\r\n            Passenger storage passenger = passengers[ride.passengerIds[i]];\r\n            if (passenger.clientId == clientId) {\r\n                isPassenger = true;\r\n                break;\r\n            }\r\n        }\r\n        require(isPassenger, \"Only passengers can rate a ride\");\r\n        \r\n        // Check if client has already rated this ride\r\n        for (uint256 i = 1; i <= ratingCount; i++) {\r\n            if (ratings[i].rideId == _rideId && ratings[i].clientId == clientId) {\r\n                revert(\"You have already rated this ride\");\r\n            }\r\n        }\r\n        \r\n        // Create a new rating\r\n        ratingCount++;\r\n        ratings[ratingCount] = Rating({\r\n            id: ratingCount,\r\n            rideId: _rideId,\r\n            driverId: ride.driverId,\r\n            clientId: clientId,\r\n            score: _score,\r\n            timestamp: block.timestamp\r\n        });\r\n        \r\n        // Update driver's total ratings and count\r\n        driverTotalRatings[ride.driverId] += _score;\r\n        driverRatingCount[ride.driverId]++;\r\n        \r\n        // Emit event\r\n        emit RatingSubmitted(ratingCount, _rideId, ride.driverId, clientId, _score);\r\n    }\r\n    \r\n    // Get average rating for a driver\r\n    function getDriverRating(uint256 _driverId) public view returns (uint256, uint256) {\r\n        require(_driverId > 0, \"Driver ID must be greater than 0\");\r\n        require(drivers[_driverId].id > 0, \"Driver does not exist\");\r\n        \r\n        // If no ratings, return 0\r\n        if (driverRatingCount[_driverId] == 0) {\r\n            return (0, 0);\r\n        }\r\n        \r\n        // Return average rating and count\r\n        return (driverTotalRatings[_driverId], driverRatingCount[_driverId]);\r\n    }\r\n    \r\n    // Get all ratings for a specific driver\r\n    function getDriverRatings(uint256 _driverId) public view returns (uint256[] memory) {\r\n        require(_driverId > 0, \"Driver ID must be greater than 0\");\r\n        \r\n        // Count how many ratings this driver has\r\n        uint256 count = 0;\r\n        for (uint256 i = 1; i <= ratingCount; i++) {\r\n            if (ratings[i].driverId == _driverId) {\r\n                count++;\r\n            }\r\n        }\r\n        \r\n        // Create array of the appropriate size\r\n        uint256[] memory driverRatingIds = new uint256[](count);\r\n        \r\n        // Fill the array\r\n        uint256 index = 0;\r\n        for (uint256 i = 1; i <= ratingCount; i++) {\r\n            if (ratings[i].driverId == _driverId) {\r\n                driverRatingIds[index] = i;\r\n                index++;\r\n            }\r\n        }\r\n        \r\n        return driverRatingIds;\r\n    }\r\n    \r\n    // Get all ratings for a specific ride\r\n    function getRideRatings(uint256 _rideId) public view returns (uint256[] memory) {\r\n        require(_rideId > 0, \"Ride ID must be greater than 0\");\r\n        \r\n        // Count how many ratings this ride has\r\n        uint256 count = 0;\r\n        for (uint256 i = 1; i <= ratingCount; i++) {\r\n            if (ratings[i].rideId == _rideId) {\r\n                count++;\r\n            }\r\n        }\r\n        \r\n        // Create array of the appropriate size\r\n        uint256[] memory rideRatingIds = new uint256[](count);\r\n        \r\n        // Fill the array\r\n        uint256 index = 0;\r\n        for (uint256 i = 1; i <= ratingCount; i++) {\r\n            if (ratings[i].rideId == _rideId) {\r\n                rideRatingIds[index] = i;\r\n                index++;\r\n            }\r\n        }\r\n        \r\n        return rideRatingIds;\r\n    }\r\n}\r\n",
  "sourcePath": "C:\\Users\\user\\Desktop\\Major_project\\SmartContract\\contracts\\ChainRideContract.sol",
  "compiler": {
    "name": "solc",
    "version": "0.8.17+commit.8df45f5f.Emscripten.clang"
  },
  "schemaVersion": "3.4.16",
  "updatedAt": "2025-04-21T14:32:00.367Z",
  "networkType": "ethereum",
  "devdoc": {
    "kind": "dev",
    "methods": {},
    "version": 1
  },
  "userdoc": {
    "kind": "user",
    "methods": {},
    "version": 1
  }
}