{
  "contractName": "ChainRideContract",
  "abi": [
    {
      "anonymous": false,
      "inputs": [
        {
          "indexed": true,
          "internalType": "uint256",
          "name": "clientId",
          "type": "uint256"
        },
        {
          "indexed": true,
          "internalType": "address",
          "name": "walletAddress",
          "type": "address"
        }
      ],
      "name": "ClientRegistered",
      "type": "event"
    },
    {
      "anonymous": false,
      "inputs": [
        {
          "indexed": true,
          "internalType": "uint256",
          "name": "clientId",
          "type": "uint256"
        },
        {
          "indexed": true,
          "internalType": "address",
          "name": "walletAddress",
          "type": "address"
        }
      ],
      "name": "ClientUpdated",
      "type": "event"
    },
    {
      "anonymous": false,
      "inputs": [
        {
          "indexed": true,
          "internalType": "uint256",
          "name": "driverId",
          "type": "uint256"
        },
        {
          "indexed": true,
          "internalType": "address",
          "name": "walletAddress",
          "type": "address"
        }
      ],
      "name": "DriverRegistered",
      "type": "event"
    },
    {
      "anonymous": false,
      "inputs": [
        {
          "indexed": true,
          "internalType": "uint256",
          "name": "driverId",
          "type": "uint256"
        },
        {
          "indexed": true,
          "internalType": "address",
          "name": "walletAddress",
          "type": "address"
        }
      ],
      "name": "DriverUpdated",
      "type": "event"
    },
    {
      "anonymous": false,
      "inputs": [
        {
          "indexed": true,
          "internalType": "uint256",
          "name": "rideId",
          "type": "uint256"
        },
        {
          "indexed": true,
          "internalType": "uint256",
          "name": "clientId",
          "type": "uint256"
        },
        {
          "indexed": false,
          "internalType": "uint256",
          "name": "amount",
          "type": "uint256"
        }
      ],
      "name": "PaymentReceived",
      "type": "event"
    },
    {
      "anonymous": false,
      "inputs": [
        {
          "indexed": false,
          "internalType": "uint256",
          "name": "ratingId",
          "type": "uint256"
        },
        {
          "indexed": false,
          "internalType": "uint256",
          "name": "rideId",
          "type": "uint256"
        },
        {
          "indexed": false,
          "internalType": "uint256",
          "name": "driverId",
          "type": "uint256"
        },
        {
          "indexed": false,
          "internalType": "uint256",
          "name": "clientId",
          "type": "uint256"
        },
        {
          "indexed": false,
          "internalType": "uint8",
          "name": "score",
          "type": "uint8"
        }
      ],
      "name": "RatingSubmitted",
      "type": "event"
    },
    {
      "anonymous": false,
      "inputs": [
        {
          "indexed": true,
          "internalType": "uint256",
          "name": "rideId",
          "type": "uint256"
        }
      ],
      "name": "RideCancelled",
      "type": "event"
    },
    {
      "anonymous": false,
      "inputs": [
        {
          "indexed": true,
          "internalType": "uint256",
          "name": "rideId",
          "type": "uint256"
        }
      ],
      "name": "RideCompleted",
      "type": "event"
    },
    {
      "anonymous": false,
      "inputs": [
        {
          "indexed": true,
          "internalType": "uint256",
          "name": "rideId",
          "type": "uint256"
        },
        {
          "indexed": true,
          "internalType": "uint256",
          "name": "clientId",
          "type": "uint256"
        },
        {
          "indexed": false,
          "internalType": "uint256",
          "name": "amount",
          "type": "uint256"
        }
      ],
      "name": "RideConfirmed",
      "type": "event"
    },
    {
      "anonymous": false,
      "inputs": [
        {
          "indexed": true,
          "internalType": "uint256",
          "name": "rideId",
          "type": "uint256"
        },
        {
          "indexed": true,
          "internalType": "uint256",
          "name": "driverId",
          "type": "uint256"
        },
        {
          "indexed": false,
          "internalType": "uint256",
          "name": "price",
          "type": "uint256"
        }
      ],
      "name": "RideCreated",
      "type": "event"
    },
    {
      "anonymous": false,
      "inputs": [
        {
          "indexed": true,
          "internalType": "uint256",
          "name": "rideId",
          "type": "uint256"
        },
        {
          "indexed": true,
          "internalType": "uint256",
          "name": "clientId",
          "type": "uint256"
        }
      ],
      "name": "RideRequestAccepted",
      "type": "event"
    },
    {
      "anonymous": false,
      "inputs": [
        {
          "indexed": true,
          "internalType": "uint256",
          "name": "rideId",
          "type": "uint256"
        },
        {
          "indexed": true,
          "internalType": "uint256",
          "name": "clientId",
          "type": "uint256"
        }
      ],
      "name": "RideRequestRejected",
      "type": "event"
    },
    {
      "anonymous": false,
      "inputs": [
        {
          "indexed": true,
          "internalType": "uint256",
          "name": "rideId",
          "type": "uint256"
        },
        {
          "indexed": true,
          "internalType": "uint256",
          "name": "clientId",
          "type": "uint256"
        },
        {
          "indexed": false,
          "internalType": "uint256",
          "name": "requestId",
          "type": "uint256"
        }
      ],
      "name": "RideRequested",
      "type": "event"
    },
    {
      "anonymous": false,
      "inputs": [
        {
          "indexed": true,
          "internalType": "uint256",
          "name": "rideId",
          "type": "uint256"
        }
      ],
      "name": "RideStarted",
      "type": "event"
    },
    {
      "inputs": [
        {
          "internalType": "uint256",
          "name": "",
          "type": "uint256"
        }
      ],
      "name": "allClientIds",
      "outputs": [
        {
          "internalType": "uint256",
          "name": "",
          "type": "uint256"
        }
      ],
      "stateMutability": "view",
      "type": "function",
      "constant": true
    },
    {
      "inputs": [
        {
          "internalType": "uint256",
          "name": "",
          "type": "uint256"
        }
      ],
      "name": "allDriverIds",
      "outputs": [
        {
          "internalType": "uint256",
          "name": "",
          "type": "uint256"
        }
      ],
      "stateMutability": "view",
      "type": "function",
      "constant": true
    },
    {
      "inputs": [
        {
          "internalType": "uint256",
          "name": "",
          "type": "uint256"
        }
      ],
      "name": "allPassengerIds",
      "outputs": [
        {
          "internalType": "uint256",
          "name": "",
          "type": "uint256"
        }
      ],
      "stateMutability": "view",
      "type": "function",
      "constant": true
    },
    {
      "inputs": [
        {
          "internalType": "uint256",
          "name": "",
          "type": "uint256"
        }
      ],
      "name": "allRideIds",
      "outputs": [
        {
          "internalType": "uint256",
          "name": "",
          "type": "uint256"
        }
      ],
      "stateMutability": "view",
      "type": "function",
      "constant": true
    },
    {
      "inputs": [
        {
          "internalType": "address",
          "name": "",
          "type": "address"
        }
      ],
      "name": "clientAddressToId",
      "outputs": [
        {
          "internalType": "uint256",
          "name": "",
          "type": "uint256"
        }
      ],
      "stateMutability": "view",
      "type": "function",
      "constant": true
    },
    {
      "inputs": [
        {
          "internalType": "uint256",
          "name": "",
          "type": "uint256"
        }
      ],
      "name": "clients",
      "outputs": [
        {
          "internalType": "uint256",
          "name": "id",
          "type": "uint256"
        },
        {
          "internalType": "address",
          "name": "walletAddress",
          "type": "address"
        },
        {
          "internalType": "string",
          "name": "name",
          "type": "string"
        },
        {
          "internalType": "string",
          "name": "email",
          "type": "string"
        },
        {
          "internalType": "string",
          "name": "phone",
          "type": "string"
        },
        {
          "internalType": "bool",
          "name": "isActive",
          "type": "bool"
        },
        {
          "internalType": "uint256",
          "name": "timestamp",
          "type": "uint256"
        }
      ],
      "stateMutability": "view",
      "type": "function",
      "constant": true
    },
    {
      "inputs": [
        {
          "internalType": "address",
          "name": "",
          "type": "address"
        }
      ],
      "name": "driverAddressToId",
      "outputs": [
        {
          "internalType": "uint256",
          "name": "",
          "type": "uint256"
        }
      ],
      "stateMutability": "view",
      "type": "function",
      "constant": true
    },
    {
      "inputs": [
        {
          "internalType": "uint256",
          "name": "",
          "type": "uint256"
        }
      ],
      "name": "drivers",
      "outputs": [
        {
          "internalType": "uint256",
          "name": "id",
          "type": "uint256"
        },
        {
          "internalType": "address",
          "name": "walletAddress",
          "type": "address"
        },
        {
          "internalType": "string",
          "name": "name",
          "type": "string"
        },
        {
          "internalType": "string",
          "name": "email",
          "type": "string"
        },
        {
          "internalType": "string",
          "name": "phone",
          "type": "string"
        },
        {
          "internalType": "string",
          "name": "carModel",
          "type": "string"
        },
        {
          "internalType": "string",
          "name": "licensePlate",
          "type": "string"
        },
        {
          "internalType": "string",
          "name": "carColor",
          "type": "string"
        },
        {
          "internalType": "bool",
          "name": "isActive",
          "type": "bool"
        },
        {
          "internalType": "uint256",
          "name": "timestamp",
          "type": "uint256"
        }
      ],
      "stateMutability": "view",
      "type": "function",
      "constant": true
    },
    {
      "inputs": [
        {
          "internalType": "uint256",
          "name": "",
          "type": "uint256"
        }
      ],
      "name": "passengers",
      "outputs": [
        {
          "internalType": "uint256",
          "name": "id",
          "type": "uint256"
        },
        {
          "internalType": "uint256",
          "name": "clientId",
          "type": "uint256"
        },
        {
          "internalType": "address",
          "name": "clientWalletAddress",
          "type": "address"
        },
        {
          "internalType": "string",
          "name": "status",
          "type": "string"
        },
        {
          "internalType": "bool",
          "name": "paid",
          "type": "bool"
        }
      ],
      "stateMutability": "view",
      "type": "function",
      "constant": true
    },
    {
      "inputs": [
        {
          "internalType": "uint256",
          "name": "",
          "type": "uint256"
        }
      ],
      "name": "ratings",
      "outputs": [
        {
          "internalType": "uint256",
          "name": "id",
          "type": "uint256"
        },
        {
          "internalType": "uint256",
          "name": "rideId",
          "type": "uint256"
        },
        {
          "internalType": "uint256",
          "name": "driverId",
          "type": "uint256"
        },
        {
          "internalType": "uint256",
          "name": "clientId",
          "type": "uint256"
        },
        {
          "internalType": "uint8",
          "name": "score",
          "type": "uint8"
        },
        {
          "internalType": "uint256",
          "name": "timestamp",
          "type": "uint256"
        }
      ],
      "stateMutability": "view",
      "type": "function",
      "constant": true
    },
    {
      "inputs": [
        {
          "internalType": "uint256",
          "name": "",
          "type": "uint256"
        }
      ],
      "name": "rideRequests",
      "outputs": [
        {
          "internalType": "uint256",
          "name": "id",
          "type": "uint256"
        },
        {
          "internalType": "uint256",
          "name": "clientId",
          "type": "uint256"
        },
        {
          "internalType": "address",
          "name": "clientWalletAddress",
          "type": "address"
        },
        {
          "internalType": "string",
          "name": "status",
          "type": "string"
        },
        {
          "internalType": "uint256",
          "name": "requestedAt",
          "type": "uint256"
        }
      ],
      "stateMutability": "view",
      "type": "function",
      "constant": true
    },
    {
      "inputs": [
        {
          "internalType": "uint256",
          "name": "",
          "type": "uint256"
        }
      ],
      "name": "rides",
      "outputs": [
        {
          "internalType": "uint256",
          "name": "id",
          "type": "uint256"
        },
        {
          "internalType": "uint256",
          "name": "driverId",
          "type": "uint256"
        },
        {
          "internalType": "address",
          "name": "driverWalletAddress",
          "type": "address"
        },
        {
          "internalType": "string",
          "name": "startLocation",
          "type": "string"
        },
        {
          "internalType": "string",
          "name": "destination",
          "type": "string"
        },
        {
          "internalType": "uint8",
          "name": "availableSeats",
          "type": "uint8"
        },
        {
          "internalType": "uint256",
          "name": "price",
          "type": "uint256"
        },
        {
          "internalType": "string",
          "name": "status",
          "type": "string"
        },
        {
          "internalType": "uint256",
          "name": "createdAt",
          "type": "uint256"
        },
        {
          "internalType": "uint256",
          "name": "departureTime",
          "type": "uint256"
        }
      ],
      "stateMutability": "view",
      "type": "function",
      "constant": true
    },
    {
      "inputs": [
        {
          "internalType": "string",
          "name": "_name",
          "type": "string"
        },
        {
          "internalType": "string",
          "name": "_email",
          "type": "string"
        },
        {
          "internalType": "string",
          "name": "_phone",
          "type": "string"
        },
        {
          "internalType": "string",
          "name": "_carModel",
          "type": "string"
        },
        {
          "internalType": "string",
          "name": "_licensePlate",
          "type": "string"
        },
        {
          "internalType": "string",
          "name": "_carColor",
          "type": "string"
        }
      ],
      "name": "registerDriver",
      "outputs": [
        {
          "internalType": "uint256",
          "name": "",
          "type": "uint256"
        }
      ],
      "stateMutability": "nonpayable",
      "type": "function"
    },
    {
      "inputs": [
        {
          "internalType": "string",
          "name": "_name",
          "type": "string"
        },
        {
          "internalType": "string",
          "name": "_email",
          "type": "string"
        },
        {
          "internalType": "string",
          "name": "_phone",
          "type": "string"
        },
        {
          "internalType": "string",
          "name": "_carModel",
          "type": "string"
        },
        {
          "internalType": "string",
          "name": "_licensePlate",
          "type": "string"
        },
        {
          "internalType": "string",
          "name": "_carColor",
          "type": "string"
        }
      ],
      "name": "updateDriver",
      "outputs": [
        {
          "internalType": "bool",
          "name": "",
          "type": "bool"
        }
      ],
      "stateMutability": "nonpayable",
      "type": "function"
    },
    {
      "inputs": [
        {
          "internalType": "string",
          "name": "_name",
          "type": "string"
        },
        {
          "internalType": "string",
          "name": "_email",
          "type": "string"
        },
        {
          "internalType": "string",
          "name": "_phone",
          "type": "string"
        }
      ],
      "name": "registerClient",
      "outputs": [
        {
          "internalType": "uint256",
          "name": "",
          "type": "uint256"
        }
      ],
      "stateMutability": "nonpayable",
      "type": "function"
    },
    {
      "inputs": [
        {
          "internalType": "string",
          "name": "_name",
          "type": "string"
        },
        {
          "internalType": "string",
          "name": "_email",
          "type": "string"
        },
        {
          "internalType": "string",
          "name": "_phone",
          "type": "string"
        }
      ],
      "name": "updateClient",
      "outputs": [
        {
          "internalType": "bool",
          "name": "",
          "type": "bool"
        }
      ],
      "stateMutability": "nonpayable",
      "type": "function"
    },
    {
      "inputs": [
        {
          "internalType": "string",
          "name": "_startLocation",
          "type": "string"
        },
        {
          "internalType": "string",
          "name": "_destination",
          "type": "string"
        },
        {
          "internalType": "uint8",
          "name": "_availableSeats",
          "type": "uint8"
        },
        {
          "internalType": "uint256",
          "name": "_price",
          "type": "uint256"
        },
        {
          "internalType": "uint256",
          "name": "_departureTime",
          "type": "uint256"
        }
      ],
      "name": "createRide",
      "outputs": [
        {
          "internalType": "uint256",
          "name": "",
          "type": "uint256"
        }
      ],
      "stateMutability": "nonpayable",
      "type": "function"
    },
    {
      "inputs": [
        {
          "internalType": "uint256",
          "name": "_rideId",
          "type": "uint256"
        }
      ],
      "name": "requestRide",
      "outputs": [
        {
          "internalType": "uint256",
          "name": "",
          "type": "uint256"
        }
      ],
      "stateMutability": "nonpayable",
      "type": "function"
    },
    {
      "inputs": [
        {
          "internalType": "uint256",
          "name": "_rideId",
          "type": "uint256"
        },
        {
          "internalType": "uint256",
          "name": "_requestId",
          "type": "uint256"
        }
      ],
      "name": "acceptRideRequest",
      "outputs": [],
      "stateMutability": "nonpayable",
      "type": "function"
    },
    {
      "inputs": [
        {
          "internalType": "uint256",
          "name": "_rideId",
          "type": "uint256"
        },
        {
          "internalType": "uint256",
          "name": "_requestId",
          "type": "uint256"
        }
      ],
      "name": "rejectRideRequest",
      "outputs": [],
      "stateMutability": "nonpayable",
      "type": "function"
    },
    {
      "inputs": [
        {
          "internalType": "uint256",
          "name": "_rideId",
          "type": "uint256"
        }
      ],
      "name": "startRide",
      "outputs": [],
      "stateMutability": "nonpayable",
      "type": "function"
    },
    {
      "inputs": [
        {
          "internalType": "uint256",
          "name": "_rideId",
          "type": "uint256"
        }
      ],
      "name": "completeRide",
      "outputs": [],
      "stateMutability": "nonpayable",
      "type": "function"
    },
    {
      "inputs": [
        {
          "internalType": "uint256",
          "name": "_rideId",
          "type": "uint256"
        }
      ],
      "name": "confirmRide",
      "outputs": [],
      "stateMutability": "payable",
      "type": "function",
      "payable": true
    },
    {
      "inputs": [
        {
          "internalType": "uint256",
          "name": "_rideId",
          "type": "uint256"
        }
      ],
      "name": "getRideDetails",
      "outputs": [
        {
          "components": [
            {
              "internalType": "uint256",
              "name": "id",
              "type": "uint256"
            },
            {
              "internalType": "uint256",
              "name": "driverId",
              "type": "uint256"
            },
            {
              "internalType": "address",
              "name": "driverWalletAddress",
              "type": "address"
            },
            {
              "internalType": "string",
              "name": "startLocation",
              "type": "string"
            },
            {
              "internalType": "string",
              "name": "destination",
              "type": "string"
            },
            {
              "internalType": "uint8",
              "name": "availableSeats",
              "type": "uint8"
            },
            {
              "internalType": "uint256",
              "name": "price",
              "type": "uint256"
            },
            {
              "internalType": "string",
              "name": "status",
              "type": "string"
            },
            {
              "internalType": "uint256",
              "name": "createdAt",
              "type": "uint256"
            },
            {
              "internalType": "uint256",
              "name": "departureTime",
              "type": "uint256"
            },
            {
              "internalType": "uint256[]",
              "name": "passengerIds",
              "type": "uint256[]"
            },
            {
              "internalType": "uint256[]",
              "name": "requestIds",
              "type": "uint256[]"
            }
          ],
          "internalType": "struct ChainRideContract.RideDetails",
          "name": "",
          "type": "tuple"
        }
      ],
      "stateMutability": "view",
      "type": "function",
      "constant": true
    },
    {
      "inputs": [
        {
          "internalType": "uint256",
          "name": "_rideId",
          "type": "uint256"
        }
      ],
      "name": "cancelRide",
      "outputs": [],
      "stateMutability": "nonpayable",
      "type": "function"
    },
    {
      "inputs": [],
      "name": "getActiveRides",
      "outputs": [
        {
          "internalType": "uint256[]",
          "name": "",
          "type": "uint256[]"
        }
      ],
      "stateMutability": "view",
      "type": "function",
      "constant": true
    },
    {
      "inputs": [
        {
          "internalType": "uint256",
          "name": "_driverId",
          "type": "uint256"
        }
      ],
      "name": "getDriverRides",
      "outputs": [
        {
          "internalType": "uint256[]",
          "name": "",
          "type": "uint256[]"
        }
      ],
      "stateMutability": "view",
      "type": "function",
      "constant": true
    },
    {
      "inputs": [
        {
          "internalType": "uint256",
          "name": "_rideId",
          "type": "uint256"
        }
      ],
      "name": "getRideRequests",
      "outputs": [
        {
          "internalType": "uint256[]",
          "name": "",
          "type": "uint256[]"
        }
      ],
      "stateMutability": "view",
      "type": "function",
      "constant": true
    },
    {
      "inputs": [
        {
          "internalType": "uint256",
          "name": "_rideId",
          "type": "uint256"
        }
      ],
      "name": "getRidePassengers",
      "outputs": [
        {
          "internalType": "uint256[]",
          "name": "",
          "type": "uint256[]"
        }
      ],
      "stateMutability": "view",
      "type": "function",
      "constant": true
    },
    {
      "inputs": [
        {
          "internalType": "uint256",
          "name": "_clientId",
          "type": "uint256"
        }
      ],
      "name": "getClientRides",
      "outputs": [
        {
          "internalType": "uint256[]",
          "name": "",
          "type": "uint256[]"
        }
      ],
      "stateMutability": "view",
      "type": "function",
      "constant": true
    },
    {
      "inputs": [],
      "name": "getTotalDrivers",
      "outputs": [
        {
          "internalType": "uint256",
          "name": "",
          "type": "uint256"
        }
      ],
      "stateMutability": "view",
      "type": "function",
      "constant": true
    },
    {
      "inputs": [],
      "name": "getTotalClients",
      "outputs": [
        {
          "internalType": "uint256",
          "name": "",
          "type": "uint256"
        }
      ],
      "stateMutability": "view",
      "type": "function",
      "constant": true
    },
    {
      "inputs": [
        {
          "internalType": "uint256",
          "name": "_rideId",
          "type": "uint256"
        },
        {
          "internalType": "uint8",
          "name": "_score",
          "type": "uint8"
        }
      ],
      "name": "rateDriver",
      "outputs": [],
      "stateMutability": "nonpayable",
      "type": "function"
    },
    {
      "inputs": [
        {
          "internalType": "uint256",
          "name": "_driverId",
          "type": "uint256"
        }
      ],
      "name": "getDriverRating",
      "outputs": [
        {
          "internalType": "uint256",
          "name": "",
          "type": "uint256"
        },
        {
          "internalType": "uint256",
          "name": "",
          "type": "uint256"
        }
      ],
      "stateMutability": "view",
      "type": "function",
      "constant": true
    },
    {
      "inputs": [
        {
          "internalType": "uint256",
          "name": "_driverId",
          "type": "uint256"
        }
      ],
      "name": "getDriverRatings",
      "outputs": [
        {
          "internalType": "uint256[]",
          "name": "",
          "type": "uint256[]"
        }
      ],
      "stateMutability": "view",
      "type": "function",
      "constant": true
    },
    {
      "inputs": [
        {
          "internalType": "uint256",
          "name": "_rideId",
          "type": "uint256"
        }
      ],
      "name": "getRideRatings",
      "outputs": [
        {
          "internalType": "uint256[]",
          "name": "",
          "type": "uint256[]"
        }
      ],
      "stateMutability": "view",
      "type": "function",
      "constant": true
    }
  ],
  "bytecode": "0x6080806040523461002e57600160005560018055600160025560016003556000600d55613d1390816100348239f35b600080fdfe6080604052600436101561001257600080fd5b60003560e01c806202e1e51461344657806301c678c2146130a75780630dcc2fb714612fce5780630e66200a14612f7d57806315c56c3214612f2c5780631d6be93c14612ce957806320187d601461273f5780633015f19b14612715578063357da7ce146124af5780634dc2b360146123875780635205f1121461228e5780635d30e84d146122285780635fde932d146121fd5780636f68f544146121705780637105382d1461212f57806373c33975146120de5780637888cd1c146120925780639327b07714611e3557806396427c9414611e095780639e3fa06b14611dcb578063a6c02cb714611aef578063a6f07b2914611982578063abd7a04314611944578063b229f3601461132e578063bcc601ab146112ad578063c416dd0b14611117578063d057e926146110c6578063d49f223514610d4e578063d5bae0e714610c3a578063dc7129741461096d578063df04320d146108a5578063e83d246214610581578063e9c14b1e1461045c578063f34dc39614610400578063f79e54501461028a5763f88af21d146101a757600080fd5b346102855760203660031901126102855760043560005260066020526040600020805460018060a01b03600183015416916040516101f3816101ec81600286016137b9565b0382613650565b61027460405161020a816101ec81600388016137b9565b61026660405191610229836102228160048a016137b9565b0384613650565b610258600660ff60058901541697015495604051998a998a5260208a015260e060408a015260e08901906135a5565b9087820360608901526135a5565b9085820360808701526135a5565b91151560a084015260c08301520390f35b600080fd5b3461028557602036600319011261028557600435600052600460205260406000208054600160a01b6001900360018301541691604051808060028401906102d0916137b9565b036102db9082613650565b604051806102ec81600386016137b9565b036102f79082613650565b6040518061030881600487016137b9565b036103139082613650565b6040518061032481600588016137b9565b0361032f9082613650565b604051918261034181600689016137b9565b0361034c9084613650565b604051938461035e8160078a016137b9565b036103699086613650565b600887015460ff16966009015495604051998a998a5260208a01526101408060408b01528901610398916135a5565b88810360608a01526103a9916135a5565b87810360808901526103ba916135a5565b86810360a08801526103cb916135a5565b85810360c08701526103dc916135a5565b84810360e08601526103ed916135a5565b9115156101008401526101208301520390f35b346102855760203660031901126102855760043580151580610451575b610426906139ea565b600052600860205261044d610441600b604060002001613b5d565b6040519182918261351b565b0390f35b50600254811061041d565b346102855760203660031901126102855760043580151580610576575b610482906139ea565b600081815260086020526040902060028101546001600160a01b03163303610525576007016104d76040516104bb816101ec81866137b9565b602081519101206104ca613a2c565b6020815191012014613a4e565b6104ea6104e4825461377f565b826138d0565b60166a696e5f70726f677265737360a81b0190557f1caef5aba80487f3eb64526a934f8250dd2591d249cd4f14756041c0ff93607d600080a2005b60405162461bcd60e51b815260206004820152602360248201527f4f6e6c792072696465206472697665722063616e20737461727420746865207260448201526269646560e81b6064820152608490fd5b506002548110610479565b346102855761058f3661384f565b91903360005260209260078452604060002054926105ae8415156139a6565b836000526006855260406000206001933360018060a01b0386840154160361084f576002820183516001600160401b03948582116107585781906105fc826105f6865461377f565b866138fa565b8a90601f83116001146107ec576000926107e1575b5050600019600383901b1c191690871b1790555b805160038301918482116107585761064782610641855461377f565b856138fa565b8890601f8311600114610779576004949392916000918361076e575b5050600019600383901b1c191690871b1790555b01918051918211610758578190610692826105f6865461377f565b8690601f83116001146106f5576000926106ea575b5050600019600383901b1c191690831b1790555b6040519133907fbe409d0d9e1a69bac799e24eb445379ad0c9e056edc65d060e83c5cabff7a572600080a38152f35b0151905086806106a7565b90859350601f1983169185600052886000209260005b8a8282106107425750508411610729575b505050811b0190556106bb565b015160001960f88460031b161c1916905586808061071c565b838501518655899790950194938401930161070b565b634e487b7160e01b600052604160045260246000fd5b015190508a80610663565b9392918791601f19821690846000528b6000209160005b8d8282106107cb5750509683600498106107b2575b505050811b019055610677565b015160001960f88460031b161c191690558a80806107a5565b838a015185558c96909401939283019201610790565b015190508a80610611565b60008581528c81208b9550929190601f198516908e5b828210610838575050841161081f575b505050811b019055610625565b015160001960f88460031b161c191690558a8080610812565b8385015186558d979095019493840193018e610802565b60405162461bcd60e51b815260048101889052602860248201527f4f6e6c7920636c69656e742063616e20757064617465207468656972206f776e6044820152672070726f66696c6560c01b6064820152608490fd5b3461028557602080600319360112610285576004356012546108c681613bc3565b9260009260005b83811061091c5785856108df81613bc3565b9160005b8281106108f8576040518061044d868261351b565b806109066109179284613bf5565b516109118287613bf5565b526138aa565b6108e3565b61092581613556565b90549060031b1c80600052600884528260016040600020015414610953575b5061094e906138aa565b6108cd565b856109669161091161094e94988a613bf5565b9490610944565b6020806003193601126102855760043580151580610c2f575b61098f906139ea565b80600052600882526040600020916040516109b1816101ec81600788016137b9565b8181519101206109bf613b38565b82815191012003610beb576000906000916000600a86018054915b828110610b45575b50505015610af257600684019384543403610aad576000808080938682526009865260046040832001600160ff1982541617905560036040832001610a2a6104e4825461377f565b60126818dbdb999a5c9b595960ba1b0190556002015481906001600160a01b03163415610aa3575b3491f115610a97577f6c262599b9b600d914b2baf0a565cd17a5e93d35ebd1bdfd8dfb2fda717ee69091600052600981526001604060002001549354604051908152a3005b6040513d6000823e3d90fd5b6108fc9150610a52565b60405162461bcd60e51b815260048101839052601860248201527f496e636f7272656374207061796d656e7420616d6f756e7400000000000000006044820152606490fd5b6084906040519062461bcd60e51b82526004820152602660248201527f43616c6c6572206973206e6f7420612070617373656e676572206f662074686960448201526573207269646560d01b6064820152fd5b610b4f818361358d565b905460039190911b1c6000818152600987526040902060028101546001600160a01b03163314610b89575050610b84906138aa565b6109da565b925095505060ff925060049150015416610ba75760018580806109e2565b6064906040519062461bcd60e51b82526004820152601960248201527f5061796d656e7420616c726561647920636f6e6669726d6564000000000000006044820152fd5b6064906040519062461bcd60e51b82526004820152601c60248201527f52696465206d75737420626520636f6d706c65746564206669727374000000006044820152fd5b506002548110610986565b346102855760208060031936011261028557600435908115610d0a57600d5490600060015b83811115610ccf5750610c7190613bc3565b9260009160015b84811115610c8e576040518061044d888261351b565b80600052600c82528260016040600020015414610cb4575b610caf906138aa565b610c78565b92610cc78185610911610caf948a613bf5565b939050610ca6565b80600052600c83528460016040600020015414610cf5575b610cf0906138aa565b610c5f565b90610d02610cf0916138aa565b919050610ce7565b6064906040519062461bcd60e51b82526004820152601e60248201527f52696465204944206d7573742062652067726561746572207468616e203000006044820152fd5b3461028557610d5c3661384f565b919091336000526020926007845260406000205461108157600191825493610d83856138aa565b84558460005260068652604060002092858455848401336001600160601b0360a01b8254161790556002840182516001600160401b0393848211610758578190610dd1826105f6865461377f565b8a90601f831160011461101e57600092611013575b5050600019600383901b1c191690871b1790555b80516003850191838211610758578190610e18826105f6865461377f565b8990601f8311600114610fb057600092610fa5575b5050600019600383901b1c191690861b1790555b60048301918051918211610758578190610e5f826105f6865461377f565b8790601f8311600114610f4257600092610f37575b5050600019600383901b1c191690841b1790555b600581018260ff1982541617905560064291015533600052600783528160406000205560115490600160401b82101561075857810180601155811015610f2157819060116000527f31ecc21a745e3968a04e9570e4425bc18fa8019c68028196b546d1669c200c6801556040519033817fb815407d18c4a13f23f5714a7f46938648fb7ddc53c75387904f727c348807c3600080a38152f35b634e487b7160e01b600052603260045260246000fd5b015190508780610e74565b90869350601f1983169185600052896000209260005b8b828210610f8f5750508411610f76575b505050811b019055610e88565b015160001960f88460031b161c19169055878080610f69565b8385015186558a97909501949384019301610f58565b015190508980610e2d565b90889350601f19831691856000528b6000209260005b8d828210610ffd5750508411610fe4575b505050811b019055610e41565b015160001960f88460031b161c19169055898080610fd7565b8385015186558c97909501949384019301610fc6565b015190508a80610de6565b60008581528c81208b9550929190601f198516908e5b82821061106a5750508411611051575b505050811b019055610dfa565b015160001960f88460031b161c191690558a8080611044565b8385015186558d979095019493840193018e611034565b60405162461bcd60e51b815260048101859052601960248201527f436c69656e7420616c72656164792072656769737465726564000000000000006044820152606490fd5b34610285576020366003190112610285576004356010548110156102855760209060106000527f1b6847dc741a1b0cd08d278845f9d819d87b734759afb55fe2de5cb82a9ae6720154604051908152f35b34610285576020806003193601126102855760043590811515806112a2575b61113f906139ea565b6000828152600882526040902060028101546001600160a01b0316330361124e57600701907f811bb47290dc5d06c2e8c789859ec3d72ae47eaad91ae49a85546d47499a83bb604051611196816101ec81876137b9565b8281519101206a696e5f70726f677265737360a81b836040516111b881613635565b600b815201520361120a57506111d16104e4825461377f565b60126818dbdb5c1b195d195960ba1b0190557f63e5b4bf8bc6c9cf867e6cc4d53f654c1f0365d975100e04129de6383f8c4b23600080a2005b6064906040519062461bcd60e51b82526004820152601760248201527f52696465206973206e6f7420696e2070726f67726573730000000000000000006044820152fd5b60405162461bcd60e51b815260048101839052602660248201527f4f6e6c792072696465206472697665722063616e20636f6d706c65746520746860448201526565207269646560d01b6064820152608490fd5b506002548210611136565b3461028557602036600319011261028557600435600052600a6020526040600020805460018201549161132460018060a01b03600283015416916004604051916112fe8361022281600385016137b9565b01549260405195869586526020860152604085015260a0606085015260a08401906135a5565b9060808301520390f35b346102855761133c366136c7565b94929190913360005260056020526040600020546118ff5760005494611361866138aa565b60005585600052600460205260406000209486865560018601336001600160601b0360a01b8254161790558051906001600160401b0382116107585781906113b9826113b060028b015461377f565b60028b016138fa565b602090601f831160011461188d57600092611882575b50508160011b916000199060031b1c19161760028601555b8051906001600160401b0382116107585781906114148261140b60038a015461377f565b60038a016138fa565b602090601f831160011461181057600092611805575b50508160011b916000199060031b1c19161760038501555b8051906001600160401b03821161075857819061146f82611466600489015461377f565b600489016138fa565b602090601f831160011461179357600092611788575b50508160011b916000199060031b1c19161760048401555b805160058401916001600160401b0382116107585781906114c2826105f6865461377f565b602090601f831160011461172257600092611717575b50508160011b916000199060031b1c19161790555b805160068301916001600160401b038211610758578190611512826105f6865461377f565b602090601f83116001146116b1576000926116a6575b50508160011b916000199060031b1c19161790555b6007810183516001600160401b038111610758576115658161155f845461377f565b846138fa565b602094601f821160011461164057948192939495600092611635575b50508160011b916000199060031b1c19161790555b60088101600160ff198254161790556009429101553360005260056020528060406000205560105490600160401b821015610758576001820180601055821015610f21578060209260106000527f1b6847dc741a1b0cd08d278845f9d819d87b734759afb55fe2de5cb82a9ae67201556040519033817f03768fcb79c5ffec4cc22b1b43cb225560120424fbe39d80480e5819a5c897d5600080a38152f35b015190508580611581565b601f198216958360005260206000209160005b88811061168e57508360019596979810611675575b505050811b019055611596565b015160001960f88460031b161c19169055858080611668565b91926020600181928685015181550194019201611653565b015190508680611528565b6000858152602081209350601f198516905b8181106116ff57509084600195949392106116e6575b505050811b01905561153d565b015160001960f88460031b161c191690558680806116d9565b929360206001819287860151815501950193016116c3565b0151905087806114d8565b6000858152602081209350601f198516905b8181106117705750908460019594939210611757575b505050811b0190556114ed565b015160001960f88460031b161c1916905587808061174a565b92936020600181928786015181550195019301611734565b015190508780611485565b9250600486016000526020600020906000935b601f19841685106117ea576001945083601f198116106117d1575b505050811b01600484015561149d565b015160001960f88460031b161c191690558780806117c1565b818101518355602094850194600190930192909101906117a6565b01519050888061142a565b9250600387016000526020600020906000935b601f1984168510611867576001945083601f1981161061184e575b505050811b016003850155611442565b015160001960f88460031b161c1916905588808061183e565b81810151835560209485019460019093019290910190611823565b0151905089806113cf565b9250600288016000526020600020906000935b601f19841685106118e4576001945083601f198116106118cb575b505050811b0160028601556113e7565b015160001960f88460031b161c191690558980806118bb565b818101518355602094850194600190930192909101906118a0565b60405162461bcd60e51b815260206004820152601960248201527f44726976657220616c72656164792072656769737465726564000000000000006044820152606490fd5b34610285576020366003190112610285576004356001600160a01b038116908190036102855760005260056020526020604060002054604051908152f35b3461028557602080600319360112610285576004359081151580611ae4575b6119aa906139ea565b6000828152600882526040902060028101546001600160a01b03163303611a9357600701906040516119e0816101ec81866137b9565b8181519101206119ee613a2c565b82815191012003611a405750611a076104e4825461377f565b60126818d85b98d95b1b195960ba1b0190557f0c23eb44b06124e00526761c3c77095fc814bb72c9be3ac1e58f0bc2ebfe4f7e600080a2005b6084906040519062461bcd60e51b82526004820152602660248201527f526964652063616e6e6f742062652063616e63656c6c6564206174207468697360448201526520737461676560d01b6064820152fd5b60405162461bcd60e51b8152600481018390526024808201527f4f6e6c792072696465206472697665722063616e2063616e63656c20746865206044820152637269646560e01b6064820152608490fd5b5060025482106119a1565b346102855760a0366003190112610285576001600160401b0360043581811161028557611b20903690600401613671565b60243582811161028557611b38903690600401613671565b906044359060ff82168092036102855760643590336000526020946005865260406000205493611b69851515613962565b60025495611b76876138aa565b6002558660005260088852604060002092878455600194878686015560028501336001600160601b0360a01b8254161790556003850190805190838211610758578190611bc7826105f6865461377f565b8c908d601f8411600114611d655750600092611d5a575b5050600019600383901b1c191690871b1790555b60048401918051918211610758578190611c10826105f6865461377f565b8a90601f8311600114611cf757600092611cec575b5050600019600383901b1c191690851b1790555b600582019060ff1982541617905582600682015560078101611c5e6104e4825461377f565b600c6561637469766560d01b019055426008820155608435600990910155601254600160401b811015610758578492611cdd84611cc2847f47854699debaa81148943c9053c71212f14c1208daf63d7c1246d59f462d39b8968b9601601255613556565b90919082549060031b600019811b9283911b16911916179055565b604051908152a3604051908152f35b015190508a80611c25565b60008581528c8120899550929190601f198516908e5b828210611d435750508411611d2a575b505050811b019055611c39565b015160001960f88460031b161c191690558a8080611d1d565b8385015186558b979095019493840193018e611d0d565b015190508c80611bde565b91908a9450601f1984168660005283600020936000905b828210611db25750508411611d99575b505050811b019055611bf2565b015160001960f88460031b161c191690558c8080611d8c565b8484015186558d97909501949384019390810190611d7c565b34610285576020366003190112610285576004356001600160a01b038116908190036102855760005260076020526020604060002054604051908152f35b3461028557602036600319011261028557600435600052600b60205261044d6104416040600020613b5d565b34610285576020806003193601126102855760043580151580612087575b611e5c906139ea565b3360005260078252604060002054611e758115156139a6565b816000526008918284526040600020611ecb6101ec611eb160078401611ea5611e9e825461377f565b15156139ea565b604051928380926137b9565b868151910120611ebf613a2c565b87815191012014613a4e565b611edd60ff6005830154161515613a8f565b600b018054909360005b828110611f8e57505050611f5d6003548094611f02826138aa565b60035581600052600a8752604060002082815585600182015560028101336001600160601b0360a01b82541617905560038101611f426104e4825461377f565b600e6670656e64696e6760c81b01905560044291015561393f565b7f1881520d43a4abcbf6b1e33d26324b40ca34534a8d209735a9f0c50930c52c5684604051858152a3604051908152f35b611f98818761358d565b9054600391821b1c600052600a8852604060002086600182015414611fc8575b5050611fc3906138aa565b611ee7565b90611ffe7f5e679716a01be890d854f2c1c5cb5336603215e65ff238044a5b11c586f61c1d926101ec60405180948193016137b9565b888151910120671c995a9958dd195960c21b8960405161201d81613635565b86815201520361202e578780611fb8565b60405162461bcd60e51b815260048101889052602b60248201527f416c726561647920726571756573746564206f7220616363657074656420666f60448201526a722074686973207269646560a81b6064820152608490fd5b506002548110611e53565b3461028557602036600319011261028557600435801515806120d3575b6120b8906139ea565b600052600860205261044d610441600a604060002001613b5d565b5060025481106120af565b34610285576020366003190112610285576004356012548110156102855760209060126000527fbb8a6a4669ba250d26cd7a459eca9d215f8307e33aebe50379bc5a3617ec34440154604051908152f35b3461028557600036600319011261028557600154600019810190811161215a57602090604051908152f35b634e487b7160e01b600052601160045260246000fd5b34610285576020366003190112610285576004356000526009602052604060002080546001820154916121f160018060a01b036002830154169160ff6004604051926121ca846121c381600385016137b9565b0385613650565b0154169260405195869586526020860152604085015260a0606085015260a08401906135a5565b90151560808301520390f35b3461028557600036600319011261028557600054600019810190811161215a57602090604051908152f35b3461028557602036600319011261028557600435600052600c60205260c060406000208054906001810154906002810154600382015490600560ff60048501541693015493604051958652602086015260408501526060840152608083015260a0820152f35b346102855760203660031901126102855760043560005260086020526040600020805460018201549160018060a01b036002820154166123766040516122db816101ec81600388016137b9565b6007604051916122f2836102228160048a016137b9565b61235e60ff600588015416936123506006890154936123228a61231b60405180998193016137b9565b0387613650565b600960088b01549a0154986040519c8d9c8d5260208d015260408c01526101408060608d01528b01906135a5565b9089820360808b01526135a5565b9260a088015260c087015285820360e08701526135a5565b916101008401526101208301520390f35b346102855761239536613769565b811515806124a4575b6123a7906139ea565b6000828152600860205260409020600201546001600160a01b0316330361245357600052600a602052600160406000206003810161240b6040516123ef816101ec81866137b9565b602081519101206123fe613ad0565b6020815191012014613af3565b6124186104e4825461377f565b6010671c995a9958dd195960c21b0190550154907f0a1ce47c0d142a211224f14ace0b39665b53f1d56cbd182f954b8e22848c69a2600080a3005b60405162461bcd60e51b8152602060048201526024808201527f4f6e6c792072696465206472697665722063616e2072656a65637420726571756044820152636573747360e01b6064820152608490fd5b50600254821061239e565b34610285576124bd36613769565b8115158061270a575b6124cf906139ea565b816000526020906008825260406000209160018060a01b03918260028501541633036126b95761252660405161250c816101ec8160078a016137b9565b83815191012061251a613a2c565b84815191012014613a4e565b600584019061253a60ff8354161515613a8f565b600052600a82526040600020936003850161257960405161255f816101ec81866137b9565b85815191012061256d613ad0565b86815191012014613af3565b6125866104e4825461377f565b6010671858d8d95c1d195960c21b019055601354600181019490851061215a5784600a600461261d938360005260098852604060002090848255600260018c019b8c54600185015501541660028201906001600160601b0360a01b825416179055600381016125f86104e4825461377f565b60126818dbdb999a5c9b595960ba1b01905501805460ff19908116909155930161393f565b81549060ff8216801561215a5760ff906000190116911617905560135491600160401b831015610758576001830180601355831015610f2157600b927f66de8ffda797e3de9c05e8fc57b3bf0ec28a930d40b0d285d93c06501cf6a090015582546000525261269082604060002061393f565b54907f067e1786bd0858ab9be9533ab851d1644f8a9af317edea0b985ae2708c446571600080a3005b60405162461bcd60e51b8152600481018390526024808201527f4f6e6c792072696465206472697665722063616e2061636365707420726571756044820152636573747360e01b6064820152608490fd5b5060025482106124c6565b34610285576020366003190112610285576040612733600435613c54565b82519182526020820152f35b346102855761274d366136c7565b92949190943360005260056020526040600020549461276d861515613962565b8560005260046020526040600020933360018060a01b0360018701541603612c935780516001600160401b038111610758578060028701926127b3826105f6865461377f565b602090601f8311600114612c2757600092612c1c575b50508160011b916000199060031b1c19161790555b80516001600160401b03811161075857806003860192612802826105f6865461377f565b602090601f8311600114612bb657600092612bab575b50508160011b916000199060031b1c19161790555b8051906001600160401b03821161075857819061285a82612851600488015461377f565b600488016138fa565b602090601f8311600114612b3957600092612b2e575b50508160011b916000199060031b1c19161760048301555b8051906001600160401b0382116107585781906128b5826128ac600587015461377f565b600587016138fa565b602090601f8311600114612abc57600092612ab1575b50508160011b916000199060031b1c19161760058201555b83516001600160401b0381116107585761290d81612904600685015461377f565b600685016138fa565b6020601f8211600114612a3e5781906007949596600092612a33575b50508160011b916000199060031b1c19161760068201555b01918151926001600160401b038411610758578361296560209561155f845461377f565b8493601f82116001146129d05793819293946000926129c5575b50508160011b916000199060031b1c19161790555b6040519033907f89a928af1f1d1d877f76a506825d8dd15d2adc60bd7b3acc19e3ff58e6a4e92a600080a360018152f35b01519050858061297f565b601f1982169483600052866000209160005b878110612a1c575083600195969710612a03575b505050811b019055612994565b015160001960f88460031b161c191690558580806129f6565b9192886001819286850151815501940192016129e2565b015190508680612929565b6006830160005260206000209560005b601f1984168110612a9957509582916007959697600194601f19811610612a80575b505050811b016006820155612941565b015160001960f88460031b161c19169055868080612a70565b82820151885560019097019660209283019201612a4e565b0151905086806128cb565b9250600584016000526020600020906000935b601f1984168510612b13576001945083601f19811610612afa575b505050811b0160058201556128e3565b015160001960f88460031b161c19169055868080612aea565b81810151835560209485019460019093019290910190612acf565b015190508780612870565b9250600485016000526020600020906000935b601f1984168510612b90576001945083601f19811610612b77575b505050811b016004830155612888565b015160001960f88460031b161c19169055878080612b67565b81810151835560209485019460019093019290910190612b4c565b015190508980612818565b6000858152602081209350601f198516905b818110612c045750908460019594939210612beb575b505050811b01905561282d565b015160001960f88460031b161c19169055898080612bde565b92936020600181928786015181550195019301612bc8565b015190508a806127c9565b9250836000526020600020906000935b601f1984168510612c78576001945083601f19811610612c5f575b505050811b0190556127de565b015160001960f88460031b161c191690558a8080612c52565b81810151835560209485019460019093019290910190612c37565b60405162461bcd60e51b815260206004820152602860248201527f4f6e6c79206472697665722063616e20757064617465207468656972206f776e6044820152672070726f66696c6560c01b6064820152608490fd5b34610285576020366003190112610285576004356060610160604051612d0e81613619565b6000815260006020820152600060408201528280820152826080820152600060a0820152600060c08201528260e08201526000610100820152600061012082015282610140820152015280151580612f21575b612d6a906139ea565b600052600860205261044d6040600020612e40600b825492600181015460018060a01b0360028301541660ff60058401541660068401549060088501549260098601549460405199612dbb8b613619565b8a5260208a01526040890152604051612ddb816101ec8160038a016137b9565b6060890152604051612df4816101ec8160048a016137b9565b608089015260a088015260c0870152604051612e17816101ec81600788016137b9565b60e0870152610100860152610120850152612e34600a8201613b5d565b61014085015201613b5d565b61016082015260405191829160208352805160208401526020810151604084015260018060a01b036040820151166060840152610160612f0c612ede612eb0612e9a606086015161018060808a01526101a08901906135a5565b6080860151888203601f190160a08a01526135a5565b60ff60a08601511660c088015260c085015160e088015260e0850151601f19888303016101008901526135a5565b610100840151610120870152610120840151610140870152610140840151601f1987830301848801526135e5565b910151838203601f19016101808501526135e5565b506002548110612d61565b34610285576020366003190112610285576004356013548110156102855760209060136000527f66de8ffda797e3de9c05e8fc57b3bf0ec28a930d40b0d285d93c06501cf6a0900154604051908152f35b34610285576020366003190112610285576004356011548110156102855760209060116000527f31ecc21a745e3968a04e9570e4425bc18fa8019c68028196b546d1669c200c680154604051908152f35b3461028557600036600319011261028557601254612feb81613bc3565b9060009060005b81811061303057505061300481613bc3565b9160005b82811061301d576040518061044d868261351b565b8061090661302b9284613bf5565b613008565b61303981613556565b90549060031b1c806000526020600881526101ec6130646007604060002001604051928380926137b9565b81815191012090613073613a2c565b80519101201461308d575b50613088906138aa565b612ff2565b836130a091610911613088949688613bf5565b929061307e565b346102855760403660031901126102855760043560249081359060ff821680920361028557600190818310158061343b575b156133f75780600052602090600882526040600020946130fb865415156139ea565b60405161310f816101ec8160078b016137b9565b83815191012061311d613b38565b848151910120036133b4573360005260078352604060002054936131428515156139a6565b600080600a89018054915b828110613373575b5050501561332f578080600d54905b818111156132ac5750613176906138aa565b9788600d55019687546040519260c084018481106001600160401b0382111761329757906005939291604052828552878501918783526040860190815260608601918a835260808701938c855260a0880195428752600052600c8b52604060002097518855519087015551600286015551600385015560ff6004850191511660ff19825416179055519101558554600052600e83526040600020805491868301809311613283577f1c1638371b23fea1643a6a25c6d81f3abc6c593799034889c2aba9ac4875982a60a089898989898989558454600052600f8252604060002061326081546138aa565b9055600d54945491604051958652850152604084015260608301526080820152a1005b634e487b7160e01b60009081526011600452fd5b85634e487b7160e01b60005260416004526000fd5b80919250600052600c8652848360406000200154148061331e575b6132dc576132d4906138aa565b908291613164565b606484876040519162461bcd60e51b83528160048401528201527f596f75206861766520616c7265616479207261746564207468697320726964656044820152fd5b5086600360406000200154146132c7565b60405162461bcd60e51b815260048101859052601f818401527f4f6e6c792070617373656e676572732063616e207261746520612072696465006044820152606490fd5b61337d818361358d565b90549060031b1c60005260098852888560406000200154146133a7576133a2906138aa565b61314d565b5050505080888080613155565b82601e6064926040519262461bcd60e51b845260048401528201527f52696465206d75737420626520636f6d706c6574656420746f207261746500006044820152fd5b60405162461bcd60e51b815260206004820152601e818601527f526174696e67206d757374206265206265747765656e203120616e64203500006044820152606490fd5b5060058311156130d9565b34610285576020806003193601126102855760043590613467821515613c09565b600d5490600060015b838111156134e0575061348290613bc3565b9260009160015b8481111561349f576040518061044d888261351b565b80600052600c825282600260406000200154146134c5575b6134c0906138aa565b613489565b926134d881856109116134c0948a613bf5565b9390506134b7565b80600052600c83528460026040600020015414613506575b613501906138aa565b613470565b90613513613501916138aa565b9190506134f8565b6020908160408183019282815285518094520193019160005b828110613542575050505090565b835185529381019392810192600101613534565b601254811015610f215760126000527fbb8a6a4669ba250d26cd7a459eca9d215f8307e33aebe50379bc5a3617ec34440190600090565b8054821015610f215760005260206000200190600090565b919082519283825260005b8481106135d1575050826000602080949584010152601f8019910116010190565b6020818301810151848301820152016135b0565b90815180825260208080930193019160005b828110613605575050505090565b8351855293810193928101926001016135f7565b61018081019081106001600160401b0382111761075857604052565b604081019081106001600160401b0382111761075857604052565b90601f801991011681019081106001600160401b0382111761075857604052565b81601f82011215610285578035906001600160401b03821161075857604051926136a5601f8401601f191660200185613650565b8284526020838301011161028557816000926020809301838601378301015290565b9060c06003198301126102855760048035926001600160401b039384811161028557816136f5918401613671565b93602435818111610285578261370c918501613671565b936044358281116102855783613723918601613671565b93606435838111610285578461373a918301613671565b936084358481116102855781613751918401613671565b9360a435908111610285576137669201613671565b90565b6040906003190112610285576004359060243590565b90600182811c921680156137af575b602083101461379957565b634e487b7160e01b600052602260045260246000fd5b91607f169161378e565b90600092918054916137ca8361377f565b91828252600193848116908160001461382c57506001146137ec575b50505050565b90919394506000526020928360002092846000945b8386106138185750505050010190388080806137e6565b805485870183015294019385908201613801565b9294505050602093945060ff191683830152151560051b010190388080806137e6565b6060600319820112610285576001600160401b0391600435838111610285578261387b91600401613671565b92602435818111610285578361389391600401613671565b926044359182116102855761376691600401613671565b600019811461215a5760010190565b8181106138c4575050565b600081556001016138b9565b90601f81116138dd575050565b6138f891600052601f6020600020910160051c8101906138b9565b565b9190601f811161390957505050565b6138f8926000526020600020906020601f840160051c83019310613935575b601f0160051c01906138b9565b9091508190613928565b90815491600160401b8310156107585782611cc29160016138f89501815561358d565b1561396957565b60405162461bcd60e51b8152602060048201526015602482015274111c9a5d995c881b9bdd081c9959da5cdd195c9959605a1b6044820152606490fd5b156139ad57565b60405162461bcd60e51b815260206004820152601560248201527410db1a595b9d081b9bdd081c9959da5cdd195c9959605a1b6044820152606490fd5b156139f157565b60405162461bcd60e51b8152602060048201526013602482015272149a591948191bd95cc81b9bdd08195e1a5cdd606a1b6044820152606490fd5b60405190613a3982613635565b600682526561637469766560d01b6020830152565b15613a5557565b60405162461bcd60e51b815260206004820152601260248201527152696465206973206e6f742061637469766560701b6044820152606490fd5b15613a9657565b60405162461bcd60e51b81526020600482015260126024820152714e6f20617661696c61626c6520736561747360701b6044820152606490fd5b60405190613add82613635565b600782526670656e64696e6760c81b6020830152565b15613afa57565b60405162461bcd60e51b815260206004820152601660248201527552657175657374206973206e6f742070656e64696e6760501b6044820152606490fd5b60405190613b4582613635565b600982526818dbdb5c1b195d195960ba1b6020830152565b9060405191828154918282526020928383019160005283600020936000905b828210613b92575050506138f892500383613650565b855484526001958601958895509381019390910190613b7c565b6001600160401b0381116107585760051b60200190565b90613bcd82613bac565b613bda6040519182613650565b8281528092613beb601f1991613bac565b0190602036910137565b8051821015610f215760209160051b010190565b15613c1057565b606460405162461bcd60e51b815260206004820152602060248201527f447269766572204944206d7573742062652067726561746572207468616e20306044820152fd5b90613c60821515613c09565b6000918083526004602052604083205415613ca0578252600f602052604082205415613c9c57600e60205260408083205492600f602052205490565b8190565b60405162461bcd60e51b8152602060048201526015602482015274111c9a5d995c88191bd95cc81b9bdd08195e1a5cdd605a1b6044820152606490fdfea2646970667358221220b7960ca385151661cea5a4681a90c2a187a3b7afd42a60680f8b2f90f0724a2c64736f6c63430008110033",
  "immutableReferences": {},
  "source": "// SPDX-License-Identifier: MIT\r\npragma solidity ^0.8.0;\r\n\r\ncontract ChainRideContract {\r\n    // Counter for IDs\r\n    uint256 private driverIdCounter = 1;\r\n    uint256 private clientIdCounter = 1;\r\n    uint256 private rideIdCounter = 1;\r\n    uint256 private requestIdCounter = 1;\r\n    \r\n    // Structs\r\n    struct Driver {\r\n        uint256 id;\r\n        address walletAddress;\r\n        string name;\r\n        string email;\r\n        string phone;\r\n        string carModel;\r\n        string licensePlate;\r\n        string carColor;\r\n        bool isActive;\r\n        uint256 timestamp;\r\n    }\r\n    \r\n    struct Client {\r\n        uint256 id;\r\n        address walletAddress;\r\n        string name;\r\n        string email;\r\n        string phone;\r\n        bool isActive;\r\n        uint256 timestamp;\r\n    }\r\n    \r\n    struct RideRequest {\r\n        uint256 id;\r\n        uint256 clientId;\r\n        address clientWalletAddress;\r\n        string status; // \"pending\", \"accepted\", \"rejected\"\r\n        uint256 requestedAt;\r\n    }\r\n    \r\n    struct Ride {\r\n        uint256 id;\r\n        uint256 driverId;\r\n        address driverWalletAddress;\r\n        string startLocation;\r\n        string destination;\r\n        uint8 availableSeats;\r\n        uint256 price; // In wei per passenger\r\n        string status; // \"active\", \"in_progress\", \"completed\", \"cancelled\"\r\n        uint256 createdAt;\r\n        uint256 departureTime; // Unix timestamp\r\n        uint256[] passengerIds;\r\n        uint256[] requestIds;\r\n    }\r\n    \r\n    struct Passenger {\r\n        uint256 id;\r\n        uint256 clientId;\r\n        address clientWalletAddress;\r\n        string status; // \"confirmed\", \"completed\"\r\n        bool paid;\r\n    }\r\n    \r\n    // New struct to return ride details (fixing stack too deep)\r\n    struct RideDetails {\r\n        uint256 id;\r\n        uint256 driverId;\r\n        address driverWalletAddress;\r\n        string startLocation;\r\n        string destination;\r\n        uint8 availableSeats;\r\n        uint256 price;\r\n        string status;\r\n        uint256 createdAt;\r\n        uint256 departureTime;\r\n        uint256[] passengerIds;\r\n        uint256[] requestIds;\r\n    }\r\n    \r\n    // Add a new struct for rating\r\n    struct Rating {\r\n        uint256 id;\r\n        uint256 rideId;\r\n        uint256 driverId;\r\n        uint256 clientId;\r\n        uint8 score; // Rating score from 1-5\r\n        uint256 timestamp;\r\n    }\r\n    \r\n    // Mappings\r\n    mapping(uint256 => Driver) public drivers;\r\n    mapping(address => uint256) public driverAddressToId;\r\n    mapping(uint256 => Client) public clients;\r\n    mapping(address => uint256) public clientAddressToId;\r\n    mapping(uint256 => Ride) public rides;\r\n    mapping(uint256 => Passenger) public passengers;\r\n    mapping(uint256 => RideRequest) public rideRequests;\r\n    \r\n    // Add new mapping to track rides per client\r\n    mapping(uint256 => uint256[]) private clientRides; // clientId => rideIds\r\n    \r\n    // Add mapping for ratings\r\n    mapping(uint256 => Rating) public ratings;\r\n    uint256 private ratingCount = 0;\r\n    \r\n    // Add driver rating tracking\r\n    mapping(uint256 => uint256) private driverTotalRatings; // Total sum of all ratings\r\n    mapping(uint256 => uint256) private driverRatingCount; // Count of ratings received\r\n    \r\n    // Arrays to keep track of all entities\r\n    uint256[] public allDriverIds;\r\n    uint256[] public allClientIds;\r\n    uint256[] public allRideIds;\r\n    uint256[] public allPassengerIds;\r\n    \r\n    // Events\r\n    event DriverRegistered(uint256 indexed driverId, address indexed walletAddress);\r\n    event DriverUpdated(uint256 indexed driverId, address indexed walletAddress);\r\n    event ClientRegistered(uint256 indexed clientId, address indexed walletAddress);\r\n    event ClientUpdated(uint256 indexed clientId, address indexed walletAddress);\r\n    event RideCreated(uint256 indexed rideId, uint256 indexed driverId, uint256 price);\r\n    event RideRequested(uint256 indexed rideId, uint256 indexed clientId, uint256 requestId);\r\n    event RideRequestAccepted(uint256 indexed rideId, uint256 indexed clientId);\r\n    event RideRequestRejected(uint256 indexed rideId, uint256 indexed clientId);\r\n    event RideStarted(uint256 indexed rideId);\r\n    event RideCompleted(uint256 indexed rideId);\r\n    event RideCancelled(uint256 indexed rideId);\r\n    event PaymentReceived(uint256 indexed rideId, uint256 indexed clientId, uint256 amount);\r\n    // New event for ride confirmation by a passenger\r\n    event RideConfirmed(uint256 indexed rideId, uint256 indexed clientId, uint256 amount);\r\n    event RatingSubmitted(uint256 ratingId, uint256 rideId, uint256 driverId, uint256 clientId, uint8 score);\r\n    \r\n    // Modifiers\r\n    modifier onlyDriver(uint256 _driverId) {\r\n        require(driverAddressToId[msg.sender] == _driverId, \"Not authorized\");\r\n        _;\r\n    }\r\n    \r\n    modifier rideExists(uint256 _rideId) {\r\n        require(_rideId > 0 && _rideId < rideIdCounter, \"Ride does not exist\");\r\n        _;\r\n    }\r\n    \r\n    // Driver functions\r\n    function registerDriver(\r\n        string memory _name,\r\n        string memory _email,\r\n        string memory _phone,\r\n        string memory _carModel,\r\n        string memory _licensePlate,\r\n        string memory _carColor\r\n    ) public returns (uint256) {\r\n        require(driverAddressToId[msg.sender] == 0, \"Driver already registered\");\r\n        \r\n        uint256 newDriverId = driverIdCounter++;\r\n        Driver storage newDriver = drivers[newDriverId];\r\n        newDriver.id = newDriverId;\r\n        newDriver.walletAddress = msg.sender;\r\n        newDriver.name = _name;\r\n        newDriver.email = _email;\r\n        newDriver.phone = _phone;\r\n        newDriver.carModel = _carModel;\r\n        newDriver.licensePlate = _licensePlate;\r\n        newDriver.carColor = _carColor;\r\n        newDriver.isActive = true;\r\n        newDriver.timestamp = block.timestamp;\r\n        \r\n        driverAddressToId[msg.sender] = newDriverId;\r\n        allDriverIds.push(newDriverId);\r\n        \r\n        emit DriverRegistered(newDriverId, msg.sender);\r\n        return newDriverId;\r\n    }\r\n    \r\n    // Update driver information\r\n    function updateDriver(\r\n        string memory _name,\r\n        string memory _email,\r\n        string memory _phone,\r\n        string memory _carModel,\r\n        string memory _licensePlate,\r\n        string memory _carColor\r\n    ) public returns (bool) {\r\n        uint256 driverId = driverAddressToId[msg.sender];\r\n        require(driverId > 0, \"Driver not registered\");\r\n        \r\n        Driver storage driver = drivers[driverId];\r\n        require(driver.walletAddress == msg.sender, \"Only driver can update their own profile\");\r\n        \r\n        driver.name = _name;\r\n        driver.email = _email;\r\n        driver.phone = _phone;\r\n        driver.carModel = _carModel;\r\n        driver.licensePlate = _licensePlate;\r\n        driver.carColor = _carColor;\r\n        \r\n        emit DriverUpdated(driverId, msg.sender);\r\n        \r\n        return true;\r\n    }\r\n    \r\n    // Client functions\r\n    function registerClient(\r\n        string memory _name,\r\n        string memory _email,\r\n        string memory _phone\r\n    ) public returns (uint256) {\r\n        require(clientAddressToId[msg.sender] == 0, \"Client already registered\");\r\n        \r\n        uint256 newClientId = clientIdCounter++;\r\n        Client storage newClient = clients[newClientId];\r\n        newClient.id = newClientId;\r\n        newClient.walletAddress = msg.sender;\r\n        newClient.name = _name;\r\n        newClient.email = _email;\r\n        newClient.phone = _phone;\r\n        newClient.isActive = true;\r\n        newClient.timestamp = block.timestamp;\r\n        \r\n        clientAddressToId[msg.sender] = newClientId;\r\n        allClientIds.push(newClientId);\r\n        \r\n        emit ClientRegistered(newClientId, msg.sender);\r\n        return newClientId;\r\n    }\r\n    \r\n    // Update client information\r\n    function updateClient(\r\n        string memory _name,\r\n        string memory _email,\r\n        string memory _phone\r\n    ) public returns (bool) {\r\n        uint256 clientId = clientAddressToId[msg.sender];\r\n        require(clientId > 0, \"Client not registered\");\r\n        \r\n        Client storage client = clients[clientId];\r\n        require(client.walletAddress == msg.sender, \"Only client can update their own profile\");\r\n        \r\n        client.name = _name;\r\n        client.email = _email;\r\n        client.phone = _phone;\r\n        \r\n        // Consider adding a ClientUpdated event here\r\n        emit ClientUpdated(clientId, msg.sender);\r\n        \r\n        return true;\r\n    }\r\n    \r\n    // Ride functions\r\n    function createRide(\r\n        string memory _startLocation,\r\n        string memory _destination,\r\n        uint8 _availableSeats,\r\n        uint256 _price,\r\n        uint256 _departureTime\r\n    ) public returns (uint256) {\r\n        uint256 driverId = driverAddressToId[msg.sender];\r\n        require(driverId > 0, \"Driver not registered\");\r\n        \r\n        uint256 newRideId = rideIdCounter++;\r\n        Ride storage newRide = rides[newRideId];\r\n        newRide.id = newRideId;\r\n        newRide.driverId = driverId;\r\n        newRide.driverWalletAddress = msg.sender;\r\n        newRide.startLocation = _startLocation;\r\n        newRide.destination = _destination;\r\n        newRide.availableSeats = _availableSeats;\r\n        newRide.price = _price;\r\n        newRide.status = \"active\";\r\n        newRide.createdAt = block.timestamp;\r\n        newRide.departureTime = _departureTime;\r\n        \r\n        allRideIds.push(newRideId);\r\n        \r\n        emit RideCreated(newRideId, driverId, _price);\r\n        return newRideId;\r\n    }\r\n    \r\n    function requestRide(uint256 _rideId) public rideExists(_rideId) returns (uint256) {\r\n        uint256 clientId = clientAddressToId[msg.sender];\r\n        require(clientId > 0, \"Client not registered\");\r\n        \r\n        Ride storage ride = rides[_rideId];\r\n        require(bytes(ride.status).length > 0, \"Ride does not exist\");\r\n        require(keccak256(bytes(ride.status)) == keccak256(bytes(\"active\")), \"Ride is not active\");\r\n        require(ride.availableSeats > 0, \"No available seats\");\r\n        \r\n        // Check if client has already requested this ride\r\n        for (uint i = 0; i < ride.requestIds.length; i++) {\r\n            RideRequest storage existingRequest = rideRequests[ride.requestIds[i]];\r\n            if (existingRequest.clientId == clientId) {\r\n                require(\r\n                    keccak256(bytes(existingRequest.status)) == keccak256(bytes(\"rejected\")),\r\n                    \"Already requested or accepted for this ride\"\r\n                );\r\n            }\r\n        }\r\n        \r\n        // Create new request\r\n        uint256 newRequestId = requestIdCounter++;\r\n        RideRequest storage newRequest = rideRequests[newRequestId];\r\n        newRequest.id = newRequestId;\r\n        newRequest.clientId = clientId;\r\n        newRequest.clientWalletAddress = msg.sender;\r\n        newRequest.status = \"pending\";\r\n        newRequest.requestedAt = block.timestamp;\r\n        \r\n        ride.requestIds.push(newRequestId);\r\n        \r\n        emit RideRequested(_rideId, clientId, newRequestId);\r\n        return newRequestId;\r\n    }\r\n    \r\n    function acceptRideRequest(uint256 _rideId, uint256 _requestId) public rideExists(_rideId) {\r\n        Ride storage ride = rides[_rideId];\r\n        require(msg.sender == ride.driverWalletAddress, \"Only ride driver can accept requests\");\r\n        require(keccak256(bytes(ride.status)) == keccak256(bytes(\"active\")), \"Ride is not active\");\r\n        require(ride.availableSeats > 0, \"No available seats\");\r\n        \r\n        RideRequest storage request = rideRequests[_requestId];\r\n        require(keccak256(bytes(request.status)) == keccak256(bytes(\"pending\")), \"Request is not pending\");\r\n        \r\n        // Update request status\r\n        request.status = \"accepted\";\r\n        \r\n        // Create passenger\r\n        uint256 newPassengerId = allPassengerIds.length + 1;\r\n        Passenger storage newPassenger = passengers[newPassengerId];\r\n        newPassenger.id = newPassengerId;\r\n        newPassenger.clientId = request.clientId;\r\n        newPassenger.clientWalletAddress = request.clientWalletAddress;\r\n        newPassenger.status = \"confirmed\";\r\n        newPassenger.paid = false;\r\n        \r\n        ride.passengerIds.push(newPassengerId);\r\n        ride.availableSeats--;\r\n        allPassengerIds.push(newPassengerId);\r\n        \r\n        // Add this ride to the client's rides mapping\r\n        clientRides[request.clientId].push(_rideId);\r\n        \r\n        emit RideRequestAccepted(_rideId, request.clientId);\r\n    }\r\n    \r\n    function rejectRideRequest(uint256 _rideId, uint256 _requestId) public rideExists(_rideId) {\r\n        Ride storage ride = rides[_rideId];\r\n        require(msg.sender == ride.driverWalletAddress, \"Only ride driver can reject requests\");\r\n        \r\n        RideRequest storage request = rideRequests[_requestId];\r\n        require(keccak256(bytes(request.status)) == keccak256(bytes(\"pending\")), \"Request is not pending\");\r\n        \r\n        // Update request status\r\n        request.status = \"rejected\";\r\n        \r\n        emit RideRequestRejected(_rideId, request.clientId);\r\n    }\r\n    \r\n    function startRide(uint256 _rideId) public rideExists(_rideId) {\r\n        Ride storage ride = rides[_rideId];\r\n        require(msg.sender == ride.driverWalletAddress, \"Only ride driver can start the ride\");\r\n        require(keccak256(bytes(ride.status)) == keccak256(bytes(\"active\")), \"Ride is not active\");\r\n        \r\n        ride.status = \"in_progress\";\r\n        \r\n        emit RideStarted(_rideId);\r\n    }\r\n    \r\n    // Modified completeRide: Marks the ride as \"completed\"\r\n    // and the actual fund transfer is handled in confirmRide.\r\n    function completeRide(uint256 _rideId) public rideExists(_rideId) {\r\n        Ride storage ride = rides[_rideId];\r\n        require(msg.sender == ride.driverWalletAddress, \"Only ride driver can complete the ride\");\r\n        require(keccak256(bytes(ride.status)) == keccak256(bytes(\"in_progress\")), \"Ride is not in progress\");\r\n        \r\n        ride.status = \"completed\";\r\n        \r\n        emit RideCompleted(_rideId);\r\n    }\r\n    \r\n    // Confirm ride completion by a passenger.\r\n    // The passenger sends the exact ride price; upon confirmation,\r\n    // the funds are transferred to the driver.\r\n    function confirmRide(uint256 _rideId) public payable rideExists(_rideId) {\r\n        Ride storage ride = rides[_rideId];\r\n        require(keccak256(bytes(ride.status)) == keccak256(bytes(\"completed\")), \"Ride must be completed first\");\r\n        \r\n        // Verify that the sender is a passenger for this ride\r\n        bool isPassenger = false;\r\n        uint256 passengerIdFound;\r\n        for (uint i = 0; i < ride.passengerIds.length; i++) {\r\n            uint256 pid = ride.passengerIds[i];\r\n            Passenger storage passenger = passengers[pid];\r\n            if (passenger.clientWalletAddress == msg.sender) {\r\n                require(!passenger.paid, \"Payment already confirmed\");\r\n                isPassenger = true;\r\n                passengerIdFound = pid;\r\n                break;\r\n            }\r\n        }\r\n        require(isPassenger, \"Caller is not a passenger of this ride\");\r\n        \r\n        // Ensure the correct payment amount is sent (price per passenger)\r\n        require(msg.value == ride.price, \"Incorrect payment amount\");\r\n        \r\n        // Mark the passenger as having confirmed payment\r\n        passengers[passengerIdFound].paid = true;\r\n        passengers[passengerIdFound].status = \"confirmed\";\r\n        \r\n        // Transfer funds to the driver's wallet\r\n        payable(ride.driverWalletAddress).transfer(msg.value);\r\n        \r\n        emit RideConfirmed(_rideId, passengers[passengerIdFound].clientId, ride.price);\r\n    }\r\n    \r\n    // New function: Get detailed ride information as a single struct to avoid stack too deep error.\r\n    function getRideDetails(uint256 _rideId) public view rideExists(_rideId) returns (RideDetails memory) {\r\n        Ride storage ride = rides[_rideId];\r\n        RideDetails memory details = RideDetails({\r\n            id: ride.id,\r\n            driverId: ride.driverId,\r\n            driverWalletAddress: ride.driverWalletAddress,\r\n            startLocation: ride.startLocation,\r\n            destination: ride.destination,\r\n            availableSeats: ride.availableSeats,\r\n            price: ride.price,\r\n            status: ride.status,\r\n            createdAt: ride.createdAt,\r\n            departureTime: ride.departureTime,\r\n            passengerIds: ride.passengerIds,\r\n            requestIds: ride.requestIds\r\n        });\r\n        return details;\r\n    }\r\n    \r\n    function cancelRide(uint256 _rideId) public rideExists(_rideId) {\r\n        Ride storage ride = rides[_rideId];\r\n        require(msg.sender == ride.driverWalletAddress, \"Only ride driver can cancel the ride\");\r\n        require(keccak256(bytes(ride.status)) == keccak256(bytes(\"active\")), \"Ride cannot be cancelled at this stage\");\r\n        \r\n        ride.status = \"cancelled\";\r\n        \r\n        emit RideCancelled(_rideId);\r\n    }\r\n    \r\n    // Getter functions\r\n    function getActiveRides() public view returns (uint256[] memory) {\r\n        uint256[] memory activeRideIds = new uint256[](allRideIds.length);\r\n        uint256 count = 0;\r\n        \r\n        for (uint i = 0; i < allRideIds.length; i++) {\r\n            uint256 rideId = allRideIds[i];\r\n            if (keccak256(bytes(rides[rideId].status)) == keccak256(bytes(\"active\"))) {\r\n                activeRideIds[count] = rideId;\r\n                count++;\r\n            }\r\n        }\r\n        \r\n        uint256[] memory result = new uint256[](count);\r\n        for (uint i = 0; i < count; i++) {\r\n            result[i] = activeRideIds[i];\r\n        }\r\n        \r\n        return result;\r\n    }\r\n    \r\n    function getDriverRides(uint256 _driverId) public view returns (uint256[] memory) {\r\n        uint256[] memory driverRideIds = new uint256[](allRideIds.length);\r\n        uint256 count = 0;\r\n        \r\n        for (uint i = 0; i < allRideIds.length; i++) {\r\n            uint256 rideId = allRideIds[i];\r\n            if (rides[rideId].driverId == _driverId) {\r\n                driverRideIds[count] = rideId;\r\n                count++;\r\n            }\r\n        }\r\n        \r\n        uint256[] memory result = new uint256[](count);\r\n        for (uint i = 0; i < count; i++) {\r\n            result[i] = driverRideIds[i];\r\n        }\r\n        \r\n        return result;\r\n    }\r\n    \r\n    function getRideRequests(uint256 _rideId) public view rideExists(_rideId) returns (uint256[] memory) {\r\n        return rides[_rideId].requestIds;\r\n    }\r\n    \r\n    function getRidePassengers(uint256 _rideId) public view rideExists(_rideId) returns (uint256[] memory) {\r\n        return rides[_rideId].passengerIds;\r\n    }\r\n    \r\n    // Add function to get all rides for a client\r\n    function getClientRides(uint256 _clientId) public view returns (uint256[] memory) {\r\n        return clientRides[_clientId];\r\n    }\r\n    \r\n    function getTotalDrivers() public view returns (uint256) {\r\n        return driverIdCounter - 1;\r\n    }\r\n    \r\n    function getTotalClients() public view returns (uint256) {\r\n        return clientIdCounter - 1;\r\n    }\r\n    \r\n    // Add the rating function\r\n    function rateDriver(uint256 _rideId, uint8 _score) public {\r\n        // Validate the score is between 1 and 5\r\n        require(_score >= 1 && _score <= 5, \"Rating must be between 1 and 5\");\r\n        \r\n        // Get the ride details\r\n        Ride storage ride = rides[_rideId];\r\n        require(ride.id > 0, \"Ride does not exist\");\r\n        require(keccak256(bytes(ride.status)) == keccak256(bytes(\"completed\")), \"Ride must be completed to rate\");\r\n        \r\n        // Get the client ID\r\n        uint256 clientId = clientAddressToId[msg.sender];\r\n        require(clientId > 0, \"Client not registered\");\r\n        \r\n        // Check if client was a passenger on this ride\r\n        bool isPassenger = false;\r\n        for (uint256 i = 0; i < ride.passengerIds.length; i++) {\r\n            Passenger storage passenger = passengers[ride.passengerIds[i]];\r\n            if (passenger.clientId == clientId) {\r\n                isPassenger = true;\r\n                break;\r\n            }\r\n        }\r\n        require(isPassenger, \"Only passengers can rate a ride\");\r\n        \r\n        // Check if client has already rated this ride\r\n        for (uint256 i = 1; i <= ratingCount; i++) {\r\n            if (ratings[i].rideId == _rideId && ratings[i].clientId == clientId) {\r\n                revert(\"You have already rated this ride\");\r\n            }\r\n        }\r\n        \r\n        // Create a new rating\r\n        ratingCount++;\r\n        ratings[ratingCount] = Rating({\r\n            id: ratingCount,\r\n            rideId: _rideId,\r\n            driverId: ride.driverId,\r\n            clientId: clientId,\r\n            score: _score,\r\n            timestamp: block.timestamp\r\n        });\r\n        \r\n        // Update driver's total ratings and count\r\n        driverTotalRatings[ride.driverId] += _score;\r\n        driverRatingCount[ride.driverId]++;\r\n        \r\n        // Emit event\r\n        emit RatingSubmitted(ratingCount, _rideId, ride.driverId, clientId, _score);\r\n    }\r\n    \r\n    // Get average rating for a driver\r\n    function getDriverRating(uint256 _driverId) public view returns (uint256, uint256) {\r\n        require(_driverId > 0, \"Driver ID must be greater than 0\");\r\n        require(drivers[_driverId].id > 0, \"Driver does not exist\");\r\n        \r\n        // If no ratings, return 0\r\n        if (driverRatingCount[_driverId] == 0) {\r\n            return (0, 0);\r\n        }\r\n        \r\n        // Return average rating and count\r\n        return (driverTotalRatings[_driverId], driverRatingCount[_driverId]);\r\n    }\r\n    \r\n    // Get all ratings for a specific driver\r\n    function getDriverRatings(uint256 _driverId) public view returns (uint256[] memory) {\r\n        require(_driverId > 0, \"Driver ID must be greater than 0\");\r\n        \r\n        // Count how many ratings this driver has\r\n        uint256 count = 0;\r\n        for (uint256 i = 1; i <= ratingCount; i++) {\r\n            if (ratings[i].driverId == _driverId) {\r\n                count++;\r\n            }\r\n        }\r\n        \r\n        // Create array of the appropriate size\r\n        uint256[] memory driverRatingIds = new uint256[](count);\r\n        \r\n        // Fill the array\r\n        uint256 index = 0;\r\n        for (uint256 i = 1; i <= ratingCount; i++) {\r\n            if (ratings[i].driverId == _driverId) {\r\n                driverRatingIds[index] = i;\r\n                index++;\r\n            }\r\n        }\r\n        \r\n        return driverRatingIds;\r\n    }\r\n    \r\n    // Get all ratings for a specific ride\r\n    function getRideRatings(uint256 _rideId) public view returns (uint256[] memory) {\r\n        require(_rideId > 0, \"Ride ID must be greater than 0\");\r\n        \r\n        // Count how many ratings this ride has\r\n        uint256 count = 0;\r\n        for (uint256 i = 1; i <= ratingCount; i++) {\r\n            if (ratings[i].rideId == _rideId) {\r\n                count++;\r\n            }\r\n        }\r\n        \r\n        // Create array of the appropriate size\r\n        uint256[] memory rideRatingIds = new uint256[](count);\r\n        \r\n        // Fill the array\r\n        uint256 index = 0;\r\n        for (uint256 i = 1; i <= ratingCount; i++) {\r\n            if (ratings[i].rideId == _rideId) {\r\n                rideRatingIds[index] = i;\r\n                index++;\r\n            }\r\n        }\r\n        \r\n        return rideRatingIds;\r\n    }\r\n}\r\n",
  "sourcePath": "C:\\Users\\user\\Desktop\\mj\\SmartContract\\contracts\\ChainRideContract.sol",
  "compiler": {
    "name": "solc",
    "version": "0.8.17+commit.8df45f5f.Emscripten.clang"
  },
  "schemaVersion": "3.4.16",
  "updatedAt": "2025-04-24T14:44:38.820Z",
  "networkType": "ethereum",
  "devdoc": {
    "kind": "dev",
    "methods": {},
    "version": 1
  },
  "userdoc": {
    "kind": "user",
    "methods": {},
    "version": 1
  }
}