{
  "contractName": "RideAppContract",
  "abi": [
    {
      "anonymous": false,
      "inputs": [
        {
          "indexed": true,
          "internalType": "uint256",
          "name": "clientId",
          "type": "uint256"
        },
        {
          "indexed": true,
          "internalType": "address",
          "name": "walletAddress",
          "type": "address"
        }
      ],
      "name": "ClientRegistered",
      "type": "event"
    },
    {
      "anonymous": false,
      "inputs": [
        {
          "indexed": true,
          "internalType": "uint256",
          "name": "driverId",
          "type": "uint256"
        },
        {
          "indexed": true,
          "internalType": "address",
          "name": "walletAddress",
          "type": "address"
        }
      ],
      "name": "DriverRegistered",
      "type": "event"
    },
    {
      "anonymous": false,
      "inputs": [
        {
          "indexed": true,
          "internalType": "uint256",
          "name": "rideId",
          "type": "uint256"
        },
        {
          "indexed": true,
          "internalType": "uint256",
          "name": "clientId",
          "type": "uint256"
        },
        {
          "indexed": false,
          "internalType": "uint256",
          "name": "amount",
          "type": "uint256"
        }
      ],
      "name": "PaymentReceived",
      "type": "event"
    },
    {
      "anonymous": false,
      "inputs": [
        {
          "indexed": true,
          "internalType": "uint256",
          "name": "rideId",
          "type": "uint256"
        }
      ],
      "name": "RideCancelled",
      "type": "event"
    },
    {
      "anonymous": false,
      "inputs": [
        {
          "indexed": true,
          "internalType": "uint256",
          "name": "rideId",
          "type": "uint256"
        }
      ],
      "name": "RideCompleted",
      "type": "event"
    },
    {
      "anonymous": false,
      "inputs": [
        {
          "indexed": true,
          "internalType": "uint256",
          "name": "rideId",
          "type": "uint256"
        },
        {
          "indexed": true,
          "internalType": "uint256",
          "name": "clientId",
          "type": "uint256"
        },
        {
          "indexed": false,
          "internalType": "uint256",
          "name": "amount",
          "type": "uint256"
        }
      ],
      "name": "RideConfirmed",
      "type": "event"
    },
    {
      "anonymous": false,
      "inputs": [
        {
          "indexed": true,
          "internalType": "uint256",
          "name": "rideId",
          "type": "uint256"
        },
        {
          "indexed": true,
          "internalType": "uint256",
          "name": "driverId",
          "type": "uint256"
        },
        {
          "indexed": false,
          "internalType": "uint256",
          "name": "price",
          "type": "uint256"
        }
      ],
      "name": "RideCreated",
      "type": "event"
    },
    {
      "anonymous": false,
      "inputs": [
        {
          "indexed": true,
          "internalType": "uint256",
          "name": "rideId",
          "type": "uint256"
        },
        {
          "indexed": true,
          "internalType": "uint256",
          "name": "clientId",
          "type": "uint256"
        }
      ],
      "name": "RideRequestAccepted",
      "type": "event"
    },
    {
      "anonymous": false,
      "inputs": [
        {
          "indexed": true,
          "internalType": "uint256",
          "name": "rideId",
          "type": "uint256"
        },
        {
          "indexed": true,
          "internalType": "uint256",
          "name": "clientId",
          "type": "uint256"
        }
      ],
      "name": "RideRequestRejected",
      "type": "event"
    },
    {
      "anonymous": false,
      "inputs": [
        {
          "indexed": true,
          "internalType": "uint256",
          "name": "rideId",
          "type": "uint256"
        },
        {
          "indexed": true,
          "internalType": "uint256",
          "name": "clientId",
          "type": "uint256"
        },
        {
          "indexed": false,
          "internalType": "uint256",
          "name": "requestId",
          "type": "uint256"
        }
      ],
      "name": "RideRequested",
      "type": "event"
    },
    {
      "anonymous": false,
      "inputs": [
        {
          "indexed": true,
          "internalType": "uint256",
          "name": "rideId",
          "type": "uint256"
        }
      ],
      "name": "RideStarted",
      "type": "event"
    },
    {
      "inputs": [
        {
          "internalType": "uint256",
          "name": "",
          "type": "uint256"
        }
      ],
      "name": "allClientIds",
      "outputs": [
        {
          "internalType": "uint256",
          "name": "",
          "type": "uint256"
        }
      ],
      "stateMutability": "view",
      "type": "function",
      "constant": true
    },
    {
      "inputs": [
        {
          "internalType": "uint256",
          "name": "",
          "type": "uint256"
        }
      ],
      "name": "allDriverIds",
      "outputs": [
        {
          "internalType": "uint256",
          "name": "",
          "type": "uint256"
        }
      ],
      "stateMutability": "view",
      "type": "function",
      "constant": true
    },
    {
      "inputs": [
        {
          "internalType": "uint256",
          "name": "",
          "type": "uint256"
        }
      ],
      "name": "allPassengerIds",
      "outputs": [
        {
          "internalType": "uint256",
          "name": "",
          "type": "uint256"
        }
      ],
      "stateMutability": "view",
      "type": "function",
      "constant": true
    },
    {
      "inputs": [
        {
          "internalType": "uint256",
          "name": "",
          "type": "uint256"
        }
      ],
      "name": "allRideIds",
      "outputs": [
        {
          "internalType": "uint256",
          "name": "",
          "type": "uint256"
        }
      ],
      "stateMutability": "view",
      "type": "function",
      "constant": true
    },
    {
      "inputs": [
        {
          "internalType": "address",
          "name": "",
          "type": "address"
        }
      ],
      "name": "clientAddressToId",
      "outputs": [
        {
          "internalType": "uint256",
          "name": "",
          "type": "uint256"
        }
      ],
      "stateMutability": "view",
      "type": "function",
      "constant": true
    },
    {
      "inputs": [
        {
          "internalType": "uint256",
          "name": "",
          "type": "uint256"
        }
      ],
      "name": "clients",
      "outputs": [
        {
          "internalType": "uint256",
          "name": "id",
          "type": "uint256"
        },
        {
          "internalType": "address",
          "name": "walletAddress",
          "type": "address"
        },
        {
          "internalType": "string",
          "name": "name",
          "type": "string"
        },
        {
          "internalType": "string",
          "name": "email",
          "type": "string"
        },
        {
          "internalType": "string",
          "name": "phone",
          "type": "string"
        },
        {
          "internalType": "bool",
          "name": "isActive",
          "type": "bool"
        },
        {
          "internalType": "uint256",
          "name": "timestamp",
          "type": "uint256"
        }
      ],
      "stateMutability": "view",
      "type": "function",
      "constant": true
    },
    {
      "inputs": [
        {
          "internalType": "address",
          "name": "",
          "type": "address"
        }
      ],
      "name": "driverAddressToId",
      "outputs": [
        {
          "internalType": "uint256",
          "name": "",
          "type": "uint256"
        }
      ],
      "stateMutability": "view",
      "type": "function",
      "constant": true
    },
    {
      "inputs": [
        {
          "internalType": "uint256",
          "name": "",
          "type": "uint256"
        }
      ],
      "name": "drivers",
      "outputs": [
        {
          "internalType": "uint256",
          "name": "id",
          "type": "uint256"
        },
        {
          "internalType": "address",
          "name": "walletAddress",
          "type": "address"
        },
        {
          "internalType": "string",
          "name": "name",
          "type": "string"
        },
        {
          "internalType": "string",
          "name": "email",
          "type": "string"
        },
        {
          "internalType": "string",
          "name": "phone",
          "type": "string"
        },
        {
          "internalType": "string",
          "name": "carModel",
          "type": "string"
        },
        {
          "internalType": "string",
          "name": "licensePlate",
          "type": "string"
        },
        {
          "internalType": "string",
          "name": "carColor",
          "type": "string"
        },
        {
          "internalType": "bool",
          "name": "isActive",
          "type": "bool"
        },
        {
          "internalType": "uint256",
          "name": "timestamp",
          "type": "uint256"
        }
      ],
      "stateMutability": "view",
      "type": "function",
      "constant": true
    },
    {
      "inputs": [
        {
          "internalType": "uint256",
          "name": "",
          "type": "uint256"
        }
      ],
      "name": "passengers",
      "outputs": [
        {
          "internalType": "uint256",
          "name": "id",
          "type": "uint256"
        },
        {
          "internalType": "uint256",
          "name": "clientId",
          "type": "uint256"
        },
        {
          "internalType": "address",
          "name": "clientWalletAddress",
          "type": "address"
        },
        {
          "internalType": "string",
          "name": "status",
          "type": "string"
        },
        {
          "internalType": "bool",
          "name": "paid",
          "type": "bool"
        }
      ],
      "stateMutability": "view",
      "type": "function",
      "constant": true
    },
    {
      "inputs": [
        {
          "internalType": "uint256",
          "name": "",
          "type": "uint256"
        }
      ],
      "name": "rideRequests",
      "outputs": [
        {
          "internalType": "uint256",
          "name": "id",
          "type": "uint256"
        },
        {
          "internalType": "uint256",
          "name": "clientId",
          "type": "uint256"
        },
        {
          "internalType": "address",
          "name": "clientWalletAddress",
          "type": "address"
        },
        {
          "internalType": "string",
          "name": "status",
          "type": "string"
        },
        {
          "internalType": "uint256",
          "name": "requestedAt",
          "type": "uint256"
        }
      ],
      "stateMutability": "view",
      "type": "function",
      "constant": true
    },
    {
      "inputs": [
        {
          "internalType": "uint256",
          "name": "",
          "type": "uint256"
        }
      ],
      "name": "rides",
      "outputs": [
        {
          "internalType": "uint256",
          "name": "id",
          "type": "uint256"
        },
        {
          "internalType": "uint256",
          "name": "driverId",
          "type": "uint256"
        },
        {
          "internalType": "address",
          "name": "driverWalletAddress",
          "type": "address"
        },
        {
          "internalType": "string",
          "name": "startLocation",
          "type": "string"
        },
        {
          "internalType": "string",
          "name": "destination",
          "type": "string"
        },
        {
          "internalType": "uint8",
          "name": "availableSeats",
          "type": "uint8"
        },
        {
          "internalType": "uint256",
          "name": "price",
          "type": "uint256"
        },
        {
          "internalType": "string",
          "name": "status",
          "type": "string"
        },
        {
          "internalType": "uint256",
          "name": "createdAt",
          "type": "uint256"
        },
        {
          "internalType": "uint256",
          "name": "departureTime",
          "type": "uint256"
        }
      ],
      "stateMutability": "view",
      "type": "function",
      "constant": true
    },
    {
      "inputs": [
        {
          "internalType": "string",
          "name": "_name",
          "type": "string"
        },
        {
          "internalType": "string",
          "name": "_email",
          "type": "string"
        },
        {
          "internalType": "string",
          "name": "_phone",
          "type": "string"
        },
        {
          "internalType": "string",
          "name": "_carModel",
          "type": "string"
        },
        {
          "internalType": "string",
          "name": "_licensePlate",
          "type": "string"
        },
        {
          "internalType": "string",
          "name": "_carColor",
          "type": "string"
        }
      ],
      "name": "registerDriver",
      "outputs": [
        {
          "internalType": "uint256",
          "name": "",
          "type": "uint256"
        }
      ],
      "stateMutability": "nonpayable",
      "type": "function"
    },
    {
      "inputs": [
        {
          "internalType": "string",
          "name": "_name",
          "type": "string"
        },
        {
          "internalType": "string",
          "name": "_email",
          "type": "string"
        },
        {
          "internalType": "string",
          "name": "_phone",
          "type": "string"
        }
      ],
      "name": "registerClient",
      "outputs": [
        {
          "internalType": "uint256",
          "name": "",
          "type": "uint256"
        }
      ],
      "stateMutability": "nonpayable",
      "type": "function"
    },
    {
      "inputs": [
        {
          "internalType": "string",
          "name": "_startLocation",
          "type": "string"
        },
        {
          "internalType": "string",
          "name": "_destination",
          "type": "string"
        },
        {
          "internalType": "uint8",
          "name": "_availableSeats",
          "type": "uint8"
        },
        {
          "internalType": "uint256",
          "name": "_price",
          "type": "uint256"
        },
        {
          "internalType": "uint256",
          "name": "_departureTime",
          "type": "uint256"
        }
      ],
      "name": "createRide",
      "outputs": [
        {
          "internalType": "uint256",
          "name": "",
          "type": "uint256"
        }
      ],
      "stateMutability": "nonpayable",
      "type": "function"
    },
    {
      "inputs": [
        {
          "internalType": "uint256",
          "name": "_rideId",
          "type": "uint256"
        }
      ],
      "name": "requestRide",
      "outputs": [
        {
          "internalType": "uint256",
          "name": "",
          "type": "uint256"
        }
      ],
      "stateMutability": "nonpayable",
      "type": "function"
    },
    {
      "inputs": [
        {
          "internalType": "uint256",
          "name": "_rideId",
          "type": "uint256"
        },
        {
          "internalType": "uint256",
          "name": "_requestId",
          "type": "uint256"
        }
      ],
      "name": "acceptRideRequest",
      "outputs": [],
      "stateMutability": "nonpayable",
      "type": "function"
    },
    {
      "inputs": [
        {
          "internalType": "uint256",
          "name": "_rideId",
          "type": "uint256"
        },
        {
          "internalType": "uint256",
          "name": "_requestId",
          "type": "uint256"
        }
      ],
      "name": "rejectRideRequest",
      "outputs": [],
      "stateMutability": "nonpayable",
      "type": "function"
    },
    {
      "inputs": [
        {
          "internalType": "uint256",
          "name": "_rideId",
          "type": "uint256"
        }
      ],
      "name": "startRide",
      "outputs": [],
      "stateMutability": "nonpayable",
      "type": "function"
    },
    {
      "inputs": [
        {
          "internalType": "uint256",
          "name": "_rideId",
          "type": "uint256"
        }
      ],
      "name": "completeRide",
      "outputs": [],
      "stateMutability": "nonpayable",
      "type": "function"
    },
    {
      "inputs": [
        {
          "internalType": "uint256",
          "name": "_rideId",
          "type": "uint256"
        }
      ],
      "name": "confirmRide",
      "outputs": [],
      "stateMutability": "payable",
      "type": "function",
      "payable": true
    },
    {
      "inputs": [
        {
          "internalType": "uint256",
          "name": "_rideId",
          "type": "uint256"
        }
      ],
      "name": "getRideDetails",
      "outputs": [
        {
          "components": [
            {
              "internalType": "uint256",
              "name": "id",
              "type": "uint256"
            },
            {
              "internalType": "uint256",
              "name": "driverId",
              "type": "uint256"
            },
            {
              "internalType": "address",
              "name": "driverWalletAddress",
              "type": "address"
            },
            {
              "internalType": "string",
              "name": "startLocation",
              "type": "string"
            },
            {
              "internalType": "string",
              "name": "destination",
              "type": "string"
            },
            {
              "internalType": "uint8",
              "name": "availableSeats",
              "type": "uint8"
            },
            {
              "internalType": "uint256",
              "name": "price",
              "type": "uint256"
            },
            {
              "internalType": "string",
              "name": "status",
              "type": "string"
            },
            {
              "internalType": "uint256",
              "name": "createdAt",
              "type": "uint256"
            },
            {
              "internalType": "uint256",
              "name": "departureTime",
              "type": "uint256"
            },
            {
              "internalType": "uint256[]",
              "name": "passengerIds",
              "type": "uint256[]"
            },
            {
              "internalType": "uint256[]",
              "name": "requestIds",
              "type": "uint256[]"
            }
          ],
          "internalType": "struct RideAppContract.RideDetails",
          "name": "",
          "type": "tuple"
        }
      ],
      "stateMutability": "view",
      "type": "function",
      "constant": true
    },
    {
      "inputs": [
        {
          "internalType": "uint256",
          "name": "_rideId",
          "type": "uint256"
        }
      ],
      "name": "cancelRide",
      "outputs": [],
      "stateMutability": "nonpayable",
      "type": "function"
    },
    {
      "inputs": [],
      "name": "getActiveRides",
      "outputs": [
        {
          "internalType": "uint256[]",
          "name": "",
          "type": "uint256[]"
        }
      ],
      "stateMutability": "view",
      "type": "function",
      "constant": true
    },
    {
      "inputs": [
        {
          "internalType": "uint256",
          "name": "_driverId",
          "type": "uint256"
        }
      ],
      "name": "getDriverRides",
      "outputs": [
        {
          "internalType": "uint256[]",
          "name": "",
          "type": "uint256[]"
        }
      ],
      "stateMutability": "view",
      "type": "function",
      "constant": true
    },
    {
      "inputs": [
        {
          "internalType": "uint256",
          "name": "_rideId",
          "type": "uint256"
        }
      ],
      "name": "getRideRequests",
      "outputs": [
        {
          "internalType": "uint256[]",
          "name": "",
          "type": "uint256[]"
        }
      ],
      "stateMutability": "view",
      "type": "function",
      "constant": true
    },
    {
      "inputs": [
        {
          "internalType": "uint256",
          "name": "_rideId",
          "type": "uint256"
        }
      ],
      "name": "getRidePassengers",
      "outputs": [
        {
          "internalType": "uint256[]",
          "name": "",
          "type": "uint256[]"
        }
      ],
      "stateMutability": "view",
      "type": "function",
      "constant": true
    },
    {
      "inputs": [
        {
          "internalType": "uint256",
          "name": "_clientId",
          "type": "uint256"
        }
      ],
      "name": "getClientRides",
      "outputs": [
        {
          "internalType": "uint256[]",
          "name": "",
          "type": "uint256[]"
        }
      ],
      "stateMutability": "view",
      "type": "function",
      "constant": true
    },
    {
      "inputs": [],
      "name": "getTotalDrivers",
      "outputs": [
        {
          "internalType": "uint256",
          "name": "",
          "type": "uint256"
        }
      ],
      "stateMutability": "view",
      "type": "function",
      "constant": true
    },
    {
      "inputs": [],
      "name": "getTotalClients",
      "outputs": [
        {
          "internalType": "uint256",
          "name": "",
          "type": "uint256"
        }
      ],
      "stateMutability": "view",
      "type": "function",
      "constant": true
    }
  ],
  "bytecode": "0x6080806040523461002a576001806000558080558060025580600355600455612d9690816100308239f35b600080fdfe6080604052600436101561001257600080fd5b60003560e01c80630dcc2fb7146127435780630e66200a146126f257806315c56c32146126a15780631d6be93c1461245e578063357da7ce146121f95780634dc2b360146120d15780635205f11214611fd85780635fde932d14611fad5780636f68f54414611f205780637105382d14611edf57806373c3397514611e8e5780637888cd1c14611e425780639327b07714611bab57806396427c9414611b7f5780639e3fa06b14611b41578063a6c02cb71461182d578063a6f07b29146116c0578063abd7a04314611682578063b229f36014610f86578063bcc601ab14610f05578063c416dd0b14610d6f578063d057e92614610d1e578063d49f2235146108fe578063dc712974146105fd578063df04320d14610535578063e9c14b1e14610410578063f34dc396146103b4578063f79e54501461023e5763f88af21d1461015b57600080fd5b346102395760203660031901126102395760043560005260076020526040600020805460018060a01b03600183015416916040516101a7816101a0816002860161296a565b0382612a37565b6102286040516101be816101a0816003880161296a565b61021a604051916101dd836101d68160048a0161296a565b0384612a37565b61020c600660ff60058901541697015495604051998a998a5260208a015260e060408a015260e08901906128a6565b9087820360608901526128a6565b9085820360808701526128a6565b91151560a084015260c08301520390f35b600080fd5b3461023957602036600319011261023957600435600052600560205260406000208054600160a01b6001900360018301541691604051808060028401906102849161296a565b0361028f9082612a37565b604051806102a0816003860161296a565b036102ab9082612a37565b604051806102bc816004870161296a565b036102c79082612a37565b604051806102d8816005880161296a565b036102e39082612a37565b60405191826102f5816006890161296a565b036103009084612a37565b60405193846103128160078a0161296a565b0361031d9086612a37565b600887015460ff16966009015495604051998a998a5260208a01526101408060408b0152890161034c916128a6565b88810360608a015261035d916128a6565b878103608089015261036e916128a6565b86810360a088015261037f916128a6565b85810360c0870152610390916128a6565b84810360e08601526103a1916128a6565b9115156101008401526101208301520390f35b346102395760203660031901126102395760043580151580610405575b6103da90612b66565b60005260096020526104016103f5600b604060002001612cb4565b6040519182918261281c565b0390f35b5060025481106103d1565b34610239576020366003190112610239576004358015158061052a575b61043690612b66565b600081815260096020526040902060028101546001600160a01b031633036104d95760070161048b60405161046f816101a0818661296a565b6020815191012061047e612ba8565b6020815191012014612bca565b61049e6104988254612930565b82612ad4565b60166a696e5f70726f677265737360a81b0190557f1caef5aba80487f3eb64526a934f8250dd2591d249cd4f14756041c0ff93607d600080a2005b60405162461bcd60e51b815260206004820152602360248201527f4f6e6c792072696465206472697665722063616e20737461727420746865207260448201526269646560e81b6064820152608490fd5b50600254811061042d565b346102395760208060031936011261023957600435600f5461055681612d1a565b9260009260005b8381106105ac57858561056f81612d1a565b9160005b8281106105885760405180610401868261281c565b806105966105a79284612d4c565b516105a18287612d4c565b52612aae565b610573565b6105b581612857565b90549060031b1c806000526009845282600160406000200154146105e3575b506105de90612aae565b61055d565b856105f6916105a16105de94988a612d4c565b94906105d4565b60208060031936011261023957600435801515806108f3575b61061f90612b66565b80600052600982526040600020917f6216ba39af4188a6d7c765710d7e6075007c3444b59a22a973d1b958c43e60bb604051610662816101a0816007890161296a565b8281519101206818dbdb5c1b195d195960ba1b8360405161068281612a1c565b600981520152036108af57600090600091600090600a918287018054915b828110610809575b505050156107b5576006850194855434036107705760008080809387825285875260046040832001600160ff19825416179055600360408320016106ef6104988254612930565b60126818dbdb999a5c9b595960ba1b0190556002015481906001600160a01b03163415610766575b3491f11561075a577f6c262599b9b600d914b2baf0a565cd17a5e93d35ebd1bdfd8dfb2fda717ee6909260005281526001604060002001549354604051908152a3005b6040513d6000823e3d90fd5b6108fc9150610717565b60405162461bcd60e51b815260048101849052601860248201527f496e636f7272656374207061796d656e7420616d6f756e7400000000000000006044820152606490fd5b60405162461bcd60e51b815260048101839052602660248201527f43616c6c6572206973206e6f7420612070617373656e676572206f662074686960448201526573207269646560d01b6064820152608490fd5b610813818361288e565b905460039190911b1c60008181528688526040902060028101546001600160a01b0316331461084c57505061084790612aae565b6106a0565b925096505060ff92506004915001541661086a5760018680806106a8565b60405162461bcd60e51b815260048101839052601960248201527f5061796d656e7420616c726561647920636f6e6669726d6564000000000000006044820152606490fd5b6064906040519062461bcd60e51b82526004820152601c60248201527f52696465206d75737420626520636f6d706c65746564206669727374000000006044820152fd5b506002548110610616565b34610239576060366003190112610239576001600160401b036004358181116102395761092f903690600401612a58565b9060249081358181116102395761094a903690600401612a58565b9160443582811161023957610963903690600401612a58565b933360005260209460088652604060002054610cda5760019384549561098887612aae565b86558660005260078852604060002093878555868501336001600160601b0360a01b8254161790556002850190805190848211610cc55781906109d5826109cf8654612930565b86612afe565b8b90601f8311600114610c6057600092610c55575b5050600019600383901b1c191690881b1790555b80516003850191838211610c40578190610a1c826109cf8654612930565b8a90601f8311600114610bdd57600092610bd2575b5050600019600383901b1c191690871b1790555b60048301918051918211610bbd578190610a63826109cf8654612930565b8890601f8311600114610b5a57600092610b4f575b5050600019600383901b1c191690851b1790555b600581018360ff19825416179055600642910155336000526008845282604060002055600e5491600160401b831015610b3a57820180600e55821015610b2657508190600e6000527fbb7b4a454dc3493923482f07822329ed19e8244eff582cc204f8554c3620c3fd01556040519033817fb815407d18c4a13f23f5714a7f46938648fb7ddc53c75387904f727c348807c3600080a38152f35b634e487b7160e01b60009081526032600452fd5b50634e487b7160e01b60009081526041600452fd5b015190508880610a78565b90879350601f19831691856000528a6000209260005b8c828210610ba75750508411610b8e575b505050811b019055610a8c565b015160001960f88460031b161c19169055888080610b81565b8385015186558b97909501949384019301610b70565b84634e487b7160e01b60005260416004526000fd5b015190508a80610a31565b60008581528c81208b9550929190601f198516908e5b828210610c295750508411610c10575b505050811b019055610a45565b015160001960f88460031b161c191690558a8080610c03565b8385015186558d979095019493840193018e610bf3565b86634e487b7160e01b60005260416004526000fd5b015190508b806109ea565b60008581528d81208c9550929190601f198516908f5b828210610cac5750508411610c93575b505050811b0190556109fe565b015160001960f88460031b161c191690558b8080610c86565b8484015186558e97909501949384019390810190610c76565b87634e487b7160e01b60005260416004526000fd5b60405162461bcd60e51b8152600481018790526019818501527f436c69656e7420616c72656164792072656769737465726564000000000000006044820152606490fd5b3461023957602036600319011261023957600435600d5481101561023957602090600d6000527fd7b6990105719101dabeb77144f2a3385c8033acd3af97e9423a695e81ad1eb50154604051908152f35b3461023957602080600319360112610239576004359081151580610efa575b610d9790612b66565b6000828152600982526040902060028101546001600160a01b03163303610ea657600701907f811bb47290dc5d06c2e8c789859ec3d72ae47eaad91ae49a85546d47499a83bb604051610dee816101a0818761296a565b8281519101206a696e5f70726f677265737360a81b83604051610e1081612a1c565b600b8152015203610e625750610e296104988254612930565b60126818dbdb5c1b195d195960ba1b0190557f63e5b4bf8bc6c9cf867e6cc4d53f654c1f0365d975100e04129de6383f8c4b23600080a2005b6064906040519062461bcd60e51b82526004820152601760248201527f52696465206973206e6f7420696e2070726f67726573730000000000000000006044820152fd5b60405162461bcd60e51b815260048101839052602660248201527f4f6e6c792072696465206472697665722063616e20636f6d706c65746520746860448201526565207269646560d01b6064820152608490fd5b506002548210610d8e565b3461023957602036600319011261023957600435600052600b60205260406000208054600182015491610f7c60018060a01b0360028301541691600460405191610f56836101d6816003850161296a565b01549260405195869586526020860152604085015260a0606085015260a08401906128a6565b9060808301520390f35b346102395760c0366003190112610239576004356001600160401b03811161023957610fb6903690600401612a58565b6024356001600160401b03811161023957610fd5903690600401612a58565b6044356001600160401b03811161023957610ff4903690600401612a58565b916064356001600160401b03811161023957611014903690600401612a58565b6084356001600160401b03811161023957611033903690600401612a58565b9060a4356001600160401b03811161023957611053903690600401612a58565b9433600052600660205260406000205461163d576000549461107486612aae565b60005585600052600560205260406000209486865560018601336001600160601b0360a01b82541617905580516001600160401b03811161135d578060028801926110c3826109cf8654612930565b602090601f83116001146115d7576000926115cc575b50508160011b916000199060031b1c19161790555b8051906001600160401b03821161135d57819061111b8261111260038a0154612930565b60038a01612afe565b602090601f831160011461155a5760009261154f575b50508160011b916000199060031b1c19161760038501555b8051906001600160401b03821161135d5781906111768261116d6004890154612930565b60048901612afe565b602090601f83116001146114dd576000926114d2575b50508160011b916000199060031b1c19161760048401555b8051906001600160401b03821161135d5781906111d1826111c86005880154612930565b60058801612afe565b602090601f831160011461146057600092611455575b50508160011b916000199060031b1c19161760058301555b805160068301916001600160401b03821161135d578190611224826109cf8654612930565b602090601f83116001146113ef576000926113e4575b50508160011b916000199060031b1c19161790555b6007810183516001600160401b03811161135d57611277816112718454612930565b84612afe565b602094601f821160011461137e57948192939495600092611373575b50508160011b916000199060031b1c19161790555b60088101600160ff1982541617905560094291015533600052600660205280604060002055600d5490600160401b82101561135d576001820180600d558210156113475780602092600d6000527fd7b6990105719101dabeb77144f2a3385c8033acd3af97e9423a695e81ad1eb501556040519033817f03768fcb79c5ffec4cc22b1b43cb225560120424fbe39d80480e5819a5c897d5600080a38152f35b634e487b7160e01b600052603260045260246000fd5b634e487b7160e01b600052604160045260246000fd5b015190508580611293565b601f198216958360005260206000209160005b8881106113cc575083600195969798106113b3575b505050811b0190556112a8565b015160001960f88460031b161c191690558580806113a6565b91926020600181928685015181550194019201611391565b01519050868061123a565b6000858152602081209350601f198516905b81811061143d5750908460019594939210611424575b505050811b01905561124f565b015160001960f88460031b161c19169055868080611417565b92936020600181928786015181550195019301611401565b0151905086806111e7565b9250600585016000526020600020906000935b601f19841685106114b7576001945083601f1981161061149e575b505050811b0160058301556111ff565b015160001960f88460031b161c1916905586808061148e565b81810151835560209485019460019093019290910190611473565b01519050878061118c565b9250600486016000526020600020906000935b601f1984168510611534576001945083601f1981161061151b575b505050811b0160048401556111a4565b015160001960f88460031b161c1916905587808061150b565b818101518355602094850194600190930192909101906114f0565b015190508880611131565b9250600387016000526020600020906000935b601f19841685106115b1576001945083601f19811610611598575b505050811b016003850155611149565b015160001960f88460031b161c19169055888080611588565b8181015183556020948501946001909301929091019061156d565b015190508a806110d9565b6000858152602081209350601f198516905b818110611625575090846001959493921061160c575b505050811b0190556110ee565b015160001960f88460031b161c191690558a80806115ff565b929360206001819287860151815501950193016115e9565b60405162461bcd60e51b815260206004820152601960248201527f44726976657220616c72656164792072656769737465726564000000000000006044820152606490fd5b34610239576020366003190112610239576004356001600160a01b038116908190036102395760005260066020526020604060002054604051908152f35b3461023957602080600319360112610239576004359081151580611822575b6116e890612b66565b6000828152600982526040902060028101546001600160a01b031633036117d1576007019060405161171e816101a0818661296a565b81815191012061172c612ba8565b8281519101200361177e57506117456104988254612930565b60126818d85b98d95b1b195960ba1b0190557f0c23eb44b06124e00526761c3c77095fc814bb72c9be3ac1e58f0bc2ebfe4f7e600080a2005b6084906040519062461bcd60e51b82526004820152602660248201527f526964652063616e6e6f742062652063616e63656c6c6564206174207468697360448201526520737461676560d01b6064820152fd5b60405162461bcd60e51b8152600481018390526024808201527f4f6e6c792072696465206472697665722063616e2063616e63656c20746865206044820152637269646560e01b6064820152608490fd5b5060025482106116df565b346102395760a0366003190112610239576001600160401b036004358181116102395761185e903690600401612a58565b60243582811161023957611876903690600401612a58565b906044359060ff821680920361023957606435903360005260209460068652604060002054938415611b0457600254956118af87612aae565b6002558660005260098852604060002092878455600194878686015560028501336001600160601b0360a01b825416179055600385019080519083821161135d578190611900826109cf8654612930565b8c908d601f8411600114611a9e5750600092611a93575b5050600019600383901b1c191690871b1790555b6004840191805191821161135d578190611949826109cf8654612930565b8a90601f8311600114611a3057600092611a25575b5050600019600383901b1c191690851b1790555b600582019060ff19825416179055826006820155600781016119976104988254612930565b600c6561637469766560d01b019055426008820155608435600990910155600f54600160401b81101561135d578492611a16846119fb847f47854699debaa81148943c9053c71212f14c1208daf63d7c1246d59f462d39b8968b9601600f55612857565b90919082549060031b600019811b9283911b16911916179055565b604051908152a3604051908152f35b015190508a8061195e565b60008581528c8120899550929190601f198516908e5b828210611a7c5750508411611a63575b505050811b019055611972565b015160001960f88460031b161c191690558a8080611a56565b8385015186558b979095019493840193018e611a46565b015190508c80611917565b91908a9450601f1984168660005283600020936000905b828210611aeb5750508411611ad2575b505050811b01905561192b565b015160001960f88460031b161c191690558c8080611ac5565b8484015186558d97909501949384019390810190611ab5565b60405162461bcd60e51b8152600481018890526015602482015274111c9a5d995c881b9bdd081c9959da5cdd195c9959605a1b6044820152606490fd5b34610239576020366003190112610239576004356001600160a01b038116908190036102395760005260086020526020604060002054604051908152f35b3461023957602036600319011261023957600435600052600c6020526104016103f56040600020612cb4565b34610239576020806003193601126102395760043580151580611e37575b611bd290612b66565b33600052600890818352604060002054908115611dfa5780600052600984526040600020611c3d6101a0611c2360078401611c17611c108254612930565b1515612b66565b6040519283809261296a565b868151910120611c31612ba8565b87815191012014612bca565b611c4f60ff6005830154161515612c0b565b6000600b809201948554915b828110611d0257505050611cd190600354948591611c7883612aae565b600355826000528752604060002082815585600182015560028101336001600160601b0360a01b82541617905560038101611cb66104988254612930565b600e6670656e64696e6760c81b019055600442910155612b43565b7f1881520d43a4abcbf6b1e33d26324b40ca34534a8d209735a9f0c50930c52c5684604051858152a3604051908152f35b611d0c818861288e565b9054600391821b1c600052848952604060002087600182015414611d3b575b5050611d3690612aae565b611c5b565b90611d717f5e679716a01be890d854f2c1c5cb5336603215e65ff238044a5b11c586f61c1d926101a0604051809481930161296a565b898151910120671c995a9958dd195960c21b8a604051611d9081612a1c565b868152015203611da1578880611d2b565b60405162461bcd60e51b815260048101899052602b60248201527f416c726561647920726571756573746564206f7220616363657074656420666f60448201526a722074686973207269646560a81b6064820152608490fd5b60405162461bcd60e51b815260048101859052601560248201527410db1a595b9d081b9bdd081c9959da5cdd195c9959605a1b6044820152606490fd5b506002548110611bc9565b346102395760203660031901126102395760043580151580611e83575b611e6890612b66565b60005260096020526104016103f5600a604060002001612cb4565b506002548110611e5f565b3461023957602036600319011261023957600435600f5481101561023957602090600f6000527f8d1108e10bcb7c27dddfc02ed9d693a074039d026cf4ea4240b40f7d581ac8020154604051908152f35b34610239576000366003190112610239576001546000198101908111611f0a57602090604051908152f35b634e487b7160e01b600052601160045260246000fd5b3461023957602036600319011261023957600435600052600a60205260406000208054600182015491611fa160018060a01b036002830154169160ff600460405192611f7a84611f73816003850161296a565b0385612a37565b0154169260405195869586526020860152604085015260a0606085015260a08401906128a6565b90151560808301520390f35b34610239576000366003190112610239576000546000198101908111611f0a57602090604051908152f35b346102395760203660031901126102395760043560005260096020526040600020805460018201549160018060a01b036002820154166120c0604051612025816101a0816003880161296a565b60076040519161203c836101d68160048a0161296a565b6120a860ff6005880154169361209a60068901549361206c8a612065604051809981930161296a565b0387612a37565b600960088b01549a0154986040519c8d9c8d5260208d015260408c01526101408060608d01528b01906128a6565b9089820360808b01526128a6565b9260a088015260c087015285820360e08701526128a6565b916101008401526101208301520390f35b34610239576120df3661291a565b811515806121ee575b6120f190612b66565b6000828152600960205260409020600201546001600160a01b0316330361219d57600052600b6020526001604060002060038101612155604051612139816101a0818661296a565b60208151910120612148612c4c565b6020815191012014612c6f565b6121626104988254612930565b6010671c995a9958dd195960c21b0190550154907f0a1ce47c0d142a211224f14ace0b39665b53f1d56cbd182f954b8e22848c69a2600080a3005b60405162461bcd60e51b8152602060048201526024808201527f4f6e6c792072696465206472697665722063616e2072656a65637420726571756044820152636573747360e01b6064820152608490fd5b5060025482106120e8565b34610239576122073661291a565b81151580612453575b61221990612b66565b816000526020906009825260406000209160018060a01b039182600285015416330361240257612270604051612256816101a08160078a0161296a565b838151910120612264612ba8565b84815191012014612bca565b600584019061228460ff8354161515612c0b565b600052600b8252604060002093600385016122c36040516122a9816101a0818661296a565b8581519101206122b7612c4c565b86815191012014612c6f565b6122d06104988254612930565b6010671858d8d95c1d195960c21b0190556010546001810194908510611f0a5784600a60046123669383600052828852604060002090848255600260018c019b8c54600185015501541660028201906001600160601b0360a01b825416179055600381016123416104988254612930565b60126818dbdb999a5c9b595960ba1b01905501805460ff199081169091559301612b43565b81549060ff82168015611f0a5760ff906000190116911617905560105491600160401b83101561135d57600183018060105583101561134757600c927f1b6847dc741a1b0cd08d278845f9d819d87b734759afb55fe2de5cb82a9ae67201558254600052526123d9826040600020612b43565b54907f067e1786bd0858ab9be9533ab851d1644f8a9af317edea0b985ae2708c446571600080a3005b60405162461bcd60e51b8152600481018390526024808201527f4f6e6c792072696465206472697665722063616e2061636365707420726571756044820152636573747360e01b6064820152608490fd5b506002548210612210565b3461023957602036600319011261023957600435606061016060405161248381612a00565b6000815260006020820152600060408201528280820152826080820152600060a0820152600060c08201528260e08201526000610100820152600061012082015282610140820152015280151580612696575b6124df90612b66565b600052600960205261040160406000206125b5600b825492600181015460018060a01b0360028301541660ff600584015416600684015490600885015492600986015494604051996125308b612a00565b8a5260208a01526040890152604051612550816101a08160038a0161296a565b6060890152604051612569816101a08160048a0161296a565b608089015260a088015260c087015260405161258c816101a0816007880161296a565b60e08701526101008601526101208501526125a9600a8201612cb4565b61014085015201612cb4565b61016082015260405191829160208352805160208401526020810151604084015260018060a01b03604082015116606084015261016061268161265361262561260f606086015161018060808a01526101a08901906128a6565b6080860151888203601f190160a08a01526128a6565b60ff60a08601511660c088015260c085015160e088015260e0850151601f19888303016101008901526128a6565b610100840151610120870152610120840151610140870152610140840151601f1987830301848801526128e6565b910151838203601f19016101808501526128e6565b5060025481106124d6565b34610239576020366003190112610239576004356010548110156102395760209060106000527f1b6847dc741a1b0cd08d278845f9d819d87b734759afb55fe2de5cb82a9ae6720154604051908152f35b3461023957602036600319011261023957600435600e5481101561023957602090600e6000527fbb7b4a454dc3493923482f07822329ed19e8244eff582cc204f8554c3620c3fd0154604051908152f35b3461023957600036600319011261023957600f5461276081612d1a565b9060009060005b8181106127a557505061277981612d1a565b9160005b8281106127925760405180610401868261281c565b806105966127a09284612d4c565b61277d565b6127ae81612857565b90549060031b1c806000526020600981526101a06127d960076040600020016040519283809261296a565b818151910120906127e8612ba8565b805191012014612802575b506127fd90612aae565b612767565b83612815916105a16127fd949688612d4c565b92906127f3565b6020908160408183019282815285518094520193019160005b828110612843575050505090565b835185529381019392810192600101612835565b600f5481101561134757600f6000527f8d1108e10bcb7c27dddfc02ed9d693a074039d026cf4ea4240b40f7d581ac8020190600090565b80548210156113475760005260206000200190600090565b919082519283825260005b8481106128d2575050826000602080949584010152601f8019910116010190565b6020818301810151848301820152016128b1565b90815180825260208080930193019160005b828110612906575050505090565b8351855293810193928101926001016128f8565b6040906003190112610239576004359060243590565b90600182811c92168015612960575b602083101461294a57565b634e487b7160e01b600052602260045260246000fd5b91607f169161293f565b906000929180549161297b83612930565b9182825260019384811690816000146129dd575060011461299d575b50505050565b90919394506000526020928360002092846000945b8386106129c9575050505001019038808080612997565b8054858701830152940193859082016129b2565b9294505050602093945060ff191683830152151560051b01019038808080612997565b61018081019081106001600160401b0382111761135d57604052565b604081019081106001600160401b0382111761135d57604052565b90601f801991011681019081106001600160401b0382111761135d57604052565b81601f82011215610239578035906001600160401b03821161135d5760405192612a8c601f8401601f191660200185612a37565b8284526020838301011161023957816000926020809301838601378301015290565b6000198114611f0a5760010190565b818110612ac8575050565b60008155600101612abd565b90601f8111612ae1575050565b612afc91600052601f6020600020910160051c810190612abd565b565b9190601f8111612b0d57505050565b612afc926000526020600020906020601f840160051c83019310612b39575b601f0160051c0190612abd565b9091508190612b2c565b90815491600160401b83101561135d57826119fb916001612afc9501815561288e565b15612b6d57565b60405162461bcd60e51b8152602060048201526013602482015272149a591948191bd95cc81b9bdd08195e1a5cdd606a1b6044820152606490fd5b60405190612bb582612a1c565b600682526561637469766560d01b6020830152565b15612bd157565b60405162461bcd60e51b815260206004820152601260248201527152696465206973206e6f742061637469766560701b6044820152606490fd5b15612c1257565b60405162461bcd60e51b81526020600482015260126024820152714e6f20617661696c61626c6520736561747360701b6044820152606490fd5b60405190612c5982612a1c565b600782526670656e64696e6760c81b6020830152565b15612c7657565b60405162461bcd60e51b815260206004820152601660248201527552657175657374206973206e6f742070656e64696e6760501b6044820152606490fd5b9060405191828154918282526020928383019160005283600020936000905b828210612ce957505050612afc92500383612a37565b855484526001958601958895509381019390910190612cd3565b6001600160401b03811161135d5760051b60200190565b90612d2482612d03565b612d316040519182612a37565b8281528092612d42601f1991612d03565b0190602036910137565b80518210156113475760209160051b01019056fea26469706673582212205f8469fa259efa83feecf7cc0a5c1877422dbc4664aa6427a4430bdc5955f7ed64736f6c63430008110033",
  "immutableReferences": {},
  "source": "// SPDX-License-Identifier: MIT\npragma solidity ^0.8.0;\n\ncontract RideAppContract {\n    // Counter for IDs\n    uint256 private driverIdCounter = 1;\n    uint256 private clientIdCounter = 1;\n    uint256 private rideIdCounter = 1;\n    uint256 private requestIdCounter = 1;\n    uint256 private passengerIdCounter = 1;\n    \n    // Structs\n    struct Driver {\n        uint256 id;\n        address walletAddress;\n        string name;\n        string email;\n        string phone;\n        string carModel;\n        string licensePlate;\n        string carColor;\n        bool isActive;\n        uint256 timestamp;\n    }\n    \n    struct Client {\n        uint256 id;\n        address walletAddress;\n        string name;\n        string email;\n        string phone;\n        bool isActive;\n        uint256 timestamp;\n    }\n    \n    struct RideRequest {\n        uint256 id;\n        uint256 clientId;\n        address clientWalletAddress;\n        string status; // \"pending\", \"accepted\", \"rejected\"\n        uint256 requestedAt;\n    }\n    \n    struct Ride {\n        uint256 id;\n        uint256 driverId;\n        address driverWalletAddress;\n        string startLocation;\n        string destination;\n        uint8 availableSeats;\n        uint256 price; // In wei per passenger\n        string status; // \"active\", \"in_progress\", \"completed\", \"cancelled\"\n        uint256 createdAt;\n        uint256 departureTime; // Unix timestamp\n        uint256[] passengerIds;\n        uint256[] requestIds;\n    }\n    \n    struct Passenger {\n        uint256 id;\n        uint256 clientId;\n        address clientWalletAddress;\n        string status; // \"confirmed\", \"completed\"\n        bool paid;\n    }\n    \n    // New struct to return ride details (fixing stack too deep)\n    struct RideDetails {\n        uint256 id;\n        uint256 driverId;\n        address driverWalletAddress;\n        string startLocation;\n        string destination;\n        uint8 availableSeats;\n        uint256 price;\n        string status;\n        uint256 createdAt;\n        uint256 departureTime;\n        uint256[] passengerIds;\n        uint256[] requestIds;\n    }\n    \n    // Mappings\n    mapping(uint256 => Driver) public drivers;\n    mapping(address => uint256) public driverAddressToId;\n    mapping(uint256 => Client) public clients;\n    mapping(address => uint256) public clientAddressToId;\n    mapping(uint256 => Ride) public rides;\n    mapping(uint256 => Passenger) public passengers;\n    mapping(uint256 => RideRequest) public rideRequests;\n    \n    // Add new mapping to track rides per client\n    mapping(uint256 => uint256[]) private clientRides; // clientId => rideIds\n    \n    // Arrays to keep track of all entities\n    uint256[] public allDriverIds;\n    uint256[] public allClientIds;\n    uint256[] public allRideIds;\n    uint256[] public allPassengerIds;\n    \n    // Events\n    event DriverRegistered(uint256 indexed driverId, address indexed walletAddress);\n    event ClientRegistered(uint256 indexed clientId, address indexed walletAddress);\n    event RideCreated(uint256 indexed rideId, uint256 indexed driverId, uint256 price);\n    event RideRequested(uint256 indexed rideId, uint256 indexed clientId, uint256 requestId);\n    event RideRequestAccepted(uint256 indexed rideId, uint256 indexed clientId);\n    event RideRequestRejected(uint256 indexed rideId, uint256 indexed clientId);\n    event RideStarted(uint256 indexed rideId);\n    event RideCompleted(uint256 indexed rideId);\n    event RideCancelled(uint256 indexed rideId);\n    event PaymentReceived(uint256 indexed rideId, uint256 indexed clientId, uint256 amount);\n    // New event for ride confirmation by a passenger\n    event RideConfirmed(uint256 indexed rideId, uint256 indexed clientId, uint256 amount);\n    \n    // Modifiers\n    modifier onlyDriver(uint256 _driverId) {\n        require(driverAddressToId[msg.sender] == _driverId, \"Not authorized\");\n        _;\n    }\n    \n    modifier rideExists(uint256 _rideId) {\n        require(_rideId > 0 && _rideId < rideIdCounter, \"Ride does not exist\");\n        _;\n    }\n    \n    // Driver functions\n    function registerDriver(\n        string memory _name,\n        string memory _email,\n        string memory _phone,\n        string memory _carModel,\n        string memory _licensePlate,\n        string memory _carColor\n    ) public returns (uint256) {\n        require(driverAddressToId[msg.sender] == 0, \"Driver already registered\");\n        \n        uint256 newDriverId = driverIdCounter++;\n        Driver storage newDriver = drivers[newDriverId];\n        newDriver.id = newDriverId;\n        newDriver.walletAddress = msg.sender;\n        newDriver.name = _name;\n        newDriver.email = _email;\n        newDriver.phone = _phone;\n        newDriver.carModel = _carModel;\n        newDriver.licensePlate = _licensePlate;\n        newDriver.carColor = _carColor;\n        newDriver.isActive = true;\n        newDriver.timestamp = block.timestamp;\n        \n        driverAddressToId[msg.sender] = newDriverId;\n        allDriverIds.push(newDriverId);\n        \n        emit DriverRegistered(newDriverId, msg.sender);\n        return newDriverId;\n    }\n    \n    // Client functions\n    function registerClient(\n        string memory _name,\n        string memory _email,\n        string memory _phone\n    ) public returns (uint256) {\n        require(clientAddressToId[msg.sender] == 0, \"Client already registered\");\n        \n        uint256 newClientId = clientIdCounter++;\n        Client storage newClient = clients[newClientId];\n        newClient.id = newClientId;\n        newClient.walletAddress = msg.sender;\n        newClient.name = _name;\n        newClient.email = _email;\n        newClient.phone = _phone;\n        newClient.isActive = true;\n        newClient.timestamp = block.timestamp;\n        \n        clientAddressToId[msg.sender] = newClientId;\n        allClientIds.push(newClientId);\n        \n        emit ClientRegistered(newClientId, msg.sender);\n        return newClientId;\n    }\n    \n    // Ride functions\n    function createRide(\n        string memory _startLocation,\n        string memory _destination,\n        uint8 _availableSeats,\n        uint256 _price,\n        uint256 _departureTime\n    ) public returns (uint256) {\n        uint256 driverId = driverAddressToId[msg.sender];\n        require(driverId > 0, \"Driver not registered\");\n        \n        uint256 newRideId = rideIdCounter++;\n        Ride storage newRide = rides[newRideId];\n        newRide.id = newRideId;\n        newRide.driverId = driverId;\n        newRide.driverWalletAddress = msg.sender;\n        newRide.startLocation = _startLocation;\n        newRide.destination = _destination;\n        newRide.availableSeats = _availableSeats;\n        newRide.price = _price;\n        newRide.status = \"active\";\n        newRide.createdAt = block.timestamp;\n        newRide.departureTime = _departureTime;\n        \n        allRideIds.push(newRideId);\n        \n        emit RideCreated(newRideId, driverId, _price);\n        return newRideId;\n    }\n    \n    function requestRide(uint256 _rideId) public rideExists(_rideId) returns (uint256) {\n        uint256 clientId = clientAddressToId[msg.sender];\n        require(clientId > 0, \"Client not registered\");\n        \n        Ride storage ride = rides[_rideId];\n        require(bytes(ride.status).length > 0, \"Ride does not exist\");\n        require(keccak256(bytes(ride.status)) == keccak256(bytes(\"active\")), \"Ride is not active\");\n        require(ride.availableSeats > 0, \"No available seats\");\n        \n        // Check if client has already requested this ride\n        for (uint i = 0; i < ride.requestIds.length; i++) {\n            RideRequest storage existingRequest = rideRequests[ride.requestIds[i]];\n            if (existingRequest.clientId == clientId) {\n                require(\n                    keccak256(bytes(existingRequest.status)) == keccak256(bytes(\"rejected\")),\n                    \"Already requested or accepted for this ride\"\n                );\n            }\n        }\n        \n        // Create new request\n        uint256 newRequestId = requestIdCounter++;\n        RideRequest storage newRequest = rideRequests[newRequestId];\n        newRequest.id = newRequestId;\n        newRequest.clientId = clientId;\n        newRequest.clientWalletAddress = msg.sender;\n        newRequest.status = \"pending\";\n        newRequest.requestedAt = block.timestamp;\n        \n        ride.requestIds.push(newRequestId);\n        \n        emit RideRequested(_rideId, clientId, newRequestId);\n        return newRequestId;\n    }\n    \n    function acceptRideRequest(uint256 _rideId, uint256 _requestId) public rideExists(_rideId) {\n        Ride storage ride = rides[_rideId];\n        require(msg.sender == ride.driverWalletAddress, \"Only ride driver can accept requests\");\n        require(keccak256(bytes(ride.status)) == keccak256(bytes(\"active\")), \"Ride is not active\");\n        require(ride.availableSeats > 0, \"No available seats\");\n        \n        RideRequest storage request = rideRequests[_requestId];\n        require(keccak256(bytes(request.status)) == keccak256(bytes(\"pending\")), \"Request is not pending\");\n        \n        // Update request status\n        request.status = \"accepted\";\n        \n        // Create passenger\n        uint256 newPassengerId = allPassengerIds.length + 1;\n        Passenger storage newPassenger = passengers[newPassengerId];\n        newPassenger.id = newPassengerId;\n        newPassenger.clientId = request.clientId;\n        newPassenger.clientWalletAddress = request.clientWalletAddress;\n        newPassenger.status = \"confirmed\";\n        newPassenger.paid = false;\n        \n        ride.passengerIds.push(newPassengerId);\n        ride.availableSeats--;\n        allPassengerIds.push(newPassengerId);\n        \n        // Add this ride to the client's rides mapping\n        clientRides[request.clientId].push(_rideId);\n        \n        emit RideRequestAccepted(_rideId, request.clientId);\n    }\n    \n    function rejectRideRequest(uint256 _rideId, uint256 _requestId) public rideExists(_rideId) {\n        Ride storage ride = rides[_rideId];\n        require(msg.sender == ride.driverWalletAddress, \"Only ride driver can reject requests\");\n        \n        RideRequest storage request = rideRequests[_requestId];\n        require(keccak256(bytes(request.status)) == keccak256(bytes(\"pending\")), \"Request is not pending\");\n        \n        // Update request status\n        request.status = \"rejected\";\n        \n        emit RideRequestRejected(_rideId, request.clientId);\n    }\n    \n    function startRide(uint256 _rideId) public rideExists(_rideId) {\n        Ride storage ride = rides[_rideId];\n        require(msg.sender == ride.driverWalletAddress, \"Only ride driver can start the ride\");\n        require(keccak256(bytes(ride.status)) == keccak256(bytes(\"active\")), \"Ride is not active\");\n        \n        ride.status = \"in_progress\";\n        \n        emit RideStarted(_rideId);\n    }\n    \n    // Modified completeRide: Marks the ride as \"completed\"\n    // and the actual fund transfer is handled in confirmRide.\n    function completeRide(uint256 _rideId) public rideExists(_rideId) {\n        Ride storage ride = rides[_rideId];\n        require(msg.sender == ride.driverWalletAddress, \"Only ride driver can complete the ride\");\n        require(keccak256(bytes(ride.status)) == keccak256(bytes(\"in_progress\")), \"Ride is not in progress\");\n        \n        ride.status = \"completed\";\n        \n        emit RideCompleted(_rideId);\n    }\n    \n    // Confirm ride completion by a passenger.\n    // The passenger sends the exact ride price; upon confirmation,\n    // the funds are transferred to the driver.\n    function confirmRide(uint256 _rideId) public payable rideExists(_rideId) {\n        Ride storage ride = rides[_rideId];\n        require(keccak256(bytes(ride.status)) == keccak256(bytes(\"completed\")), \"Ride must be completed first\");\n        \n        // Verify that the sender is a passenger for this ride\n        bool isPassenger = false;\n        uint256 passengerIdFound;\n        for (uint i = 0; i < ride.passengerIds.length; i++) {\n            uint256 pid = ride.passengerIds[i];\n            Passenger storage passenger = passengers[pid];\n            if (passenger.clientWalletAddress == msg.sender) {\n                require(!passenger.paid, \"Payment already confirmed\");\n                isPassenger = true;\n                passengerIdFound = pid;\n                break;\n            }\n        }\n        require(isPassenger, \"Caller is not a passenger of this ride\");\n        \n        // Ensure the correct payment amount is sent (price per passenger)\n        require(msg.value == ride.price, \"Incorrect payment amount\");\n        \n        // Mark the passenger as having confirmed payment\n        passengers[passengerIdFound].paid = true;\n        passengers[passengerIdFound].status = \"confirmed\";\n        \n        // Transfer funds to the driver's wallet\n        payable(ride.driverWalletAddress).transfer(msg.value);\n        \n        emit RideConfirmed(_rideId, passengers[passengerIdFound].clientId, ride.price);\n    }\n    \n    // New function: Get detailed ride information as a single struct to avoid stack too deep error.\n    function getRideDetails(uint256 _rideId) public view rideExists(_rideId) returns (RideDetails memory) {\n        Ride storage ride = rides[_rideId];\n        RideDetails memory details = RideDetails({\n            id: ride.id,\n            driverId: ride.driverId,\n            driverWalletAddress: ride.driverWalletAddress,\n            startLocation: ride.startLocation,\n            destination: ride.destination,\n            availableSeats: ride.availableSeats,\n            price: ride.price,\n            status: ride.status,\n            createdAt: ride.createdAt,\n            departureTime: ride.departureTime,\n            passengerIds: ride.passengerIds,\n            requestIds: ride.requestIds\n        });\n        return details;\n    }\n    \n    function cancelRide(uint256 _rideId) public rideExists(_rideId) {\n        Ride storage ride = rides[_rideId];\n        require(msg.sender == ride.driverWalletAddress, \"Only ride driver can cancel the ride\");\n        require(keccak256(bytes(ride.status)) == keccak256(bytes(\"active\")), \"Ride cannot be cancelled at this stage\");\n        \n        ride.status = \"cancelled\";\n        \n        emit RideCancelled(_rideId);\n    }\n    \n    // Getter functions\n    function getActiveRides() public view returns (uint256[] memory) {\n        uint256[] memory activeRideIds = new uint256[](allRideIds.length);\n        uint256 count = 0;\n        \n        for (uint i = 0; i < allRideIds.length; i++) {\n            uint256 rideId = allRideIds[i];\n            if (keccak256(bytes(rides[rideId].status)) == keccak256(bytes(\"active\"))) {\n                activeRideIds[count] = rideId;\n                count++;\n            }\n        }\n        \n        uint256[] memory result = new uint256[](count);\n        for (uint i = 0; i < count; i++) {\n            result[i] = activeRideIds[i];\n        }\n        \n        return result;\n    }\n    \n    function getDriverRides(uint256 _driverId) public view returns (uint256[] memory) {\n        uint256[] memory driverRideIds = new uint256[](allRideIds.length);\n        uint256 count = 0;\n        \n        for (uint i = 0; i < allRideIds.length; i++) {\n            uint256 rideId = allRideIds[i];\n            if (rides[rideId].driverId == _driverId) {\n                driverRideIds[count] = rideId;\n                count++;\n            }\n        }\n        \n        uint256[] memory result = new uint256[](count);\n        for (uint i = 0; i < count; i++) {\n            result[i] = driverRideIds[i];\n        }\n        \n        return result;\n    }\n    \n    function getRideRequests(uint256 _rideId) public view rideExists(_rideId) returns (uint256[] memory) {\n        return rides[_rideId].requestIds;\n    }\n    \n    function getRidePassengers(uint256 _rideId) public view rideExists(_rideId) returns (uint256[] memory) {\n        return rides[_rideId].passengerIds;\n    }\n    \n    // Add function to get all rides for a client\n    function getClientRides(uint256 _clientId) public view returns (uint256[] memory) {\n        return clientRides[_clientId];\n    }\n    \n    function getTotalDrivers() public view returns (uint256) {\n        return driverIdCounter - 1;\n    }\n    \n    function getTotalClients() public view returns (uint256) {\n        return clientIdCounter - 1;\n    }\n}\n",
  "sourcePath": "C:\\Users\\user\\Desktop\\ChainRide\\SmartContract\\contracts\\RideAppContract.sol",
  "compiler": {
    "name": "solc",
    "version": "0.8.17+commit.8df45f5f.Emscripten.clang"
  },
  "schemaVersion": "3.4.16",
  "updatedAt": "2025-03-21T15:41:24.735Z",
  "networkType": "ethereum",
  "devdoc": {
    "kind": "dev",
    "methods": {},
    "version": 1
  },
  "userdoc": {
    "kind": "user",
    "methods": {},
    "version": 1
  }
}